:10030B001200037F007EF81202397FE87E0312038E
:10031B00E57FE87E031203E57FE07E071202397F5B
:10032B00E87E031203E57FE87E031203E57F1F7E61
:10033B00001202397FE87E031203E57FE87E031289
:04034B0003E580BF87
:1003E500E4FDFCC3ED9FEE6480F8EC648098501545
:1003F500E4FBFA0BBB00010ABA03F8BBE8F50DBD37
:0504050000010C80DE87
:01040A0022CF
:10040B00E4FDFCC3ED9FEE6480F8EC64809850151E
:10041B00E4FBFA0BBB00010AEB64014A70F50DBD5E
:05042B0000010C80DE61
:0104300022A9
:030000000201AD4D
:0C01AD00787FE4F6D8FD7581070201F4AC
:0A049F004200000000420002FFFFCF
:0F047700C2938FA0AF058F80C291D291D29322F2
:0504AA00D2920204776C
:0B044C0012046C90000FE0FEA3E0FF24
:0B045700AD07AC06C292ECFF02047778
:0A046200120457E4FF12046CE4FFDB
:0B046C00AD07AC06D292ECFF02047753
:0E048600AB05AA04120457AE02AF0302046CC9
:0B04940090000BE0FEA3E0FF02045705
:08023900900011EEF0A3EFF0BC
:10024100900005E024FFFB900004E034FFFA9000E9
:1002510007E024FFFE900006E034FF90001BF0A3AE
:10026100CEF0E4FDFCFFFE1202BAE4900013F0A30D
:10027100F0900004E0FEA3E0FFC3900014E09F9023
:100281000013E09E5032E4FBFAD3900007E09B900C
:100291000006E09A4012900011E0FEA3E0FF120474
:1002A1006C0BBB00010A80E1900014E004F070C106
:0802B100900013E004F080B995
:0102B9002222
:1003BB00AB07AA068D828C83C006C007AE83AF82C3
:1003CB0090001BEEF0A3EFF0D007D0061202BA900C
:0A03DB000000E0FEA3E0FF02046C46
:10043100D2B37F327E001203E5C2B37F327E001257
:0B04410003E5D2B37F327E000203E52A
:10000300120431D2907FCF7E00120457E4FF120412
:100013006C7FC112046C7F3012046C7FED120457A5
:100023007F6412046C7F0312046C7F1212046C7FD2
:100033008112046C7FE81204577F8512046C7F10D1
:1000430012046C7F7A12046C7FCB1204577F39122F
:10005300046C7F2C1204677F3412046C7F02120439
:100063006C7FF71204577F2012046C7FEA1204623C
:100073007FC01204577F1B12046C7FC11204577F89
:100083000112046C7FC51204577F3012046C7F3059
:1000930012046C7FC71204577FB712046C7F3612A9
:1000A30004577F4812046C7F3A1204577F55120499
:1000B3006C7FB1120457E4FF12046C7F1A12046CB4
:1000C3007FB61204577F0A12046C7FA212046C7F5E
:1000D300F2120457E4FF12046C7F261204577F01C7
:1000E30012046C7FE01204577F0F12046C7F2A12F4
:1000F300046C7F2812046C7F0812046C7F0E1204B8
:100103006C7F0812046C7F5412046C7FA912046C78
:100113007F4312046C7F0A12046C7F0F12046C126B
:1001230004651204657FE1120457E4FF12046C7F37
:100133001512046C7F1712046C7F0712046C7F1175
:1001430012046C7F0612046C7F2B12046C7F561210
:10015300046C7F3C12046C7F0512046C7F10120444
:100163006C7F0F12046C7F3F12046C7F3F12046C90
:100173007F0F12046C7F2B1204627F0112046C7FC9
:100183003F12046C7F2A120462E4FF12046C7FEFB7
:1001930012046C7F111204577F781203E57F297EC6
:0A01A3000012045712034FD2B222DB
:1002BA00900015EEF0A3EFF0A3ECF0A3EDF09000A0
:1002CA000D120452900015E0FF7E0012046CA3E0A8
:1002DA00FF12046CEAFF12046CAF037E0012044C96
:1002EA00900017E0FF7E0012046CA3E0FF12046C7A
:1002FA0090001BE0FF12046CA3E0FF12046C0204DE
:01030A00945E
:1003880090001DEEF0A3EFF0AB05AA0490000D124B
:10039800045290001DE0FF7E0012046CA3E0FF12DF
:1003A800044CEAFF7E0012046CAF037E0012046C5A
:0303B800020494A8
:10034F0090000BE4F0A3742CF090000A7401F0906D
:10035F000004F0A37440F0A3E4F0A374F0F0900055
:10036F000DE4F0A3742AF0A3E4F0A3742BF07D6CDA
:09037F007C007F367E000204863A
:1001B90002030BE493A3F8E493A34003F68001F24E
:1001C90008DFF48029E493A3F85407240CC8C33347
:1001D900C4540F4420C8834004F456800146F6DF16
:1001E900E4800B010204081020408090049FE47E03
:1001F900019360BCA3FF543F30E509541FFEE4930B
:10020900A360010ECF54C025E060A840B8E493A3D1
:10021900FAE493A3F8E493A3C8C582C8CAC583CAFC
:10022900F0A3C8C582C8CAC583CADFE9DEE780BEB4
:0104A9000052
:00000001FF
