:1060CA0053B1FB43B2041249C91258B2123FD41257
:1060DA0047E7124CD41257E3125A3712561A123D96
:0360EA009280E6BB
:10149100514474656368B0E6C8A8CBF9D3D000C8DD
:1014A100ABB6AFB5E7D7D3D7DBBACFB2E2CAD4B3C5
:1014B100CCD0F200C8ABB6AFB5E7D7D300D7DBBA13
:1014C100CFB2E2CAD4B3CCD0F200332E32272049B6
:1014D1004C4939333431203234305833323000788A
:1014E10069616F46656E6740514474656368203277
:1014F1003031342D30322D323500B2E2CAD4313A96
:10150100B4BFC9ABCCEEB3E4B2E2CAD40057686948
:10151100746500426C61636B0052656400477265DB
:10152100656E00426C756500B2E2CAD4323A475525
:1015310049BED8D0CECCEEB3E4B2E2CAD400B2E216
:10154100CAD4333A475549BBADD4B2CCEEB3E4B2B9
:10155100E2CAD400B2E2CAD4343AD3A2CEC4CFD4C0
:10156100CABEB2E2CAD400365831323A616263640B
:1015710065666768696A6B6C6D6E6F7071727374A2
:1015810075767778797A00365831323A4142434458
:1015910045464748494A4B4C4D4E4F503031323306
:1015A10034353637383900365831323A7E214023C6
:1015B10024255E262A28295F2B7B7D3A3C3E3F2F3E
:1015C1007C2D2B2E00385831363A61626364656692
:1015D1006768696A6B6C6D6E6F7071727374757622
:1015E1007700385831363A414243444546474849E5
:1015F1004A4B4C4D4E303132333435363700385842
:1016010031363A7E21402324255E262A28295F2B64
:101611007B7D3A3C3E3F2F7C00B2E2CAD4353AD6BC
:10162100D0CEC4CFD4CABEB2E2CAD400313658310A
:10163100363AC8ABB6AFB5E7D7D3BCBCCAF5D3D041
:10164100CFDEB9ABCBBEBBB6D3ADC4FA0031365891
:1016510031363A57656C636F6D65C8ABB6AFB5E7A8
:10166100D7D30032345832343AC9EEDBDACAD0D695
:10167100D0CEC4B2E2CAD40033325833323AD7D6CC
:10168100CCE5B2E2CAD400B2E2CAD4363ACDBCC685
:10169100ACCFD4CABEB2E2CAD400515100B2E2CA40
:1016A100D4373A546F756368B2E2CAD400525354C6
:1016B10000FFFFFFFFFFFFFFFFFFFFFFFFFFFFFF38
:1016C100FFFFFFFFFFFFFFFFFFFFFFFFFFFFFFBE6A
:1016D100F7FFFFDEFF38C6928C8E6B6E6B107C9627
:1016E100AD3CE7FFFFFFFFFFFFFFFFFFFFFFFFFF36
:1016F100FFFFFFFFFFFFFFFFFFFFFFFFFFFFFFFFF9
:10170100FFFFFFFFFFFFFFFFFFFFFFFFFFFFFFFFE8
:10171100FFFFFFFFFFFFFFFFFFFFFFFFFFFFFF5D7A
:10172100EF159D4F636C420A3288294619251945E8
:1017310021E8318E6B38C6FFFFFFFFFFFFFFFFFF80
:10174100FFFFFFFFFFFFFFFFFFFFFFFFFFFFFFFFA8
:10175100FFFFFFFFFFFFFFFFFFFFFFFFFFFFFFFF98
:10176100FFFFFFFFFFFFFFFFFFFFFFFFFF36A5109A
:1017710053104B51530F4B6C3AE93167212519E452
:1017810010A30862008308CB529AD6FFFFFFFFFF28
:10179100FFFFFFFFFFFFFFFFFFFFFFFFFFFFFFFF58
:1017A100FFFFFFFFFFFFFFFFFFFFFFFFFFFFFFFF48
:1017B100FFFFFFFFFFFFFFFFFF3CE77063B363B86D
:1017C1007CF56311434D32EA298821261905190553
:1017D1001904110411E4108300A308728CFFFFFFA8
:1017E100FFFFFFFFFFFFFFFFFFFFFFFFFFFFFFFF08
:1017F100FFFFFFFFFFFFFFFFFFFFFFFFFFFFFFFFF8
:10180100FFFFFFFFFFFFFFDBDE4B3AF042356C5479
:101811004BB1322E2AEB21A92167190519041104B4
:10182100110411041104110519E4104200AF73FFF2
:10183100FFFFFFFFFFFFFFFFFFFFFFFFFFFFFFFFB7
:10184100FFFFFFFFFFFFFFFFFFFFFFFFFFFFFFFFA7
:10185100FFFFFFFFFF5DEF09324C32104B8F324F1C
:101861002A2E2ACC1989198921471905190411042D
:1018710011C410C410041104110411E41042003108
:1018810084FFFFFFFFFFFFFFFFFFFFFFFFFFFFFFE2
:10189100FFFFFFFFFFFFFFFFFFFFFFFFFFFFFFFF57
:1018A100FFFFFFFFFFEC5247194C320B2AEC21ECF2
:1018B100210C22915BEE4A061126190419E410E469
:1018C10010A7296621A308051904110411E4108247
:1018D10000F7BDFFFFFFFFFFFFFFFFFFFFFFFFFF60
:1018E100FFFFFFFFFFFFFFFFFFFFFFFFFFFFFFFF07
:1018F100FFFFFF35A58308882188218921AA218A34
:10190100216B42718CFFFF728C83080411C408297A
:1019110042FBDE5DEFEC5A830804110411041183CC
:1019210008E831DFFFFFFFFFFFFFFFFFFFFFFFFFC2
:10193100FFFFFFFFFFFFFFFFFFFFFFFFFFFFFFFFB6
:10194100FFBEF7C731C4102519261947194719A831
:10195100298A52284A55ADFFFFE831A30805194DE0
:101961006B4D6BFFFF7DEF4521C410041104110481
:1019710011620076ADFFFFFFFFFFFFFFFFFFFFFFDB
:10198100FFFFFFFFFFFFFFFFFFFFFFFFFFFFFFFF66
:10199100FF96B562000411041905110519C4088BDD
:1019A1004AB6B55DEFF7BDFFFF8E6B62002942AA13
:1019B1005A0842FFFFFFFFCC5283080411041104AF
:1019C10011A308AD52FFFFFFFFFFFFFFFFFFFFFF66
:1019D100FFFFFFFFFFFFFF1CE7FFFFFFFFFFFFFF11
:1019E100FF4E636200041104110411E41062008EC1
:1019F10063FFFFFFFFFFFFFFFFCF730100F39C2C8D
:101A01006396B5FFFFFFFF2D5B83000411041104F2
:101A110011E41067213DEFFFFFFFFFFFFFFFFFFF15
:101A2100FFF8BDB7B59EEFCB52B394FFFFFFFFDFC9
:101A3100FFE831A3080411041104110411A308499A
:101A410042FFF7FFF7FFFFFFFF6A4A01007284FFC1
:101A5100FFFFFFFFF7DFEF093AA3080411041104A8
:101A6100110411051118BEFFFFFFFFFFFFFFFFFF6C
:101A7100FFF07B6200E831C731410035A5FFFF5D12
:101A8100EF4621C4100411041104110411E410A340
:101A910008769DFFF7FFFFB7ADA308A308C7319EE6
:101AA100E7FFF7FFF776A5A308E41004110411047A
:101AB100110511051135A5FFFFFFFFFFFFFFFFFF17
:101AC100FFDBDEA7298300C410C410C4101CE79EED
:101AD100EF0511E41004110411041104110419C4D7
:101AE10008E510D16BD16BC5086400A50843002B34
:101AF10032779DB3842519C4100411041104110413
:101B01001125192609359DFFFFFFFFFFFFFFFFFF8D
:101B1100FFFFFFAF7362000419051982000D5B8E90
:101B21009B62100511041104110419E410850005CC
:101B310011C439815A407B229C43AC03A4839B820C
:101B4100728249C218A400C500E4100419041105E9
:101B51001947196711EC5ABEFFFFFFFFFFFFFFFF97
:101B6100FFDFFFDBDEC410E41004110511A418012E
:101B7100C08388E40005190419C50844214383235F
:101B8100D542FEE4FE27FF07FFA4FE64FE03FEA389
:101B9100FDE2FC42EC83B32462E510C4080419267B
:101BA10019A81987210090D3BCFFFFFFFFFFFFFF9A
:101BB100FFDFFFFFFF107C4200051905118328019B
:101BC100D044F8A348E400C508445A02EDE2FD02FE
:101BD100FE66FE74FFB8FF73FFE7F6A6F645F6A4AE
:101BE100F5C3FC62FCC2FCC2FCE3CBC4490611880C
:101BF100198701A49001F8EC9AFFFFFFFFFFFFFF97
:101C0100FFFFFFFFFFBEF7E83183000509824001B6
:101C1100C023F885F0A348A400445A02FD23CCC296
:101C2100DC04FE28FE48F646F624F6E4F564FDE3FE
:101C3100FC62FCC2FC02E402DCE2FCA47A4801671B
:101C410001C47824F802F884B07DE7FFFFFFFFFFAD
:101C5100FFFFFFFFFFFFFFDBDE2519A300C43802F2
:101C6100E022D844F8A6F8A4786300432183728364
:101C710039829B21F561FD22FDE2FCA2FC42FC427E
:101C8100FC42FC22AB8341C392045226012519A4D4
:101C91009844F823F802F8A4D09EEFFFFFFFFFFF5E
:101CA100FFFFFFFFFFFFFFFFFF9AD68729A5004334
:101CB100B822F823E065F8E8F807C983484200A391
:101CC1000084006329A27A62B3A2CB62D302BB82F1
:101CD1008A8339A400E500E500E508C46064D844BE
:101CE100F824F823F802F88388DBC6FFFFFFFFFF23
:101CF100FFFFFFFFFFFFFFFFFFFFFF3DE7505B0817
:101D01003123E843F844F065F809F9ABF989D106C4
:101D110089A3484218020042006100820062006209
:101D2100008300A320C450A58885D865F844F844F1
:101D3100F823F823F803D08210C7295DEFFFFFFFD6
:101D4100FFFFFFFFFFFFFFFFFFFFFFFFFFFFFF6C35
:101D510032A53802D823F865F866F8A7F84AF90CD5
:101D6100FA4DFA4CEA0BD2A9B968B147A927B107D4
:101D7100B907D1E7E8C7F8A7F865F865F844F8238B
:101D8100F803F802D0A3280509C408EC5AFFFFFFA5
:101D9100FFFFFFFFFFFFFFFFFFFFFFFFFFFBDE0571
:101DA10019C400A741E6C003F886F8A7F887F886AA
:101DB100F8C7F829F98AF9ABF9ABF98BF96AF9296E
:101DC100F908F9C7F8A6F886F865F864F823F80267
:101DD100F006B12529E400E41025192519149DFF09
:101DE100FFFFFFFFFFFFFFFFFFFFFFFFFF96AD625A
:101DF1000082083595BACE8BA244D025F887F8A782
:101E0100F8C7F8A7F887F886F886F886F887F8A75C
:101E1100F8A7F8A6F885F865F864F824F064B80D19
:101E210093BBB6CF6383080411E4106621493A5D80
:101E3100EFFFFFFFFFFFFFFFFFFFFFFFFFD3944215
:101E410000E410BBCEFFFFBEE776B5CCAA07C145C3
:101E5100E045F846F866F886F886F886F886F8656B
:101E6100F845F865F865E844D043A8018882903CBC
:101E7100D7FFEF559583080411041105194619B3CD
:101E810094FFFFFFFFFFFFFFFFFFFFFFFFB3944141
:101E91000086215DDFFFFFFFFFFFFFDFE77AC6D38B
:101EA100B44EB32AC268D1E6E0A6E8A5E8A5E8E603
:101EB100D888C906A922A802A800A000C800D8F79E
:101EC100E5FFE7F8ADC410E4100411E41005118B2F
:101ED1004AFFFFFFFFFFFFFFFFFFFFFFFF55A54188
:101EE10000A7295DDFFFF7FFFFFFFFFFFFFFFFFFF8
:101EF100FFFFEF7DDFDBCE59CEF8CDD7CDF7C5792A
:101F0100CEFBBEABA203F045F842D043E800F0722D
:101F1100D4FFDF39AEE410E4100411E41005118799
:101F210029FFFFFFFFFFFFFFFFFFFFFFFF59CE83E9
:101F31000846211CD7FFF7FFFFFFFFFFFFFFFFFF51
:101F4100FFFFFFFFFFFFFFFFFFFFFFFFFFFFFFFFA0
:101F5100FFFFEF8BBA04F845F862E044F000F88E19
:101F6100DBFFDFF8A5C410E410E4100411E4102530
:101F710019FFFFFFFFFFFFFFFFFFFFFFFFBEF78717
:101F810029830839B6FFF7DFF7FFFFFFFFFFFFFFE8
:101F9100FFFFFFFFFFFFFFFFFFFFFFFFFFFFFFFF50
:101FA100FFBEE74ABA03F845F864F844F800F86E52
:101FB100E3FFD7F48C83080411E410E410E4100566
:101FC10019FFFFFFFFFFFFFFFFFFFFFFFFFFFFEF16
:101FD1007300007284FFEFBEEFDFFFFFFFFFFFFF23
:101FE100FFFFFFFFFFFFFFFFFFFFFFFFFFFFFFFF00
:101FF100FFDFE78BBA03F845F845F823F800F8D37B
:10200100D4FFD74E5B2100293A55A58308C410257A
:1020110019FFFFFFFFFFFFFFFFFFFFFFFFFFFFFBB9
:10202100DEA308E8319EDF9EE7BFEFFFFFFFFFFF62
:10203100FFFFFFFFFFFFFFFFFFFFFFFFFFFFFFFFAF
:10204100FFFFF751BC02E003F803F043E0ECC27E6E
:10205100CFFCBE46212100D394FFFF5184000087AD
:1020610029FFFFFFFFFFFFFFFFFFFFFFFFFFFFFF55
:10207100FF51840000F48CFFEF9EE7BFEFDFFFFF0D
:10208100FFFFFFFFFFFFFFFFFFFFFFFFFFFFFFFF5F
:10209100FFFFFF3DDF55BD52BC72BCB7B55DC7FF49
:1020A100DFF06B0000093ABFF7FFFFFFFF149D55FA
:1020B100A5FFFFFFFFFFFFFFFFFFFFFFFFFFFFFF89
:1020C100FFFFFFAC4AA408BBBEDFE77EE7BEEFDF40
:1020D100F7DFFFFFFFFFFFFFFFFFFFFFFFFFFFFF37
:1020E100FFDFFFDFF7FFEFDFDFBFD79ED7DFDFD8EF
:1020F100A583082611DBD6FFFFFFFFFFFFFFFFFFD0
:10210100FFFFFFFFFFFFFFFFFFFFFFFFFFFFFFFFDE
:10211100FF79EE8BDC2131A9213DCFBFDF7EDF9E30
:10212100E7BEEFBFEFDFF7DFF7DFF7DFF7DFF7BF7F
:10213100EFBEEF9EE77EDF5ED75ED7DFDF9AB62682
:10214100194208EDA3BFFFFFFFFFFFFFFFFFFFFFE6
:10215100FFFFFFFFFFFFFFFFFFFFFFFFFFFFFF7419
:10216100DDC0DB00FE42EE024289217BB6DFDF7E6D
:10217100D77EDF7EDF9EE79EE79EE79EE79EE77EB6
:10218100DF7EDF5DD75DD79EDFFFE7F8A50711E3AF
:102191001802C560FDE6D3DBEEFFFFFFFFFFFFFF87
:1021A100FFFFFFFFFFFFFFFFFFFFFFFFFF9EF78422
:1021B100BAC1FC42FE82FEA2FE8183452174745E97
:1021C100C7DFDF7ED75ED75DD75ED75ED75DD75DD0
:1021D100D75ED79EDFFFE73DC7F1638408425226F1
:1021E100E629FF86FEE0F36AC3FFFFFFFFFFFFFF63
:1021F100FFFFFFFFFFFFFFFFFFFFFFFFFF18DEC134
:10220100D2A2FD22FE42FE42FE62FEE2D4416A49B2
:102211004253743BA63EC7BFD7BFD7BFD7BFDFBFAF
:10222100D73EC71AA6F263A729824122B462FE8370
:10223100FEAAFE0FFF67FD63BA3CEFFFFFFFFFFF42
:10224100FFFFFFFFFFFFFFFFFFFFFFFFFF9AE6809A
:10225100D221FDC2FDE2F5C2F582F582FD62FD618A
:10226100DC219B846AE96A2C63AF6311746E632C71
:1022710063895A0452817AC2CBE2FC62FD82FDC2BB
:10228100FDC2FDE4FD24FD62CA1CE7FFFFFFFFFF65
:10229100FFFFFFFFFFFFFFFFFFFFFFFFFFFFFFB19B
:1022A100CC81D2C0F3C1FC02FD02FDE2FCC2FCC242
:1022B100FC81FC80FBC0C9A48135AD59CE719C2144
:1022C1008100DAA1FB82FCA2FC82FCA2FC02FD22BD
:1022D100FDE2FC00FC60DA90CCFFFFFFFFFFFFFF97
:1022E100FFFFFFFFFFFFFFFFFFFFFFFFFFFFFFFFFD
:1022F100FF59DE0DC406CBE4D203DB03DBE3DAC313
:10230100D2A4C209B3D2BC9EF7FFFFFFFFFFFFFBC0
:10231100E60EB4A6BA83D2E3E202EB22EB22E30398
:10232100DBE4D26AC3B6D5FFFFFFFFFFFFFFFFFF6C
:01233100FFAC
:0D6003004A00ACF81FFFE0F80007E0001FA6
:065523007BFF7A16799E61
:10552900900005EBF0A3EAF0A3E9F0900082E0FA1D
:10553900A3E0FB90000FE4F0A37414F0A3E4F0A33C
:10554900741FF0E4FDFCFFFE12541D900084E0FE80
:10555900A3E0FF24ECFDEE34FFFC900082E0FAA307
:10556900E0FB90000FEEF0A3EFF0A3E4F0A3741FAB
:10557900F0E4FFFE12541D74FF90007EF0A3F0903A
:10558900000EE4F0A3741FF0900005E0F9A3E0FA1F
:10559900A3E0900010C9F0A3EAF0A3E9F0A3741006
:1055A900F0A37401F074FFFBFA7D027C00E4FFFEB6
:1055B900125BA1900085E024EEFD900084E034FFA9
:1055C900FC90000EE4F0A3741FF0A374FFF0A37421
:1055D90014F0A37491F0A37410F0A37401F074FF94
:1055E900FBFAE4FFFE125BA1900082E0FAA3E0FB64
:1055F900900085E024ECFE900084E034FF90000FD9
:10560900F0A3CEF0E4A3F0A3F07D14FCFFFE025456
:015619001D73
:1058B2007BFF7A1479A012552990000EE4F0A374AC
:1058C2001FF0A374FFF0A37414F0A374B5F0A374D3
:1058D20010F0A37401F07B007AF87D1E7C00E4FFD7
:1058E200FE125BA190000EE4F0A3741FF0A374FFFC
:1058F200F0A37414F0A374BEF0A37410F0A37401A7
:10590200F07B007AF87D3C7C00E4FFFE125BA19004
:10591200000EE4F0A3741FF0A374FFF0A37414F05C
:10592200A374CBF0A37410F0A37401F07BE07AFFB0
:105932007D5A7C00E4FFFE125BA190000EE4F0A30E
:10594200741FF0A374FFF0A37414F0A374E0F0A327
:105952007410F0A37401F07B1F7A007D787C00E460
:10596200FFFE125BA17FDC7E051260597FDC7E05A3
:0359720002605977
:103FD4007BFF7A1479FB125529900082E0FAA3E062
:103FE400FB900085E024ECFE900084E034FF900018
:103FF4000FF0A3CEF074FFA3F0A3F07D147C00E4D3
:10400400FFFE12541D900083E024CEFF900082E056
:1040140034FFFE90001B74FFF0A374E0F0A374FF60
:10402400F0A37415F0A3740EF0A37410F0A374013C
:10403400F07B1F7A007D1E7C001234287FF47E0101
:10404400126059900082E0FAA3E0FB900085E0241E
:10405400ECFE900084E034FF90000FF0A3CEF0E477
:10406400A3F0A3F07D14FCFFFE12541D900083E026
:1040740024CEFF900082E034FFFE90001B74FFF01A
:10408400A374E0F0A374FFF0A37415F0A37414F008
:10409400A37410F0A37401F07B1F7A007D1E7C00D2
:1040A4001234287FF47E01126059900082E0FAA352
:1040B400E0FB900085E024ECFE900084E034FF9067
:1040C400000FF0A3CEF0A374F8F0A3E4F07D14FC89
:1040D400FFFE12541D900083E024CEFF900082E086
:1040E40034FFFE90001B74FFF0A374E0F0A374FF90
:1040F400F0A37415F0A3741AF0A37410F0A3740160
:10410400F07B1F7A007D1E7C001234287FF47E0130
:10411400126059900082E0FAA3E0FB900085E0244D
:10412400ECFE900084E034FF90000FF0A3CEF0A3E7
:104134007407F0A374E0F07D147C00E4FFFE1254D5
:104144001D900083E024CEFF900082E034FFFE90B7
:10415400001B74FFF0A374E0F0A374FFF0A37415C4
:10416400F0A3741EF0A37410F0A37401F07B1F7A03
:10417400007D1E7C001234287FF47E011260599069
:104184000082E0FAA3E0FB900085E024ECFE9000BE
:1041940084E034FF90000FF0A3CEF0A3E4F0A37406
:1041A4001FF07D147C00E4FFFE12541D900083E098
:1041B40024CEFF900082E034FFFE90001B74FFF0D9
:1041C400A374E0F0A374FFF0A37415F0A37424F0B7
:1041D400A37410F0A37401F074FFFBFA7D1E7C003D
:0A41E4001234287FF47E01026059B6
:1047E700E4900000F07BFF7A157929125529900093
:1047F70082E0FAA3E0FB900085E024ECFE900084C1
:10480700E034FF90000FF0A3CEF074FFA3F0A3F005
:104817007D147C00E4FFFE12541DE4900000F0902C
:104827000082E0C313FEA3E01324B0FDEE34FFFCC7
:10483700900000E0F975F00FA4FBAAF02DFFEA3C09
:10484700FEC006C007900084E0C313FEA3E0132454
:10485700B0FFEE34FFCF2BFDEF3AFCC004C005904C
:104867000082E0C313FCA3E013FDE975F00FA42D4C
:10487700FFE5F03CCF24ECFBEF34FFFAA3E0C313D2
:10488700FCA3E013FDE975F00FA42DFFE5F03CCF85
:1048970024ECCF34FF900007F0A3EFF0D005D0044D
:1048A700D007D006125AF7900000E025E024ACF5B7
:1048B70082E43400F583E0FFA3E090007ECFF0A30D
:1048C700EFF0900000E004F0E0C3940550030248C5
:1048D700267FDC7E05126059900082E0FAA3E0FB98
:1048E700900085E024ECFE900084E034FF90000FF8
:1048F700F0A3CEF074FFA3F0A3F07D147C00E4FFD7
:10490700FE12541DE4900000F0900082E0C313FEF5
:10491700A3E01324B0FDEE34FFFC900000E0F9752E
:10492700F00FA4FBAAF02DFFEA3CFEC006C00790DB
:104937000084E0C313FEA3E01324B0FFEE34FFCFDF
:104947002BFDEF3AFCC004C005900082E0C313FCC6
:10495700A3E013FDE975F00FA42DFFE5F03CCF248C
:10496700ECFBEF34FFFAA3E0C313FCA3E013FDE96C
:1049770075F00FA42DFFE5F03CCF24ECCF34FF906A
:104987000007F0A3EFF0D005D004D007D0061260DF
:10499700A5900000E025E024ACF582E43400F5831F
:1049A700E0FFA3E090007ECFF0A3EFF0900000E0DF
:1049B70004F0E0C3940550030249107FDC7E050232
:0249C700605935
:104CD400E4900000F07BFF7A15793F12552990008B
:104CE40082E0FAA3E0FB900085E024ECFE900084CF
:104CF400E034FF90000FF0A3CEF074FFA3F0A3F014
:104D04007D147C00E4FFFE12541DE4900000F0903A
:104D14000082E0C313FEA3E01324B0FDEE34FFFCD5
:104D2400900000E0F975F019A4FBAAF02DFFEA3C0D
:104D3400FEC006C007900084E0C313FEA3E0132462
:104D4400CEFFEE34FFCF2BFDEF3AFCE925E024AC97
:104D5400F582E43400F583E0FAA3E0FB900007E475
:104D6400F0A3741EF0E4A3F0A3F0D007D00612441D
:104D740006900000E004F0E0C3940540927FDC7EDE
:104D840005126059900082E0FAA3E0FB900085E0F0
:104D940024ECFE900084E034FF90000FF0A3CEF0EA
:104DA40074FFA3F0A3F07D147C00E4FFFE12541DF5
:104DB400E4900000F0900082E0C313FEA3E013240B
:104DC400B0FDEE34FFFC900000E0F975F019A4FB8F
:104DD400AAF02DFFEA3CFEC006C007900084E0C3A1
:104DE40013FEA3E01324CEFFEE34FFCF2BFDEF3AE6
:104DF400FCE925E024ACF582E43400F583E0FAA371
:104E0400E0FB900007E4F0A3741EF0A3E4F0A30415
:104E1400F0D007D006124406900000E004F0E0C38E
:0B4E2400940540917FDC7E0502605980
:1057E3007BFF7A15795512552990007E74F8F0A342
:1057F300E4F0900080F0A3741FF090000A74FFF0AF
:10580300A37415F0A37468F0E4A3F07B0C7D1EFC75
:105813007F0AFE12597590000A74FFF0A37415F005
:10582300A37488F0A37401F07B0C7D2D7C007F0AA8
:105833007E0012597590000A74FFF0A37415F0A34B
:1058430074A8F0E4A3F07B0C7D3CFC7F0AFE1259A4
:105853007590000A74FFF0A37415F0A374C6F0E406
:10586300A3F07B107D50FC7F0AFE12597590000A4D
:1058730074FFF0A37415F0A374E3F0A37401F07B39
:10588300107D647C007F0A7E0012597590000A74B3
:10589300FFF0A37415F0A374FFF0E4A3F07B107D75
:0F58A30078FC7F0AFE1259757FB07E04026059AF
:105A37007BFF7A16791A12552990001B74FFF0A381
:105A470074E0F0A374FFF0A37416F0A3742DF0A311
:105A57007410F0E4A3F07B1FFA7D1EFC7F0AFE1290
:105A6700342890001B74FFF0A374E0F0A374FFF0D8
:105A7700A37416F0A3744EF0A37410F0A37401F08E
:105A87007B1F7A007D327C007F0A7E0012342890CB
:105A9700001B74FFF0A374E0F0A374FFF0A3741667
:105AA700F0A37464F0A37418F0A37401F07B1F7A59
:105AB700007D467C007F0A7E0012342890001B740C
:105AC700FFF0A374E0F0A374FFF0A37416F0A374BF
:105AD70079F0A37420F0A37401F07B1F7A007D6432
:105AE7007C007F0A7E001234287FB07E0402605952
:10561A007BFF7A167988125529900082E0FAA3E076
:10562A00FB900085E024ECFE900084E034FF9000BB
:10563A000FF0A3CEF074FFA3F0A3F07D147C00E476
:10564A00FFFE12541D7BFF7A1679B27D1E7C007F05
:10565A001E7E0012571090001B74FFF0A374E0F036
:10566A00A374FFF0A37416F0A3749BF0A37410F054
:10567A00A37401F07B1F7A007D4B7C007F2A7E0099
:10568A001234287BFF7A1679B27D1E7C007F5A7EFF
:10569A000012571090001B74FFF0A374E0F0A3747B
:1056AA00FFF0A37416F0A3749BF0A37410F0A37414
:1056BA0001F07B1F7A007D4B7C007F667E001234EE
:1056CA00287BFF7A1679B27D1E7C007F967E0012B7
:1056DA00571090001B74FFF0A374E0F0A374FFF05E
:1056EA00A37416F0A3749BF0A37410F0A37401F0D2
:1056FA007B1F7A007D4B7C007FA27E001234287FBC
:06570A00B07E04026059AC
:103D9200E4900000F0A3F0A3F0A3F0A3F0125523E7
:103DA200900083E024E8FF900082E034FFFE900060
:103DB2000A74FFF0A37416F0A374AEF0A37401F0BA
:103DC2007B10E4FDFC125975900082E0FCA3E0FD3B
:103DD20024CCFFEC34FFFEED24E2FBEC34FFFA903E
:103DE200000FE4F0A37412F0A374F8F0A3E4F07DE2
:103DF20002FC12541D90007E74F8F0A3E4F0124B02
:103E020073EF7003023FCA900082E0FEA3E0FF90CE
:103E12000093E0FCA3E0FDC39FEC9E50E190008480
:103E2200E0FEA3E0FF900095E0FAA3E0FBC39FEA67
:103E32009E50CB900083E024E8FF900082E034FFA4
:103E4200FED3ED9FEC9E407BEB9410EA94005073FE
:103E5200125523900003E0FFA3E090007ECFF0A371
:103E6200EFF0900083E024E8FF900082E034FFFE50
:103E720090000A74FFF0A37416F0A374AEF0A3745A
:103E820001F07B10E4FDFC125975900082E0FCA366
:103E9200E0FD24CCFFEC34FFFEED24E2FBEC34FF2A
:103EA200FA90000FE4F0A37412F090007EE0FDA3FC
:103EB200E0900011CDF0A3EDF07D027C0012541DC4
:103EC200023E00900082E0FEA3E0FF24C4FDEE3437
:103ED200FFFC900093E0FAA3E0FBD39DEA9C500321
:103EE200023FAEEF24E2FFEE34FFFEC3EB9FEA9EF9
:103EF2004003023FAEC3900096E09414900095E018
:103F020094004003023FAE900082E0FCA3E0FD2457
:103F1200CCFFEC34FFFEC006C007ED24E2FBEC341C
:103F2200FFFA90000FE4F0A37412F0900001E0FE9B
:103F3200A3E0FF7C007D05123203ED25E0FFEC33A8
:103F4200FE74AC2FF58274003EF583E0FFA3E0908F
:103F52000011CFF0A3EFF0D007D0067D027C001253
:103F6200541D900001E475F00112326EAFF0FE7C38
:103F7200007D05123203ED25E0FFEC33FE74AC2F19
:103F8200F58274003EF583E0FFA3E090007ECFF05F
:103F9200A3EFF090007EE0FFA3E0900003CFF0A338
:103FA200EFF07F0A7E00126059023E00900093E01B
:103FB200FEA3E0FFA3E0FCA3E0FD90007EE0FAA3F5
:103FC200E0FB125DBB023E007F0A7E0012605902D6
:023FD2003E00AF
:1000030000000000000000000000000000000404E5
:10001300040404040004000000140A0A00000000A1
:1000230000000000000014143F140A3F0A0A0000F5
:1000330000041E1505060C14150F0400000012150C
:100043000D0A142C2A1200000000040A0A1E1515BA
:100053000936000000020201000000000000000059
:1000630000201008080808080810200000020408EF
:10007300080808080804020000000004150E0E1505
:100083000400000000000404041F04040400000032
:100093000000000000000000000202010000000058
:1000A300001F00000000000000000000000000002E
:1000B3000002000000100808080404020202010004
:1000C30000000E1111111111110E000000000406A1
:1000D30004040404040E000000000E1111080402BD
:1000E300011F000000000E11100C1010110E000073
:1000F3000000080C0A0A091E0818000000001F016E
:10010300010F1010110E000000000E09010F111154
:10011300110E000000001F09080404040404000079
:1001230000000E11110E1111110E000000000E112E
:1001330011111E10120E0000000000000400000048
:10014300000400000000000000040000000404009C
:100153000020100804020408102000000000000022
:100163001F00001F000000000002040810201008F8
:100173000402000000000E11110804040004000032
:1001830000000E111915151D011E000000000404C6
:100193000C0A0A1E1233000000000F12120E121274
:1001A300120F000000001E1101010101110E0000D9
:1001B30000000F1212121212120F000000001F1281
:1001C3000A0E0A02121F000000001F120A0E0A0282
:1001D3000207000000001C1201013911120C00007B
:1001E30000003312121E12121233000000001F040B
:1001F30004040404041F000000003E080808080863
:1002030008090700000037120A060A0A123700001D
:100213000000070202020202223F000000001B1B33
:100223001B1B15151515000000003B1216161A1A94
:100233001217000000000E1111111111110E000010
:1002430000000F12120E02020207000000000E113E
:1002530011111117190E180000000F12120E0A12B5
:100263001237000000001E1101060810110F0000D4
:1002730000001F1504040404040E000000003312E0
:1002830012121212120C000000003312120A0A0C8E
:100293000404000000001515150E0A0A0A0A0000DE
:1002A30000001B0A0A04040A0A1B000000001B0AC0
:1002B3000A040404040E000000001F0908040402D9
:1002C300121F0000001C04040404040404041C00A2
:1002D300000202020404080808100000000E0808C7
:1002E3000808080808080E0000040A0000000000BF
:1002F3000000000000000000000000000000003FBC
:1003030000040000000000000000000000000000E6
:10031300000C121C123C000000000302020E121219
:10032300120E000000000000001C1202021C00005C
:1003330000001810101C1212123C000000000000F4
:10034300000C121E021C000000003804041E0404EA
:10035300041E000000000000003C120C021E221CC0
:1003630000000302020E1212123700000000040004
:1003730000060404040E000000000800000C080836
:100383000808080700000302023A0A0E12370000A9
:100393000000070404040404041F0000000000001C
:1003A300000F15151515000000000000000F1212B4
:1003B3001237000000000000000C1212120C0000A3
:1003C30000000000000F1212120E020700000000CE
:1003D300001C1212121C103800000000001B060241
:1003E3000207000000000000001E020C101E0000A7
:1003F30000000004040E04040418000000000000C0
:10040300001B1212123C0000000000000037120A09
:100413000C040000000000000015150E0A0A00007D
:1004230000000000001B0A040A1B0000000000007B
:100433000037120A0C04040300000000001E080425
:10044300041E00000018080808040808080818001B
:10045300080808080808080808080808000604042B
:100463000408040404040600022518000000000028
:100473000000000000000000000000000000000079
:100483000000000000000008080808080808000031
:100493001818000000486C2412000000000000003F
:1004A300000000000000002424247F1212127F1297
:1004B300121200000000081C2A2A0A0C1828282AF5
:1004C3002A1C080800000022251515152A58545423
:1004D300542200000000000C1212120A7625291182
:1004E300916E0000000606040300000000000000F7
:1004F3000000000000402010100808080808081039
:1005030010204000000204080810101010101008FA
:10051300080402000000000008086B1C1C6B08089C
:100523000000000000000000080808087F08080811
:1005330008000000000000000000000000000000B0
:10054300060604030000000000000000FE00000097
:100553000000000000000000000000000000000098
:100563000606000000008040402020101008080408
:100573000402020000000018244242424242424266
:1005830024180000000000080E08080808080808DE
:10059300083E00000000003C4242422020100804B4
:1005A300427E00000000003C4242201820404042AE
:1005B300221C0000000000203028242422227E2058
:1005C300207800000000007E0202021A264040420A
:1005D300221C0000000000382402021A2642424274
:1005E300241800000000007E2222101008080808CA
:1005F300080800000000003C424242241824424202
:10060300423C00000000001824424242645840402B
:10061300241C000000000000000018180000000067
:10062300181800000000000000000008000000008F
:100633000008080400000040201008040204081009
:10064300204000000000000000007F0000007F0049
:1006530000000000000000020408102040201008E1
:10066300040200000000003C4242464020101000FB
:10067300181800000000001C225A555555552D42EC
:10068300221C00000000000808181414243C224215
:1006930042E700000000001F2222221E22424242A3
:1006A300221F00000000007C4242010101010142BF
:1006B300221C00000000001F2242424242424242EA
:1006C300221F00000000003F4212121E12120242BB
:1006D300423F00000000003F4212121E12120202AB
:1006E300020700000000003C2222010101712122C7
:1006F300221C0000000000E7424242427E42424286
:1007030042E700000000003E08080808080808083F
:10071300083E00000000007C101010101010101094
:100723001010110F0000007722120A0E0A12122273
:100733002277000000000007020202020202020206
:10074300427F000000000077363636362A2A2A2AEE
:100753002A6B0000000000E346464A4A52525262A6
:10076300624700000000001C2241414141414141D8
:10077300221C00000000003F424242423E020202AD
:10078300020700000000001C2241414141414D533A
:10079300321C60000000003F4242423E12122222FD
:1007A30042C700000000007C42420204182040427D
:1007B300423E00000000007F4908080808080808B6
:1007C300081C0000000000E742424242424242420B
:1007D300423C0000000000E7424222242414141883
:1007E300080800000000006B494949495555362265
:1007F30022220000000000E74224241818182424B1
:1008030042E70000000000772222141408080808B9
:10081300081C00000000007E212010100804044280
:10082300423F00000078080808080808080808087C
:1008330008087800000002020404080808101020C9
:1008430020204040001E1010101010101010101027
:1008530010101E00003844000000000000000000DB
:100863000000000000000000000000000000000085
:10087300000000FF00060800000000000000000068
:1008830000000000000000000000003C42784442E9
:1008930042FC0000000000030202021A2642424208
:1008A300261A000000000000000000384402020283
:1008B3004438000000000060404040784442424217
:1008C30064D80000000000000000003C427E0202E9
:1008D300423C0000000000F08808087E0808080871
:1008E300083E0000000000000000007C22221C02E1
:1008F3003C42423C000000030202023A46424242AA
:1009030042E700000000000C0C00000E0808080875
:10091300083E000000000030300000382020202076
:100923002020221E0000000302020272120A161285
:10093300227700000000000E0808080808080808CD
:10094300083E0000000000000000007F9292929297
:1009530092B70000000000000000003B4642424204
:1009630042E70000000000000000003C4242424217
:10097300423C0000000000000000001B26424242EF
:10098300221E020700000000000000784442424299
:10099300447840E000000000000000774C040404A9
:1009A300041F0000000000000000007C42023C40E5
:1009B300423E0000000000000008083E0808080846
:1009C3000830000000000000000000634242424281
:1009D30062DC000000000000000000E74224241451
:1009E3000808000000000000000000EB49495555CD
:1009F30022220000000000000000007624181818CE
:100A0300246E000000000000000000E742242414CC
:100A130018080807000000000000007E22100808E4
:100A2300447E000000C02020202020102020202011
:100A33002020C000101010101010101010101010F3
:100A43001010101000060808080808100808080805
:100A5300080806000C32C20000000000000000007D
:100A630000000000C9EE000027FC140414A4811048
:100A730042084040104017FC2040E0E0215022484B
:100A83002C4620400040DBDA1104112411241124E8
:100A93001124FD24112411241124112411241D24B3
:100AA300E124422402040404CAD00200010000002D
:100AB3007FFC0100010001003FF821082108210803
:100AC30021082128211001000100C8AB000000000B
:100AD300018002400430180860061FF9010001007C
:100AE30001003FF80100010001007FFEB6AF0000E6
:100AF300000000203E20007C002200227F221022E2
:100B0300102212221222224223423D82009CB5E788
:100B13000000010001001FF0610C410441047FFC4F
:100B23004104410441047FFC01000102010201FC74
:100B3300D7D3000000003FF80010006000800100E0
:100B430000807FFE0040004000200020002018406D
:100B53000780BCBC00000000104013FE10407C4026
:100B6300104013FC1104190830885050106010D045
:100B730013087C06CAF500000100013001080100DA
:100B83007FFE018003400540052009101108210460
:100B9300410201000100D3D00000010002007FFEEA
:100BA300040008001FFC700490041FFC10041004D0
:100BB3001FFC10041004103CCFDE000000007BFC7F
:100BC3004A044A044BFC52044A044BFC4A404A443C
:100BD3007A2842304210420843C6B9AB00000000F5
:100BE30004400420081010101008210442020220BF
:100BF30004100810080810081FFC0004CBBE0000F6
:100C030000003FFC000400043FF400043FE4202400
:100C130020242024202420241FC40004007CBBB6ED
:100C23000000000000807EFC02A202A222A4152480
:100C330014240C300C300C481248228442840102E4
:100C4300D3AD000000002398246414440444644496
:100C5300144414441444144415C4125C1040284032
:100C630047FEC4FA00000000120013FE24222522CE
:100C7300652862242224242020E0050814842444C7
:100C8300241A47F2B4BF00000020102013FE2020D6
:100C930026244A247A241224222423FC7C200022A2
:100CA30004227822003CC9AB0000000004000FF0CE
:100CB300102020207FFC20842084208420843FF87F
:100CC3002000200220021FFECCEE00000000204086
:100CD30023FE204079FC220423FC220423FC22046B
:100CE30023FC3A0465FA01980204B3E4000001000E
:100CF30001007FFE02200410040808043FFC0442A4
:100D030004400440044208421042607EBED8000002
:100D13000000207E3E804880488048FE48827F82D3
:100D230008820C8214FA12842280218040FED0CEE5
:100D3300000000007F842208223022C02202220405
:100D43007FC8223022C222022204220822304040DD
:100D5300BBAD000000007FFE00000FF0111011106A
:100D6300111051125FF25112511251124FF24002FF
:100D73007FFCD4B2000000007FFE47E24812481215
:100D830047E24FF2501250125112511242924472E2
:100D9300580A3FFCCDBC000000003FFE440247F26E
:100DA3004C225362408243625E1A41824062430294
:100DB30040C240223FFCC6AC00000040204020401F
:100DC30020403FFE2000200020003FE020102010A4
:100DD3002010201040104010CFD4000000003FFC32
:100DE300200420043FFC200420041FF8244414485A
:100DF300144814480C5004407FFECABE0000000093
:100E03003FFC0000000000007FFE0080089008887F
:100E1300108810842084208240820780B2CB000097
:100E2300002008207FFE002000783F8811080890EA
:100E330009207FFE018003400D30310C4002B5A52F
:100E430000000010081004203FF8210421043FFC97
:100E5300210421043FF801007FFE0100010001008D
:100E6300D6D000000100010001003FFC2104210451
:100E730021042104210421043FFC0100010001009D
:100E83000100D3A20000000008207FFE08200920F3
:100E930001003FF82108210821081FF40140022026
:100EA3000C10700ECEC400000100010000803F7CD6
:100EB3000810081004100420022002400180018061
:100EC30002601C18E006D7DB00000000102011FEB2
:100ED3002202220249FC5800300013FE25287924FF
:100EE30001240D24722202A2BACF00000000018067
:100EF30002400430180860061FF800001FF82004A1
:100F030020042004200420041FF8C1C100000100B4
:100F130001007FFE00003FF820083FF83FF840063D
:100F230047C24824082008221022603EB6C80000A9
:100F3300000000803FFE44105FFC4410441043F067
:100F430040005FF84408423041C04360BC1EB2E237
:100F53000000000067C2145205520552C5522552C3
:100F63000552055215521752228222424442483EEC
:100F7300CAD4000000002014101417FE0012001041
:100F8300601013F0109010901090149214EA1F0A3E
:100F93000006B3CC0000000019FE72021202120216
:100FA3007DFC18001BFE3420502053FE102010201F
:100FB300102013FED0F20000000000803FFE40002E
:100FC30047FC4208413040C05FFE4042404240443B
:100FD300404840404440B5F70000000023FE122281
:100FE30002FA0222E22212FE1272128A128A128A72
:100FF30016BA1A421202040EB9E2000001000104FB
:1010030011080908091009207FFE04400440044028
:101013000440084208421042607CB0E60000000031
:1010230048FE4900490049007EFE4182414479441B
:10103300452845284510452846440382C8A8000092
:101043001000100013FC7D04110419041884348863
:101053005048505010201050108813041402CBF93C
:10106300000000003F7C204020403E40227E22447E
:10107300224422443E842084208440844104420448
:10108300C9EE0000000000001000000800080C7FFB
:10109300FC04401001C8A002186042301832231823
:1010A30012C30014030004030C047FF0080F80082C
:1010B3000B4078136018332018631818831C190326
:1010C30008180300000300000000DBDA0000000042
:1010D300000004100C04180C04108C04108C041071
:1010E3008C04108C04D08C3F108C04108C04108C56
:1010F30004108C04108C04108C04108C05F08C0EDE
:10110300208C78208C20408C00808C01000C020005
:101113000C000000CAD000000000000000300000F6
:10112300180000180800001C1FFFE000180000183A
:101133002007FFF0041820041820041820041820A6
:10114300041820041820041820041820041820046C
:1011530018E0041840001800001800000000D6D062
:101163000000000000000000000000000018000064
:1011730018000018000018003FFFFE301806301852
:10118300063018063018063018063FFFFE301806E2
:1011930000180000180000180000180000180000D4
:1011A3000000000000000000CEC4000000000000AA
:1011B300000000003800001C00000600FFFFFF06CF
:1011C30000300600300300600300600180C000C1EE
:1011D3008000E300003600001C0000770003C1E03C
:1011E3001E003C600007000000000000000000003B
:1011F3000000B2E200000000000000000000000058
:1012030040000321FF33398333118333019B33C1FF
:101213009B33719B33199B33019B33019B33119B8D
:101223003319B333303033306C0330C60363830375
:101233002E01BE000000000000000000CAD4000020
:10124300000000000000000000004000D83000CE85
:101253001800C21C00C001FFFF0000C0F800C01846
:1012630000C019FFC01818401818601918601B181F
:10127300611E18311C1FB139F01910000F00000056
:10128300000000000000D7D60000000000060000A8
:10129300000300000000C0000001C0C0000107C03F
:1012A3000001FF00021FFE0007F01C0007C07000D2
:1012B3000F00E0000E03F0001C0FF0003C0F700065
:1012C3003C00E0001800C0000000C0000000C000A7
:1012D3000000600000002000000037000001FF0054
:1012E300007FF80007F830001F80300000803000D6
:1012F30000C03000006060000018E000000FC00074
:101303000006000000000000CCE500000000000023
:101313000000000000C0000000E0002001B80070E1
:101323003FF80061FFC000C3030001C60600038C41
:10133300060003080C0006080C000E18183F1E10C8
:101343001BF31F903F0700803C1C0190707C0190B1
:1013530060FE01A0C3F801A00FD803A00818036022
:1013630000180340001803C000180380001803008E
:1013730000180000001800000010000000300000FA
:1013830000300000000000000000B2E20000000096
:10139300000000000000000000000000020C100824
:1013A300071FF80403BFF00201BC300303EC300352
:1013B300015C600300D8600300D860038098620377
:1013C30061B8430771B14306313243063376C3062E
:1013D3003A64C7063EECC0063E78C0063C30400681
:1013E3007C70000678E060067BFFF006F7C000061D
:1013F300E400000640000006000000060000007C38
:1014030000008FF000007C0000000000CAD4000040
:101413000000000000000000000000003F0000008A
:101423007F8000000180000000C0000000C00000B9
:1014330000CE038000CFFFC000DD41800FFE000718
:10144300FFFC000C00F000180FC03E19FF40F31121
:10145300BC6083307FE003B1FE2003338020037040
:101463000030036000100360001807C0000C07C0C1
:1014730000040780000201000003000000010000D7
:0E14830000000000000000000000000000005B
:105F9D00900017FEE0FCA3E0FD900016E02DFD90B3
:0D5FAD000015E03CFC90001BE0FAA3E0FBB7
:105FBA0090001DEAF0A3EBF0125FD090001DE0FE06
:065FCA00A3E0FF02617B71
:0E541D00900009EEF0A3EFF0A3ECF0A3EDF089
:10542B00900009E0FEA3E0FFC3EB9FFFEA9ECF24B1
:10543B0001CF3400900017F0A3EFF090000BE0FECB
:10544B00A3E0FFC3900010E09FFF90000FE09ECF02
:10545B002401CF3400900019F0A3EFF090000BE083
:10546B00FCA3E0FDEB24FFFBEA34FFFA90000FE016
:10547B00FEA3E024FFFFEE34FF90003FF0A3EFF01C
:10548B00900009E0FEA3E0FF125E92E4900013F09F
:10549B00A3F0900019E0FEA3E0FFC3900014E09F7F
:1054AB00900013E09E5047E4900015F0A3F090009D
:1054BB0017E0FEA3E0FFC3900016E09F900015E0FD
:1054CB009E501B900011E0FEA3E0FF12617B900049
:1054DB0016E004F070D8900015E004F080D0900036
:1054EB0014E004F070AC900013E004F080A4900082
:1054FB0083E024FFFB900082E034FFFA900085E00C
:10550B0024FFFE900084E034FF90003FF0A3CEF028
:08551B00E4FDFCFFFE025E92BC
:0E45FC00900009EEF0A3EFF0A3ECF0A3EDF0B9
:10460A00E4900013F0A3F0A3F0A3F0900009E0FEF9
:10461A00A3E0FFC3EB9FFFEA9E900017F0A3EFF021
:10462A0090000BE0FAA3E0FBC3900010E09BFE9021
:10463A00000FE09A900019F0A3CEF0900009E0FF75
:10464A00A3E0900021CFF0A3EFF0A3EAF0A3EBF0F0
:10465A00900017E0FEA3E0FFD39400EE64809480FC
:10466A00400A90001DE4F0A304F08021EF4E700888
:10467A0090001DF0A3F0801574FF90001DF0A3F0C8
:10468A00C3E49FFFE49E900017F0A3EFF090001997
:10469A00E0FEA3E0FFD39400EE64809480400A9089
:1046AA00001FE4F0A304F08021EF4E700890001F71
:1046BA00F0A3F0801574FF90001FF0A3F0C3E49FED
:1046CA00FFE49E900019F0A3EFF0900019E0FEA31A
:1046DA00E0FF900017E0FCA3E0FDD39FEE6480F8B2
:1046EA00EC64809890001B4007ECF0A3EDF0800585
:1046FA00EEF0A3EFF0E4900011F0A3F090001CE0BC
:10470A002401FF90001BE03400FED3900012E09FCA
:10471A00900011E09E40030247E6900021E0FEA3CC
:10472A00E0FFA3E0FCA3E0FD12602F900017E0FE7B
:10473A00A3E0FF900014E02FF0900013E03EF09009
:10474A000019E0FEA3E0FF900016E02FF09000159C
:10475A00E03EF090001BE0FEA3E0FF900013E0FCB7
:10476A00A3E0FDD39FEE6480F8EC6480984020EDCE
:10477A009FFFEC9E900013F0A3EFF090001DE0FE67
:10478A00A3E0FF900022E02FF0900021E03EF0909D
:10479A00001BE0FEA3E0FF900015E0FCA3E0FDD3C0
:1047AA009FEE6480F8EC6480984020ED9FFFEC9EB9
:1047BA00900015F0A3EFF090001FE0FEA3E0FF9039
:1047CA000024E02FF0900023E03EF0900012E00475
:0C47DA00F07006900011E004F0024706A9
:0147E60022B0
:105AF700900005EAF0A3EBF0900001EEF0A3EFF0C1
:105B0700A3ECF0A3EDF0C007A3E0FAA3E0FB90003D
:105B170003E0FFA3E090000FCFF0A3EFF0D0071250
:105B270045FC900001E0FAA3E0FBFFAE02C007A32B
:105B3700E0FCA3E0FD900007E0FFA3E090000FCF9B
:105B4700F0A3EFF0D0071245FC900007E0FCA3E0BC
:105B5700FD900005E0FAA3E0FBA3E0FFA3E09000BF
:105B67000FCFF0A3EFF0900001E0FEA3E0FF124596
:105B7700FC900005E0FAA3E0FBFFAE02C00790002F
:105B870003E0FCA3E0FD900007E0FFA3E090000F17
:0A5B9700CFF0A3EFF0D0070245FCA9
:1060A500C007900007E0FFA3E090000FCFF0A3EF3B
:1060B500F090007EE0FFA3E0900011CFF0A3EFF099
:0560C500D00702541D8C
:104F8600900019F0A3EFF0900005E0FFA3E0900079
:0E4F96001BCFF0A3EFF0900001E0FEA3E0FFC0
:104FA400900015ECF0A3EDF0900013EEF0A3EFF0F9
:104FB400900017EAF0A3EBF02FFFEE3AA3125FA0E4
:104FC400900017E0FEA3E0FFC3900014E09FFF9061
:104FD4000013E09EFE900019125FA1900017E0FEFE
:104FE400A3E0FF900014E02FFF900013E03EFE903A
:104FF4000019E0FCA3E0FDC3900016E09DFD9000C5
:1050040015E09C125FB1900017E0FEA3E0FFC3908F
:105014000014E09FFF900013E09EFE900019E0FC56
:10502400A3E0FDC3900016E09DFD900015E09C12E6
:105034005FB1900019E0FEA3E0FF900014E02FFFA1
:10504400900013E03E125F9D900019E0FEA3E0FF84
:10505400C3900014E09FFF900013E09E125F9D90A8
:105064000019E0FEA3E0FF900014E02FFF9000136E
:10507400E03EFE900017E0FCA3E0FDC3900016E0C4
:105084009DFD900015E09C125FB1900019E0FEA315
:10509400E0FFC3900014E09FFF900013E09EFE9099
:1050A4000017E0FCA3E0FDC3900016E09DFD900016
:0F50B40015E09CFC90001BE0FAA3E0FB025FBA42
:10440600900001EEF0A3EFF0A3ECF0A3EDF0A3EA29
:04441600F0A3EBF034
:10441A00E490000BF0A3F0900007E0FEA3E0FF9009
:10442A00000DEEF0A3EFF025E0FFEE33FEC37403B8
:10443A009F900012F0E49E900011F0900009E07045
:10444A0002A3E0700302454990000DE0FEA3E0FFDD
:10445A0090000BE0FCA3E0FDD39FEE6480F8EC64CF
:10446A00809840030245FB90000FECF0A3EDF0901A
:10447A00000DE0FEA3E0FFD3900010E09FEE648001
:10448A00F890000FE0648098502B900003E0FCA3A2
:10449A00E0FD90000BE0FAA3E0FB90000FE0FFA321
:1044AA00E0CF124F86900010E004F070C290000F27
:1044BA00E004F080BA900011E0FCA3E0FDC3EC64D4
:1044CA00809480502390000BE0FEA3E07802C3336F
:1044DA00CE33CED8F92DFFEC3ECF2406CF34009050
:1044EA000011F0A3EFF0804390000DE0FEA3E0FF7F
:1044FA00C390000CE09FFF90000BE09EFEEF780255
:10450A00C333CE33CED8F9FF900012E02FFF9000CC
:10451A0011E03ECF240ACF3400F0A3EFF090000E52
:10452A00E024FFF090000DE034FFF090000CE0046E
:10453A00F0600302445290000BE004F002445290EF
:10454A00000DE0FEA3E0FF90000BE0FAA3E0FBD32E
:10455A009FEE6480F8EA64809840030245FB90006D
:10456A0003E0FCA3E0FDEE124F86900011E0FCA3ED
:10457A00E0FDC3EC64809480502390000BE0FEA31E
:10458A00E07802C333CE33CED8F92DFFEC3ECF24E8
:10459A0006CF3400900011F0A3EFF0804390000D95
:1045AA00E0FEA3E0FFC390000CE09FFF90000BE049
:1045BA009EFEEF7802C333CE33CED8F9FF900012B5
:1045CA00E02FFF900011E03ECF240ACF3400F0A381
:1045DA00EFF090000EE024FFF090000DE034FFF0C1
:1045EA0090000CE004F0700690000BE004F0024525
:0145FA004977
:0145FB00229D
:1041EE00F0900021E090002FF0900019E0FAA3E08B
:0141FE00FBC5
:1041FF00900025EEF0A3EFF0900029EAF0A3EBF08A
:08420F00900027ECF0A3EDF094
:1042170090007EE0FFA3E0900033CFF0A3EFF09093
:10422700002DE024E0F0A3E0F9C313FF7E00900027
:1042370025E0FAA3E02FFFEE3ACF24FFFBEF34FF90
:10424700FAE9FFA3E0F8A3E02FFFEE38CF24FFCF72
:1042570034FF90003FF0A3EFF0900025E0FEA3E0CD
:10426700FF125E9290002FE0600302430E90003130
:10427700F090002EE0FF900031E0FEC39F40030264
:1042870043CDEFB40C1790002DE075F00CA4240378
:10429700F582E5F03400F583E5822E801A9000312F
:1042A700E0FF90002DE075F010A42477F582E5F08B
:1042B7003404F583E5822FF582E43583F583E493AF
:1042C700900030F0E4900032F090002EE0C313FF2E
:1042D700900032E0C39F5026900030E030E0059018
:1042E7000029800390002BE0FEA3E0FF12617B9082
:1042F7000030E0C313F0900032E004F080CB900070
:1043070031E004F0024278E4900031F090002EE0B2
:10431700FF900031E0FEC39F40030243CDEFB40C92
:104327001790002DE075F00CA42403F582E5F03416
:1043370000F583E5822E801A900031E0FF90002D72
:10434700E075F010A42477F582E5F03404F583E5F1
:10435700822FF582E43583F583E493900030F0E40F
:10436700900032F090002EE0C313FF900032E0FE81
:10437700C39F5049900029E0FDA3E090007ECDF057
:10438700A3EDF0900030E030E024EEFF900026E04F
:104397002FFF900025E03400FE900031E0FD9000F3
:1043A70028E02DFD900027E03400FC12602F9000DC
:1043B70030E0C313F0900032E004F080A7900031A2
:1043C700E004F0024313900033E0FFA3E090007E87
:1043D700CFF0A3EFF0900083E024FFFB900082E092
:1043E70034FFFA900085E024FFFE900084E034FF5C
:0F43F70090003FF0A3CEF0E4FDFCFFFE025E92CB
:10597500900005EEF0A3EFF0A3ECF0A3EDF0A3EBA0
:10598500F090000AE0FBA3E0FAA3E0F91231BDFFB5
:10599500D3947E4003025A36EFC394205003025A33
:1059A50036900083E024FFFD900082E034FFFC90F8
:1059B5000005E0FEA3E0FFD39DEE9C5074900085AA
:1059C500E024FFFB900084E034FFFA900007E0FC40
:1059D500A3E0FDD39BEC9A5058900080E0FBA3E038
:1059E50090002BCBF0A3EBF090000AE0FBA3E0FACC
:1059F500A3E0F91231BD90002DF0900009E0900070
:105A05002EF090000DE090002FF090007E1241FAEC
:105A1500900009E0C313FF900006E02FF090000509
:105A2500E03400F090000BE475F001123258025991
:025A35008622C7
:085EE3009000B6EFF0A3EDF012
:105EEB00A31233EB000000019000B7E0FF14F0EFBA
:105EFB006020A3E0F8A3E0F9A3E0FAA3E0FB900095
:105F0B00B6E0FFE4FCFDFE1232A39000B81233DFC3
:105F1B0080D69000B8E0FCA3E0FDA3E0FEA3E0FF79
:015F2B002253
:0E530C0090009FEEF0A3EFF0A3ECF0A3EDF005
:10531A00E49000ABF09000A9F09000A7E0FF9000A5
:10532A00A9E0FEC39F400302541CC3EF9E14FD7FF5
:10533A000A125EE3A804A905AA06AB079000A3E037
:10534A00FCA3E0FDA3E0FEA3E0FF12332EE47B0AF8
:10535A00FAF9F812332E9000AAEBF0A3E0705790F6
:10536A0000A7E014FF9000A9E0FEC39F5048A3E005
:10537A00703E9000A8E0F9C3138EF0A4FF9000A03D
:10538A00E02FFF90009FE035F0FEC0079000A1E0FB
:10539A00FCA3E0FD90007EE0FAA3E0FB900080E031
:1053AA00FFA3E090002BCFF0A3EFF0A37420804D71
:1053BA009000AB7401F09000A8E0F9C313FFA3E0DA
:1053CA00FEEF8EF0A4FF9000A0E02FFF90009FE078
:1053DA0035F0FEC0079000A1E0FCA3E0FD90007E3E
:1053EA00E0FAA3E0FB900080E0FFA3E090002BCF5F
:1053FA00F0A3EFF09000AAE0243090002DF0A3E98A
:10540A00F0E4A3F0D0071241FF9000A9E004F002F3
:02541A0053231A
:01541C00226D
:1036C900900027ECF0A3EDF0A3EAF0A3EBF0900053
:0636D90025EEF0A3EFF066
:1036DF00900037EEF0A3EFF0900035E4F0A3742ED6
:1036EF00F0E4900033F0A3F0900035E0FEA3E0FF8C
:1036FF00900033E0FCA3E0FDC39FEC9E4003023833
:10370F00E290002DE0FBA3E0FAA3E0F91231BDFF38
:10371F00900A6775F022ED12341CEC75F022A42587
:10372F0083F583E4936F60030238D1900001123167
:10373F00D6FF900033A3E0900A6875F02212341C74
:10374F00EC75F022A42583F583E4936F60030238B0
:10375F00D1900025E0FAA3E0FBFFAE02C006C00740
:10376F00A3E0FCA3E0FDEB240FFBE43AFA90002763
:10377F00E0FEA3E0240FFFE43E90003FF0A3EFF044
:10378F00D007D006125E92E4900031F0E490003240
:10379F00F0900032E0FFC3940840030238C290005B
:1037AF0030E0705AA3E0FE900033E0FCA3E0900AF3
:1037BF006975F02212341CEC75F022A42583F58371
:1037CF00E5822EF582E43583F583E493FD3395E0AE
:1037DF00FC74807E00A807088006CEA2E713CE13E4
:1037EF00D8F8FFEE5CFEEF5D4E6005900029800378
:1037FF0090002BE0FEA3E0FF12617B0238B990002E
:10380F0029E0FFA3E090007ECFF0A3EFF09000310E
:10381F00E0FF900033E0FCA3E0900A6975F02212FC
:10382F00341CEC75F022A42583F583E5822FF582F5
:10383F00E43583F583E493FD3395E0FC900032E0AB
:10384F00FF74807E00A807088006CEA2E713CE1370
:10385F00D8F8FFEE5CFEEF5D4E6011900025E0FEA4
:10386F00A3E0FFA3E0FCA3E0FD12602F900026E091
:10387F0004F07006900025E004F0900037E0FEA3FE
:10388F00E0FFC3900026E09FFD900025E09EFCED39
:10389F0064104C7015EEF0A3EFF0900028E004F0E8
:1038AF007011900027E004F08009900032E004F0DE
:1038BF000237A0900031E004F0E0C39420500302DF
:1038CF00379B900034E004F07006900033E004F072
:1038DF000236F7900083E024FFFB900082E034FF74
:1038EF00FA900085E024FFFE900084E034FF900002
:0D38FF003FF0A3CEF0E4FDFCFFFE025E9260
:10390C00900027ECF0A3EDF0A3EAF0A3EBF090000D
:06391C0025EEF0A3EFF020
:10392200900037EEF0A3EFF0900035E4F0A37407B7
:10393200F0E4900033F0A3F0900035E0FEA3E0FF46
:10394200900033E0FCA3E0FDC39FEC9E4003023BEA
:103952002590002DE0FBA3E0FAA3E0F91231BDFFB0
:1039620090108375F04AED12341CEC75F04AA425D0
:1039720083F583E4936F6003023B149000011231DC
:10398200D6FF900033A3E090108475F04A12341CE5
:10399200EC75F04AA42583F583E4936F6003023B40
:1039A20014900025E0FAA3E0FBFFAE02C006C007B8
:1039B200A3E0FCA3E0FDEB2417FBE43AFA90002716
:1039C200E0FEA3E02417FFE43E90003FF0A3EFF0F7
:1039D200D007D006125E92E4900031F0E4900032FB
:1039E200F0900032E0FFC394084003023B059000D0
:1039F20030E0705AA3E0FE900033E0FCA3E09010A8
:103A02008575F04A12341CEC75F04AA42583F583BF
:103A1200E5822EF582E43583F583E493FD3395E068
:103A2200FC74807E00A807088006CEA2E713CE139E
:103A3200D8F8FFEE5CFEEF5D4E6005900029800332
:103A420090002BE0FEA3E0FF12617B023AFC9000A3
:103A520029E0FFA3E090007ECFF0A3EFF0900031C9
:103A6200E0FF900033E0FCA3E090108575F04A126D
:103A7200341CEC75F04AA42583F583E5822FF58288
:103A8200E43583F583E493FD3395E0FC900032E066
:103A9200FF74807E00A807088006CEA2E713CE132B
:103AA200D8F8FFEE5CFEEF5D4E6011900025E0FE5F
:103AB200A3E0FFA3E0FCA3E0FD12602F900026E04C
:103AC20004F07006900025E004F0900037E0FEA3B9
:103AD200E0FFC3900026E09FFD900025E09EFCEDF4
:103AE20064184C7015EEF0A3EFF0900028E004F09B
:103AF2007011900027E004F08009900032E004F099
:103B02000239E3900031E004F0E0C394485003022C
:103B120039DE900034E004F07006900033E004F0E7
:103B220002393A900083E024FFFB900082E034FFE8
:103B3200FA900085E024FFFE900084E034FF9000BC
:0D3B42003FF0A3CEF0E4FDFCFFFE025E921A
:103B4F00900027ECF0A3EDF0A3EAF0A3EBF09000C8
:063B5F0025EEF0A3EFF0DB
:103B6500900037EEF0A3EFF0900035E4F0A3740475
:103B7500F0E4900033F0A3F0900035E0FEA3E0FF01
:103B8500900033E0FCA3E0FDC39FEC9E4003023DA3
:103B95006890002DE0FBA3E0FAA3E0F91231BDFF28
:103BA50090128975F082ED12341CEC75F082A42513
:103BB50083F583E4936F6003023D57900001123152
:103BC500D6FF900033A3E090128A75F08212341C60
:103BD500EC75F082A42583F583E4936F6003023DC1
:103BE50057900025E0FAA3E0FBFFAE02C006C00730
:103BF500A3E0FCA3E0FDEB241FFBE43AFA900027C9
:103C0500E0FEA3E0241FFFE43E90003FF0A3EFF0A9
:103C1500D007D006125E92E4900031F0E4900032B5
:103C2500F0900032E0FFC394084003023D48900045
:103C350030E0705AA3E0FE900033E0FCA3E0901260
:103C45008B75F08212341CEC75F082A42583F58304
:103C5500E5822EF582E43583F583E493FD3395E023
:103C6500FC74807E00A807088006CEA2E713CE1359
:103C7500D8F8FFEE5CFEEF5D4E60059000298003ED
:103C850090002BE0FEA3E0FF12617B023D3F900018
:103C950029E0FFA3E090007ECFF0A3EFF090003184
:103CA500E0FF900033E0FCA3E090128B75F08212E8
:103CB500341CEC75F082A42583F583E5822FF5820B
:103CC500E43583F583E493FD3395E0FC900032E021
:103CD500FF74807E00A807088006CEA2E713CE13E6
:103CE500D8F8FFEE5CFEEF5D4E6011900025E0FE1A
:103CF500A3E0FFA3E0FCA3E0FD12602F900026E007
:103D050004F07006900025E004F0900037E0FEA373
:103D1500E0FFC3900026E09FFD900025E09EFCEDAE
:103D250064204C7015EEF0A3EFF0900028E004F04D
:103D35007011900027E004F08009900032E004F053
:103D4500023C26900031E004F0E0C3948050030269
:103D55003C21900034E004F07006900033E004F05C
:103D6500023B7D900083E024FFFB900082E034FF5E
:103D7500FA900085E024FFFE900084E034FF900077
:0D3D85003FF0A3CEF0E4FDFCFFFE025E92D5
:10342800900017ECF0A3EDF0A3EAF0A3EBF0900006
:0634380015EEF0A3EFF019
:10343E00900022EEF0A3EFF0E4A3F090001DE0FB6D
:10344E00A3E0FAA3E0F91231BD70030236C8900072
:10345E0024E0600302358A900020E0FFC313FDC311
:10346E00900083E09DFD900082E09400FCD39000DC
:10347E0016E09D900015E09C40030236C8C39000F4
:10348E0085E09FFF900084E09400FE900017E0FC22
:10349E00A3E0FDD39FEC9E40030236C890001DE0D2
:1034AE00FBA3E0FAA3E0F91231BDFFD394804008EC
:1034BE009000247401F08083EFB40D2E900020E074
:1034CE00FF900018E02FF0900017E03400F090000D
:1034DE0022E0FFA3E0900015CFF0A3EFF090001EC6
:1034EE00E475F00112325802357D900020E0D3943D
:1034FE0010900015E0FEA3E0FF402F90001BE0FBB4
:10350E00A3E090002BCBF0A3EBF090001DE0FBA30B
:10351E00E0FAA3E0F91231BD90002DF0A374101261
:10352E0041EE900016E02408803DA3E0FCA3E0FDF0
:10353E0090001BE0FBA3E090002BCBF0A3EBF090F0
:10354E00001DE0FBA3E0FAA3E0F91231BD90002DBF
:10355E00F0900020E090002E1241EE900020E0C38B
:10356E0013FF900016E02FF0900015E03400F0905D
:10357E00001EE475F001123258023449900020E02A
:10358E00F9FF7E00C3900083E09FFD900082E09ED5
:10359E00FCD3900016E09D900015E09C400302368F
:1035AE00C8C3900085E09FFF900084E09EFE9000CF
:1035BE0017E0FCA3E0FDD39FEC9E40030236C8E467
:1035CE00900024F0E9B42042900015E0FEA3E0FF45
:1035DE0090001BE0FBA3E090002BCBF0A3EBF09050
:1035EE00001DE0F9A3E0FAA3E090002DC9F0A3EAD4
:1035FE00F0A3E9F0900021E0900030F0900019E087
:10360E00FAA3E0FB123B4F0236A9900020E06418AB
:10361E009000157044E0FEA3E0FFA3E0FCA3E0FDE4
:10362E0090001BE0FBA3E090002BCBF0A3EBF090FF
:10363E00001DE0F9A3E0FAA3E090002DC9F0A3EA83
:10364E00F0A3E9F0900021E0900030F0900019E036
:10365E00FAA3E0FB12390C8042E0FEA3E0FFA3E0E8
:10366E00FCA3E0FD90001BE0FBA3E090002BCBF051
:10367E00A3EBF090001DE0F9A3E0FAA3E090002D7B
:10368E00C9F0A3EAF0A3E9F0900021E0900030F039
:10369E00900019E0FAA3E0FB1236C990001EE47503
:1036AE00F002123258900020E0FF900016E02FF04A
:0A36BE00900015E03400F0023449DA
:0136C80022DF
:105BA100900008EEF0A3EFF0A3ECF0A3EDF0A3EA70
:045BB100F0A3EBF082
:105BB500900010E0FBA3E0FAA3E0F9126186EF780C
:105BC50003C333CE33CED8F9FFC3900083E09FFFE4
:105BD500900082E09EC313FEEF13FF900009E02FB3
:105BE500FF900008E03EFE90000AE0FCA3E0FD9077
:105BF500000EE0FBA3E090001BCBF0A3EBF09000C0
:105C050010E0F9A3E0FAA3E090001DC9F0A3EAF0C3
:105C1500A3E9F0900013E0900020F0900014E090CC
:0E5C25000021F090000CE0FAA3E0FB0234280E
:10571000900000EEF0A3EFF0900004EBF0A3EAF0AD
:0B572000A3E9F0900002ECF0A3EDF014
:10572B00900000E0FAA3E0FFAE02C006C0072427FA
:10573B00FBE43AFAA3E0FEA3E02427FFE43E90004B
:10574B003FF0A3EFF0D007D006125E92E490000773
:10575B00F0A3F0900008E025E0FF900007E033FE97
:10576B00900004E0FBA3E0FAA3E0F98F828E831292
:10577B0031D690000AF0E92FF9EA3EFA90000112B7
:10578B0031D6900009F0FEA3E0FDEDFF12617B9096
:10579B000008E004F07006900007E004F0C39000EE
:1057AB0008E09440900007E06480948640A5900048
:1057BB0083E024FFFB900082E034FFFA900085E049
:1057CB0024FFFE900084E034FF90003FF0A3CEF066
:0857DB00E4FDFCFFFE025E92FA
:10605900E4FDFCC3ED9FEE6480F8EC648098501574
:10606900E4FBFA0BBB00010ABA03F8BBE8F50DBD66
:0560790000010C80DEB7
:01607E0022FF
:10607F00E4FDFCC3ED9FEE6480F8EC64809850154E
:10608F00E4FBFA0BBB00010AEB64014A70F50DBD8E
:05609F0000010C80DE91
:0160A40022D9
:03000000025C336C
:0C5C3300787FE4F6D8FD758107025C7AEA
:105F650056583A0056793A004348583A004348593A
:105F75003A0041646A757374204F4B2100546F7564
:105F8500636820416E79776865726520546F204398
:085F95006F6E74696E75650002
:1060100042009B3C4742009D2D3D42008F0F204295
:0460200000910F4A92
:0661CC00A2C0E433FF2233
:0961C300D2B7D2B6D2B4D2B62292
:10612A00E4FEC2B6EF25E0FF92B4C2B6000000D288
:09613A00B60000000EEEB408EB03
:016143002239
:1060ED00E4FDFFFEEF25E0FFEE33FED2B60000002B
:1060FD00C2B600000030B504EF4401FF0DEDB40C45
:01610D00E3AE
:01610E00226E
:10614400C2B712612AD2B600000000C2B600000035
:06615400001260EDD2B75D
:01615A002222
:024E2F00A907D1
:104E3100E490003CF0A3F0FBFAAF01126144AC0630
:104E4100AD07EB25E0FFEA33FE741E2FF5827400F7
:104E51003EF583ECF0A3EDF00BBB00010AEB640F10
:104E61004A70D6E4FAFBEB2401FEE43A90001CF010
:104E7100A3CEF090001CE0FEA3E0FFC3940FEE94DC
:104E8100004003024F2BEF25E0FFEE33FE741E2F8F
:104E9100F58274003EF583E0FCA3E0FDEB25E0FF25
:104EA100EA33FE741E2FF58274003EF583E0FEA303
:104EB100E0FFD39DEE9C405E90003EEEF0A3EFF04C
:104EC10090001DE025E0FF90001CE033FE741E2FD2
:104ED100F58274003EF583E0FCA3E0FDEB25E0FFE5
:104EE100EA33FE741E2FF58274003EF583ECF0A3C5
:104EF100EDF090003EE0FCA3E0FD90001DE025E018
:104F0100FF90001CE033FE741E2FF58274003EF505
:104F110083ECF0A3EDF090001DE004F06003024E7D
:104F21007490001CE004F0024E740BBB00010AEB0C
:104F3100640E4A6003024E67E490003CF0A3F0FA6D
:104F41007B05EB25E0FFEA33FE741E2FF58274002A
:104F51003EF583E0FEA3E0FF90003DE02FF09000DE
:104F61003CE03EF00BBB00010AEB640A4A70D390AF
:104F7100003CE0FEA3E0FF7C007D05123203A3EEBE
:044F8100F0A3EFF0BA
:014F85002209
:0B5E2F00900014EBF0A3EAF0A3E9F0F0
:105E3A007FD0124E2F90001AEEF0A3EFF07F90124F
:105E4A004E2FC390001BE0946490001AE094004027
:105E5A0008EF9464EE940050037F002290001AE049
:105E6A00F9A3E0FD900014E0FBA3E0FAA3E0C98DDA
:105E7A00F0123284900017E0FBA3E0FAA3E0F9EEF7
:075E8A008FF01232847F014A
:015E910022EE
:0B50C300900006EBF0A3EAF0A3E9F078
:1050CE009000177401F0A37400F0A3740EF07B012E
:1050DE007A00790C125E2FEF7002FF229000177487
:1050EE0001F0A37400F0A37412F07B017A00791022
:1050FE00125E2FEF7002FF2290000CE0FEA3E0FF85
:10510E00900010E0FCA3E0FDD39FEC9E500EED242A
:10511E0014FDE43CFCC3EF9DEE9C402A900010E091
:10512E00FEA3E0FF90000CE0FCA3E0FDD39FEC9EFD
:10513E0040030251F1ED2414FDE43CFCC3EF9DEE5F
:10514E009C40030251F190000EE0FEA3E0FF9000A0
:10515E0012E0FCA3E0FDD39FEC9E500EED2414FD57
:10516E00E43CFCC3EF9DEE9C4024900012E0FEA3B5
:10517E00E0FF90000EE0FCA3E0FDD39FEC9E506399
:10518E00ED2414FDE43CFCC3EF9DEE9C50559000C5
:10519E0010E0FEA3E0FF90000DE02FFF90000CE06A
:1051AE003EC313F9EF13FF900006E0FBA3E0FAA352
:1051BE00E0C98FF0123284900012E0FEA3E0FF905F
:1051CE00000FE02FFF90000EE03EC313F9EF13FF28
:1051DE00900009E0FBA3E0FAA3E0C98FF01232843D
:0551EE007F01227F009B
:0151F3002299
:105D4000E49000BCF09000BCE0706A90000974011F
:105D5000F0A37400F0A37499F07B017A0079971294
:105D600050C3EF60E67F0A7E00126059900009740C
:105D700001F0A37400F0A374BFF07B017A0079BD39
:105D80001250C3EF60E69000BDE0FEA3E0FF90007C
:105D900097E0B506B0A3E0B507AB9000BFE0FEA367
:105DA000E0FF900099E06E7003A3E06F70979000A1
:0A5DB000BC04F080909000BCE0FFFE
:015DBA0022C6
:1051F4009000C1EEF0A3EFF0A3ECF0A3EDF090006B
:105204007E74F8F0A3E4F09000C1E0FAA3E0FB247C
:10521400F4FFEA34FFFEC007EB240DFBE43AFAA3E3
:10522400E0FFA3E090000FCFF0A3EFF0D00712450A
:10523400FC9000C1E0FAA3E0FBFFAE02C006C00789
:105244009000C4E024F4FD9000C3E034FFFCE0FED1
:10525400A3E0240DFFE43E90000FF0A3EFF0D0078D
:10526400D0061245FC9000C2E02401FF9000C1E08A
:105274003400FE9000C4E02401FD9000C3E034003B
:10528400FC12602F9000C2E024FFFF9000C1E034C4
:10529400FFFE9000C4E02401FD9000C3E03400FC54
:1052A40012602F9000C2E02401FF9000C1E034009E
:1052B400FE9000C4E024FFFD9000C3E034FFFC1224
:1052C400602F9000C2E024FFFF9000C1E034FFFE95
:1052D4009000C4E024FFFD9000C3E034FFFC1260A2
:1052E4002F9000C1E0FEA3E0FFA3E0FCA3E0FD904B
:1052F400007EE0FAA3E0FB900007E4F0A37406F05C
:08530400E4A3F0A3F00244064B
:105DBB00900005EEF0A3EFF0A3ECF0A3EDF0AF0332
:105DCB0090007EEAF0A3EFF0900005E0FEA3E0FF69
:105DDB0012602F900006E02401FF900005E03400D4
:105DEB00FE900007E0FCA3E0FD12602F900005E0A1
:105DFB00FEA3E0FF900008E02401FD900007E034D3
:105E0B0000FC12602F900006E02401FF900005E0DB
:105E1B003400FE900008E02401FD900007E0340000
:045E2B00FC02602FE6
:104B7300E4900005F07B0190000904F0A37400F0B9
:104B8300A37499F07A0079971250C3EF7003024C23
:104B9300709000057401F090008FE0FEA3E0FFD356
:104BA300900098E09F900097E09E400BAB07AA0609
:104BB300E0FEA3E0FF8013900097E0FEA3E0FBAAD2
:104BC3000690008FE0FEA3E0FFC3EF9BFFEE9AFE8B
:104BD300E49400FDE49400FCE47BE87A03F9F81222
:104BE30032A3C006C00790009BE0FEA3E0FBAA0629
:104BF300E4F9F8D007D00612332E900093EEF0A319
:104C0300EFF0900091E0FEA3E0FFD390009AE09FC5
:104C1300900099E09E400BAB07AA06E0FEA3E0FFDD
:104C23008013900099E0FEA3E0FBAA06900091E0B8
:104C3300FEA3E0FFC3EF9BFFEE9AFEE49400FDE4C6
:104C43009400FCE47BE87A03F9F81232A3C006C0AF
:104C53000790009DE0FEA3E0FBAA06E4F9F8D00765
:104C6300D00612332E900095EEF0A3EFF090009350
:104C7300E0FEA3E0FFA3E0FDA3E0900093CDF0A34B
:104C8300EDF0A3EEF0A3EFF0900093E0FEA3E0FFBE
:104C9300900082E0FCA3E0FDC39FFFEC9EFE90002A
:104CA30093F0A3EFF0C3ED9FFFEC9E900093F0A36E
:104CB300EFF0A3E0FEA3E0FFC3900085E09FFF9029
:104CC3000084E09E900095F0A3EFF0900005E0FFD4
:014CD30022BE
:10233200E490007DF0F090007EF0A3741FF074FF33
:10234200900080F0A3F0FFFE125CBF90007E74F854
:10235200F0A3E4022AD620C0FD125D40EF60429055
:102362000097E0FEA3E0FFE4FCFD90007DE0FB753A
:10237200F008A4245DF582E43400F5831233DF9083
:102382000099E0FEA3E0FFE4FCFDEB75F008A42455
:1023920061F582E43400F5831233DF90007DE004BE
:1023A200F090007DE024FE602914604514606B24E7
:1023B2000370A374FFFFFE125CBF30C0FD90008368
:1023C200E024CDFF900082E034FFFE7D327C0002EB
:1023D2002AE674FFFFFE125CBF30C0FD900085E06C
:1023E20024CDFD900084E034FFFC7F327E00022A7F
:1023F200E674FFFFFE125CBF30C0FD900083E02454
:10240200CDFF900082E034FFFE900085E024CDFDF8
:10241200900084E034FFFC022AE674FFFFFE125CA7
:10242200BF30C0FD90005DE0FCA3E0FDA3E0FEA391
:10243200E0FF900065E0F8A3E0F9A3E0FAA3E0FB77
:10244200D31233CE403490005DE0F8A3E0F9A3E06C
:10245200FAA3E0FB900065E0FCA3E0FDA3E0FEA38D
:10246200E09BFFEE9AFEED99FDEC98FCEF2401FF54
:10247200E43EFEE43DFDE43C8036900065E0F8A3D6
:10248200E0F9A3E0FAA3E0FB90005DE0FCA3E0FD2D
:10249200A3E0FEA3E0C39BFFEE9AFEED99FDEC984C
:1024A200FCEF24FFFFEE34FFFEED34FFFDEC34FFC2
:1024B200FCE47BE87A03F9F81232A3C006C0079065
:1024C2000083E0249CFF900082E034FFAB07FAE433
:1024D200F9F8D007D00612332EE41230FE900041F4
:1024E2001233DF90005DE0FCA3E0FDA3E0FEA3E079
:1024F200FF900065E0F8A3E0F9A3E0FAA3E0FBD3C4
:102502001233CEE4FFFE7D487C42900041E0F8A306
:10251200E0F9A3E0FAA3E0FB4034122EDFE4FBFA79
:10252200797A7844122FE8C004C005C006C007902B
:10253200005DE0FCA3E0FDA3E0FEA3E0FFE41230B7
:10254200FED003D002D001D000122DEA8032122E2A
:10255200DFE4FBFA797A7844122FE8C004C005C0A0
:1025620006C00790005DE0FCA3E0FDA3E0FEA3E04F
:10257200FFE41230FED003D002D001D000122DEEC3
:1025820012313C900051EEF0A3EFF0900061E0FCBC
:10259200A3E0FDA3E0FEA3E0FF900071E0F8A3E05A
:1025A200F9A3E0FAA3E0FBD31233CE401D90006101
:1025B200E0F8A3E0F9A3E0FAA3E0FB900071E0FCED
:1025C200A3E0FDA3E0FEA3E0801C900071E0F8A36D
:1025D200E0F9A3E0FAA3E0FB900061E0FCA3E0FDD8
:1025E200A3E0FEA3E0C39BFFEE9AFEED99FDEC98FB
:1025F200FCEF24FFFFEE34FFFEED34FFFDEC34FF71
:10260200FCE47BE87A03F9F81232A3C006C0079013
:102612000085E0249CFF900084E034FFAB07FAE4DD
:10262200F9F8D007D00612332EE41230FE9000499A
:102632001233DF900061E0FCA3E0FDA3E0FEA3E023
:10264200FF900071E0F8A3E0F9A3E0FAA3E0FBD366
:102652001233CEE4FFFE7D487C42900049E0F8A3AD
:10266200E0F9A3E0FAA3E0FB4034122EDFE4FBFA28
:10267200797A7844122FE8C004C005C006C00790DA
:102682000061E0FCA3E0FDA3E0FEA3E0FFE4123062
:10269200FED003D002D001D000122DEA8032122ED9
:1026A200DFE4FBFA797A7844122FE8C004C005C04F
:1026B20006C007900061E0FCA3E0FDA3E0FEA3E0FA
:1026C200FFE41230FED003D002D001D000122DEE72
:1026D20012313C900055EEF0A3EFF090006DE0FC5B
:1026E200A3E0FDA3E0FEA3E0FF900075E0F8A3E005
:1026F200F9A3E0FAA3E0FBD31233CE403490006D8D
:10270200E0F8A3E0F9A3E0FAA3E0FB900075E0FC97
:10271200A3E0FDA3E0FEA3E09BFFEE9AFEED99FD90
:10272200EC98FCEF2401FFE43EFEE43DFDE43C8036
:1027320036900075E0F8A3E0F9A3E0FAA3E0FB907D
:10274200006DE0FCA3E0FDA3E0FEA3E0C39BFFEE6F
:102752009AFEED99FDEC98FCEF24FFFFEE34FFFEAC
:10276200ED34FFFDEC34FFFCE47BE87A03F9F81268
:1027720032A3C006C007900083E0249CFF90008231
:10278200E034FFAB07FAE4F9F8D007D00612332E93
:10279200E41230FE9000451233DF90006DE0FCA39E
:1027A200E0FDA3E0FEA3E0FF900075E0F8A3E0F9EE
:1027B200A3E0FAA3E0FBD31233CEE4FFFE7D487C14
:1027C20042900045E0F8A3E0F9A3E0FAA3E0FB4061
:1027D20034122EDFE4FBFA797A7844122FE8C0042F
:1027E200C005C006C00790006DE0FCA3E0FDA3E0B9
:1027F200FEA3E0FFE41230FED003D002D001D000ED
:10280200122DEA8032122EDFE4FBFA797A78441232
:102812002FE8C004C005C006C00790006DE0FCA30D
:10282200E0FDA3E0FEA3E0FFE41230FED003D002FD
:10283200D001D000122DEE12313C900053EEF0A3E5
:10284200EFF0900069E0FCA3E0FDA3E0FEA3E0FF4F
:10285200900079E0F8A3E0F9A3E0FAA3E0FBD31239
:1028620033CE401D900069E0F8A3E0F9A3E0FAA39B
:10287200E0FB900079E0FCA3E0FDA3E0FEA3E08092
:102882001C900079E0F8A3E0F9A3E0FAA3E0FB9042
:102892000069E0FCA3E0FDA3E0FEA3E0C39BFFEE22
:1028A2009AFEED99FDEC98FCEF24FFFFEE34FFFE5B
:1028B200ED34FFFDEC34FFFCE47BE87A03F9F81217
:1028C20032A3C006C007900085E0249CFF900084DC
:1028D200E034FFAB07FAE4F9F8D007D00612332E42
:1028E200E41230FE90004D1233DF900069E0FCA349
:1028F200E0FDA3E0FEA3E0FF900079E0F8A3E0F999
:10290200A3E0FAA3E0FBD31233CEE4FFFE7D487CC2
:102912004290004DE0F8A3E0F9A3E0FAA3E0FB4007
:1029220034122EDFE4FBFA797A7844122FE8C004DD
:10293200C005C006C007900069E0FCA3E0FDA3E06B
:10294200FEA3E0FFE41230FED003D002D001D0009B
:10295200122DEA8032122EDFE4FBFA797A784412E1
:102962002FE8C004C005C006C007900069E0FCA3C0
:10297200E0FDA3E0FEA3E0FFE41230FED003D002AC
:10298200D001D000122DEE12313C900057EEF0A390
:10299200EFF0900045E0FCA3E0FDA3E0FEA3E0FF22
:1029A200900041E0F8A3E0F9A3E0FAA3E0FB1230C3
:1029B2008560324030E4FFFE7D7A7C44900045E041
:1029C200F8A3E0F9A3E0FAA3E0FB122DEE90004198
:1029D200E0F8A3E0F9A3E0FAA3E0FB12308560057A
:1029E2004003022AD2900045E0FCA3E0FDA3E0FEF2
:1029F200A3E0FF900041E0F8A3E0F9A3E0FAA3E02E
:102A0200FB123085502EE4FFFE7D7A7CC490004597
:102A1200E0F8A3E0F9A3E0FAA3E0FB122DEE9000A8
:102A220041E0F8A3E0F9A3E0FAA3E0FB12308550FD
:102A320003022AD290004DE0FCA3E0FDA3E0FEA336
:102A4200E0FF900049E0F8A3E0F9A3E0FAA3E0FB7D
:102A5200123085602F402DE4FFFE7D7A7C44900089
:102A62004DE0F8A3E0F9A3E0FAA3E0FB122DEE900B
:102A72000049E0F8A3E0F9A3E0FAA3E0FB123085F5
:102A82006002504C90004DE0FCA3E0FDA3E0FEA3E9
:102A9200E0FF900049E0F8A3E0F9A3E0FAA3E0FB2D
:102AA2001230855045E4FFFE7D7A7CC490004DE0F3
:102AB200F8A3E0F9A3E0FAA3E0FB122DEE9000499F
:102AC200E0F8A3E0F9A3E0FAA3E0FB123085501A84
:102AD200E490007DF074FFFFFE125CBF7D327C004B
:102AE2007F327E001251F4022358900045E0FCA38D
:102AF200E0FDA3E0FEA3E0FF900041E0F8A3E0F9CF
:102B0200A3E0FAA3E0FB122DEEE4FBFAF9784012FF
:102B12002FE812313C90009BEEF0A3EFF090004DB5
:102B2200E0FCA3E0FDA3E0FEA3E0FF900049E0F893
:102B3200A3E0F9A3E0FAA3E0FB122DEEE4FBFAF91D
:102B42007840122FE812313C90009DEEF0A3EFF096
:102B5200900053E0FEA3E0FF900052E02FFF9000B0
:102B620051E03EC313FEEF13FF90008FEEF0A3EF90
:102B7200F0900057E0FEA3E0FF900056E02FFF9098
:102B82000055E03EC313FEEF13FF900091EEF0A359
:102B9200EFF074FFFFFE125CBFE490007EF0A3F042
:102BA200900080F0A3741FF0900059E4F0A37432F7
:102BB200F0A3E4F0A37496F090000A74FFF0A374FB
:102BC2005FF0A37465F0A37401F07B107D967C0026
:102BD2007F327E0012597590005AE02428F090004E
:102BE20059E03400F090009BE0FEA3E0FFE4FCFD1E
:102BF2009000A31233DF9000A77406F0A37410F0C4
:102C020090005BE0FCA3E0FD900059E0FEA3E0FF32
:102C120012530C900059E4F0A37432F090005CE07F
:102C22002414F090005BE03400F0E0FCA3E0FD909F
:102C3200000A74FFF0A3745FF0A37469F0A3740137
:102C4200F07B107F327E0012597590005AE02428E2
:102C5200F0900059E03400F090009DE0FEA3E0FF08
:102C6200E4FCFD9000A31233DF9000A77406F0A3EA
:102C72007410F090005BE0FCA3E0FD900059E0FED0
:102C8200A3E0FF12530C900059E4F0A37432F090C9
:102C9200005CE02414F090005BE03400F0E0FCA360
:102CA200E0FD90000A74FFF0A3745FF0A3746DF06E
:102CB200A37401F07B107F327E0012597590005A86
:102CC200E02428F0900059E03400F090008FE0FEFC
:102CD200A3E0FFE4FCFD9000A31233DF9000A77491
:102CE20006F0A37410F090005BE0FCA3E0FD9000FE
:102CF20059E0FEA3E0FF12530C900059E4F0A374D4
:102D020032F090005CE02414F090005BE03400F0BC
:102D1200E0FCA3E0FD90000A74FFF0A3745FF0A34F
:102D22007472F0A37401F07B107F327E0012597529
:102D320090005AE02428F0900059E03400F090000E
:102D420091E0FEA3E0FFE4FCFD9000A31233DF90CC
:102D520000A77406F0A37410F090005BE0FCA3E0FF
:102D6200FD900059E0FEA3E0FF12530C900059E4DD
:102D7200F0A3741EF090005CE0241EF090005BE073
:102D82003400F0E0FCA3E0FD90000A74FFF0A374AD
:102D92005FF0A37477F0A37401F07B107F1E7E00B6
:102DA200125975900059E4F0A3741EF090005CE093
:102DB200241EF090005BE03400F0E0FCA3E0FD9004
:102DC200000A74FFF0A3745FF0A37482F0A374018D
:102DD200F07B107F1E7E00125975125D4074FFFF5A
:042DE200FE125CBFC2
:012DE60022CA
:0A60240042007E0000420080FFFFF2
:0F619B00C2938FA0AF058F80C291D291D2932271
:0561D200D29202619B66
:0B615B0012617B90008DE0FEA3E0FFCE
:0B616600AD07AC06C292ECFF02619B8B
:0A617100126166E4FF12617BE4FF97
:0B617B00AD07AC06D292ECFF02619B66
:0E61AA00AB05AA04126166AE02AF0302617B70
:0B61B800900089E0FEA3E0FF0261669A
:085CBF009000C5EEF0A3EFF028
:105CC700900083E024FFFB900082E034FFFA90000D
:105CD70085E024FFFE900084E034FF90003FF0A3AE
:105CE700CEF0E4FDFCFFFE125E92E49000C7F0A345
:105CF700F0900082E0FEA3E0FFC39000C8E09F9011
:105D070000C7E09E5032E4FBFAD3900085E09B90F9
:105D17000084E09A40129000C5E0FEA3E0FF126104
:105D27007B0BBB00010A80E19000C8E004F070C162
:085D37009000C7E004F080B900
:015D3F002241
:10602F00AB07AA068D828C83C006C007AE83AF82F2
:10603F0090003FEEF0A3EFF0D007D006125E9290E3
:0A604F00007EE0FEA3E0FF02617B8B
:10610F00D2B37F327E00126059C2B37F327E00124B
:0B611F006059D2B37F327E000260594D
:1049C90012610FD2907FCF7E00126166E4FF1261FF
:1049D9007B7FC112617B7F3012617B7FED12616643
:1049E9007F6412617B7F0312617B7F1212617B7F7F
:1049F9008112617B7FE81261667F8512617B7F107E
:104A090012617B7F7A12617B7FCB1261667F3912DB
:104A1900617B7F2C1261767F3412617B7F02126188
:104A29007B7FF71261667F2012617B7FEA126171D9
:104A39007FC01261667F1B12617B7FC11261667F35
:104A49000112617B7FC51261667F3012617B7F3005
:104A590012617B7FC71261667FB712617B7F361255
:104A690061667F4812617B7F3A1261667F551261E8
:104A79007B7FB1126166E4FF12617B7F1A12617B51
:104A89007FB61261667F0A12617B7FA212617B7F0A
:104A9900F2126166E4FF12617B7F261261667F0173
:104AA90012617B7FE01261667F0F12617B7F2A12A0
:104AB900617B7F2812617B7F0812617B7F0E126107
:104AC9007B7F0812617B7F5412617B7FA912617B16
:104AD9007F4312617B7F0A12617B7F0F12617B1218
:104AE90061741261747FE1126166E4FF12617B7F78
:104AF9001512617B7F1712617B7F0712617B7F1122
:104B090012617B7F0612617B7F2B12617B7F5612BC
:104B1900617B7F3C12617B7F0512617B7F10126193
