:020000040800F2
:1000000058BF002005010008F91200080505000886
:10001000F5120008C7020008771900080000000068
:10002000000000000000000000000000A51400080F
:10003000CB020008000000006D130008B91500088D
:100040001F0100081F0100081F0100081F01000810
:100050001F0100081F0100081F0100081F01000800
:100060001F0100081F0100081F0100081F010008F0
:100070001F0100081F0100081F0100081F010008E0
:100080001F0100081F0100081F0100081F010008D0
:100090001F0100081F0100081F0100081F010008C0
:1000A0001F0100081F0100081F0100081F010008B0
:1000B0001F0100081D1600081F0100081F0100088D
:1000C0001F0100081F0100081F0100081F01000890
:1000D0001F010008351700081F0100081F01000854
:1000E0001F0100081F0100081F010008DFF810D0E1
:1000F00000F0ACF800480047F9800208AFF3008038
:1001000058BF00200648804706480047FEE7FEE744
:10011000FEE7FEE7FEE7FEE7FEE7FEE7FEE7FEE7B7
:10012000BD150008ED0000082DE9F05F0546002030
:1001300092469B4688460646814640241BE0284658
:1001400041464746224600F071F853465A46C01AC7
:10015000914110D311461846224600F058F82D1A46
:1001600067EB01084F4622460120002100F04FF8BE
:1001700017EB00094E41201EA4F10104DFDC4846C4
:1001800031462A464346BDE8F09F40EA01039B07FB
:1001900003D009E008C9121F08C0042AFAD203E0FC
:1001A00011F8013B00F8013B521EF9D27047D2B260
:1001B00001E000F8012B491EFBD270470022F6E750
:1001C00010B513460A4604461946FFF7F0FF2046CD
:1001D00010BD421C10F8011B0029FBD1801A70478A
:1001E00010B5002200E0521C835C8C5CA34201D15C
:1001F000002BF8D1D8B2E1B2401A10BD034611F875
:10020000012B00F8012B002AF9D118467047202A4B
:1002100004DB203A00FA02F1002070479140C2F15D
:10022000200320FA03F3194390407047202A04DB8F
:10023000203A21FA02F00021704721FA02F3D0405F
:10024000C2F120029140084319467047064C074D01
:1002500006E0E06840F0010394E807009847103496
:10026000AC42F6D3FFF746FFE45D0308045E0308E3
:1002700070B58C1810F8015B15F0070301D110F868
:10028000013B2A1106D110F8012B03E010F8016B95
:1002900001F8016B5B1EF9D12B0705D40023521E18
:1002A0000DD401F8013BFAE710F8013BCB1A921C80
:1002B00003E013F8015B01F8015B521EF9D5A1427E
:1002C000D8D3002070BD00BFFEE7704751B1820057
:1002D000A2F1C042126842F001038200A2F1C042C2
:1002E000136009E08200A2F1C0421268034B1A4079
:1002F0008300A3F1C0431A6070470000FEFF0F00A7
:10030000D0E901121143C2681143026911434269E5
:10031000114382691143C2691143026A1143426A5F
:100320001143826A1143C26A1143026B114302688E
:100330009200A2F1C0421160816808290BD10168C6
:100340008900A1F1C041096841F0400201688900BB
:10035000A1F1C0410A60416B0968426B526841EAF1
:100360000211426B926841EA0221426B928941EA92
:100370000241426B128A41EA0251426B127D41EA0C
:100380000261426B926911430268521C9200A2F111
:10039000C0421160C16AB1F5804F1BD1816B096801
:1003A000826B526841EA0211826B926841EA022133
:1003B000826B128A41EA0251826B127D41EA02612C
:1003C000826B9269114302689200A2F1C042C2F8A6
:1003D000041107E06FF0704201688900A1F1C0418B
:1003E000C1F8042170472DE9F0410246002500269E
:1003F000002000230024002791F803C00CF00F0513
:1004000091F803C00CF0100CBCF1000F03D091F870
:1004100002C04CEA050591F800C0BCF1000F31D0D4
:10042000146800202BE04FF0010C0CFA00F3B1F837
:1004300000C00CEA03069E4220D183004FF00F0C4F
:100440000CFA03F7BC4305FA03FC4CEA040491F8E8
:1004500003C0BCF1280F06D14FF0010C0CFA00FCD0
:10046000C2F814C00AE091F803C0BCF1480F05D1EE
:100470004FF0010C0CFA00FCC2F810C0401C082818
:10048000D1D31460B1F800C0BCF1FF0F34DD546863
:1004900000202EE000F1080C4FF0010808FA0CF3E0
:1004A000B1F800C00CEA03069E4221D183004FF050
:1004B0000F0C0CFA03F7BC4305FA03FC4CEA0404E6
:1004C00091F803C0BCF1280F05D100F1080C08FA1F
:1004D0000CF8C2F8148091F803C0BCF1480F07D1A2
:1004E00000F1080C4FF0010808FA0CF8C2F810806F
:1004F000401C0828CED35460BDE8F08141617047AC
:100500000161704700BFFEE701B502E00098401EA0
:10051000009000980028F9D108BD00B597B03C21A3
:1005200008A8FFF74BFE1C2101A8FFF747FE012199
:10053000080200F01DFF01200190042003908006B6
:100540000790002002900490059006900890099072
:1005500008200A9010200B9000200C900E900F9015
:1005600010904FF48050119000201290139014902E
:1005700001A81590169008A8FFF7C2FE01210020DF
:10058000FFF7A4FE17B000BD08B50121602000F000
:100590000FFF03208DF8020018208DF803004FF4A0
:1005A0008040ADF8000069465B48FFF71CFF4FF440
:1005B0000040ADF8000069465748FFF714FF0120DE
:1005C000ADF8000069465448FFF70DFF0220ADF872
:1005D000000069465048FFF706FF8020ADF8000094
:1005E00069464E48FFF7FFFE4FF48070ADF80000FB
:1005F00069464A48FFF7F7FE4FF40070ADF8000077
:1006000069464648FFF7EFFE4FF48060ADF8000002
:1006100069464248FFF7E7FE4FF40060ADF800007E
:1006200069463E48FFF7DFFE4FF48050ADF800000A
:1006300069463A48FFF7D7FE4FF40050ADF8000086
:1006400069463648FFF7CFFE4FF48040ADF8000012
:1006500069463248FFF7C7FE4FF40040ADF800008E
:1006600069462E48FFF7BFFE4FF48070ADF80000DA
:1006700069462948FFF7B7FE4FF40070ADF8000057
:1006800069462548FFF7AFFE4FF48060ADF80000E3
:1006900069462148FFF7A7FE03208DF802001820C5
:1006A0008DF803001020ADF8000069461A48FFF7E6
:1006B0009AFE2020ADF8000069461748FFF793FE28
:1006C0008020ADF8000069461348FFF78CFE4FF418
:1006D0000060ADF8000069460F48FFF784FE102067
:1006E0008DF8030003208DF802000220ADF8000011
:1006F00069460A48FFF777FE10208DF803000320B3
:100700008DF802004FF48050ADF8000069460248B1
:10071000FFF769FE08BD0000001401400018014009
:1007200010B502210748FFF7E9FE40F6FF20FFF76A
:10073000EBFE02210348FFF7E3FE40F6FF20FFF740
:10074000E3FE10BD0018014070B5064600241848AD
:100750000588408845431648808846F6040188424B
:1007600016D113488079012812D1002010498871D0
:100770002A2048812B2088810021084600F0CAFCED
:1007800001200B4988712B2048812A20888103E0B1
:100790000021084600F0BEFC00F09AFD002403E0B2
:1007A000304600F08BFD641CAC42F9D370BD0000F4
:1007B0004002002010B50446002C66D16C498871B7
:1007C000F02008804FF4A07048800846808849F2E5
:1007D000413188420BD06648808846F60401884241
:1007E00005D06348808845F2103188421AD12C2008
:1007F0005F4908812A2048812B208881084680880B
:1008000046F60401884205D05948808845F21031E7
:10081000884206D14FF4A070554908804FF4F0701B
:100820004880A1E05248808845F21051884210D19A
:100830004FF430504E4908814FF4285048814FF40E
:100840002C5088814FF4F07008804FF44870488035
:100850008AE04748808841F6631188420DD12C20F8
:10086000434908812B2048812A2088814FF4F07069
:1008700008804FF44870488076E022203C49088187
:1008800020204881212088816EE00120384988712C
:100890004FF4A0700880F02048800846808849F214
:1008A0004131884205D03248808845F21031884273
:1008B00007D12C202E4908812A2048812B208881AD
:1008C0003FE02B48808846F60401884207D12C205F
:1008D000274908812B2048812A20888131E024483B
:1008E000808845F21051884210D14FF43050204991
:1008F00008814FF4285048814FF42C5088814FF4E0
:10090000487008804FF4F07048801AE018488088DA
:1009100041F6631188420DD12C20154908812A2007
:1009200048812B2088814FF4487008804FF4F07084
:10093000488006E022200E4908812120488120209D
:1009400088810B48808846F60401884205D0084813
:10095000808845F21031884206D14FF4F070044986
:1009600008804FF4A0704880002000F05DFA10BDB0
:100970004002002070B504460D4616465A4880884D
:1009800049F24131884205D05748808845F21031FC
:10099000884214D15449488900F096FC201200F096
:1009A0008DFCE0B200F08AFC4F49888900F08CFC95
:1009B000281200F083FCE8B200F080FC8CE04A488A
:1009C000808845F21051884220D14749488900F07B
:1009D0007BFC201200F072FC43494989491C88B213
:1009E00000F072FCE0B200F069FC3F49888900F039
:1009F0006BFC281200F062FC3B498989491C88B2D3
:100A000000F062FCE8B200F059FC65E036488088EE
:100A100041F66311884228D13348807920B93248A1
:100A20000088401E001B84B22F49488900F04CFC0E
:100A3000201200F043FCE0B200F040FC201200F075
:100A40003DFCE0B200F03AFC2749888900F03CFC0C
:100A5000281200F033FCE8B200F030FC281200F05D
:100A60002DFCE8B200F02AFC36E01F48808846F6EC
:100A7000040188421DD11C488079012804D11A48FC
:100A80000088401E001B84B21749488900F01CFCF6
:100A9000201200F013FCE0B200F010FC124988892B
:100AA00000F012FC281200F009FCE8B200F006FC8D
:100AB00012E00D488079012804D10B480088401EBF
:100AC000001B84B208494889214600F009FC064908
:100AD0008889294600F004FC0349088900F0F4FBEA
:100AE000304600F0EBFB70BD4002002010B5FFF770
:100AF0004BFDFFF712FD4FF48051C248FFF7FEFC9B
:100B0000FFF70EFED32000F0DFFB00F087F9BE49AF
:100B1000888000F083F9BC49888000F07FF9BA49E9
:100B20008880084680884FF6FF7101EA0020B649A8
:100B3000888000F073F9B44989880843B2498880F5
:100B400008468188B1A000F019FFAF48808849F2BB
:100B5000413188427ED1CF2000F0B6FB002000F06A
:100B6000ADFB812000F0AAFB302000F0A7FB0520A0
:100B700005F0A0FDED2000F0A7FB642000F09EFB37
:100B8000032000F09BFB122000F098FB812000F076
:100B900095FB052005F08EFDE82000F095FB8520F3
:100BA00000F08CFB102000F089FB782000F086FB21
:100BB000052005F07FFDCB2000F086FB392000F0FA
:100BC0007DFB2C2000F07AFB002000F077FB342026
:100BD00000F074FB022000F071FB052005F06AFDB7
:100BE000F72000F071FB202000F068FB052005F0E5
:100BF00061FDEA2000F068FB002000F05FFB0020B0
:100C000000F05CFB052005F055FDB12000F05CFB19
:100C1000002000F053FB1B2000F050FB052005F0E6
:100C200049FDB62000F050FB0A2000F047FBA2204F
:100C300000F044FB052005F03DFDC02000F044FB22
:100C4000352000F03BFB052005F034FDC12000F00D
:100C50003BFB00E0CEE0112000F030FB052005F06A
:100C600029FDC52000F030FB452000F027FB452082
:100C700000F024FB052005F01DFDC72000F024FB3B
:100C8000A22000F01BFB052005F014FDF22000F06F
:100C90001BFB002000F012FB052005F00BFD2620B9
:100CA00000F012FB012000F009FB052005F002FD19
:100CB000E02000F009FB0F2000F000FB262000F0F0
:100CC000FDFA242000F0FAFA0B2000F0F7FA0E20CB
:100CD00000F0F4FA092000F0F1FA542000F0EEFAE6
:100CE000A82000F0EBFA462000F0E8FA0C2000F013
:100CF000E5FA172000F0E2FA092000F0DFFA0F20F1
:100D000000F0DCFA072000F0D9FA002000F0D6FA53
:100D1000052005F0CFFCE12000F0D6FA002000F01D
:100D2000CDFA192000F0CAFA1B2000F0C7FA0420FF
:100D300000F0C4FA102000F0C1FA072000F0BEFA5B
:100D40002A2000F0BBFA472000F0B8FA392000F062
:100D5000B5FA032000F0B2FA062000F0AFFA062040
:100D600000F0ACFA302000F0A9FA382000F0A6FA22
:100D70000F2000F0A3FA052005F09CFC362000F0BF
:100D8000A3FAC82000F09AFA052005F093FC2A2067
:100D900000F09AFA002000F091FA002000F08EFA9C
:100DA000002000F08BFAEF2000F088FA052005F013
:100DB00081FC2B2000F088FA002000F07FFA002050
:100DC00000F07CFA012000F079FA3F2000F076FA7A
:100DD000052005F06FFC3A2000F076FA552000F06F
:100DE0006DFA112000F070FA782005F063FC2920DC
:100DF00000F06AFA0120FFF7DDFC4FF6FF70FFF705
:100E0000A3FC10BD0014014040020020204C4344CC
:100E10002049443A25780D0A000000000148008866
:100E20007047000000000260F0B50546002400276E
:100E3000B748807901280BD1B548808846F604016F
:100E4000884205D0B248808841F66311884208D1B3
:100E5000AF488079F0B9AE48808841F66311884286
:100E600018D1082D15D2DFE805F00406080A0C0E8B
:100E7000101206250DE007250BE0042509E00525E5
:100E800007E0012505E0002503E0032501E0022538
:100E900000BF00BF9E48808849F24131884217D088
:100EA0009B48808846F60401884211D09848808883
:100EB00045F2103188420BD09548808845F2105198
:100EC000884205D09248808841F6631188427DD1DE
:100ED000082D1CD2DFE805F00406090C0F121518C6
:100EE00000BF14E044F0800411E044F040040EE040
:100EF00044F0C0040BE044F0200408E044F0600437
:100F000005E044F0A00402E044F0E00400BF00BFAC
:100F10007F48808845F21051884202D14FF45857DB
:100F200000E036277A48808845F2103188420DD09B
:100F30007748808845F21051884207D074488088ED
:100F400041F66311884201D044F00804704880885B
:100F500046F60401884201D144F002042146384695
:100F600000F0BEF96A48808841F6631188421DD0BE
:100F700004F0200068B166480088654949888842C5
:100F800014DA63480688408861490880084646802C
:100F90000CE05F4800885E494988884206DD5C486D
:100FA000068840885A490880084646805848808804
:100FB00045F21051884254D15549488900F084F9CE
:100FC000002000F07BF95249498900E078E0491C93
:100FD00088B200F079F9002000F070F94C49498995
:100FE000891C88B200F070F949490988491EC1F38B
:100FF0000F2000F063F946494989C91C88B200F006
:1010000063F943490978491EC8B200F057F94049CD
:10101000888900F059F9002000F050F93C4989898D
:10102000491C88B200F050F9002000F047F9384917
:101030008989891C88B200F047F935494988491ED9
:10104000C1F30F2000F03AF931498989C91C88B2EF
:1010500000F03AF92E498978491EC8B200F02EF9FD
:1010600055E02B49488900F02FF9002000F026F9BF
:10107000002000F023F926490988491EC1F30F20FA
:1010800000F01CF922490978491EC8B200F016F98F
:101090001F49888900F018F9002000F00FF900209E
:1010A00000F00CF91A494988491EC1F30F2000F0DD
:1010B00005F917498978491EC8B200F0FFF826E003
:1010C000082D1CD2DFE805F004070A0D0F121518D1
:1010D00044F0300413E044F0100410E044F0200425
:1010E0000DE000BF0BE044F0380408E044F02804B1
:1010F00005E044F0180402E044F0080400BF00BF1B
:10110000032744F480542146384600F0E9F8F0BD46
:101110004002002030B504460D466748808849F2F9
:101120004131884205D06448808845F210318842B8
:1011300014D16149488900F0C7F8201200F0BEF8C8
:10114000E0B200F0BBF85C49888900F0BDF82812D5
:1011500000F0B4F8E8B200F0B1F8ABE0564880888F
:1011600046F6040188421DD153488079012804D1F4
:1011700051480088401E001B84B24F49488900F046
:10118000A3F8201200F09AF8E0B200F097F84A496C
:10119000888900F099F8281200F090F8E8B200F081
:1011A0008DF887E04448808841F66311884247D132
:1011B00041488079A8B940480088401E001B84B28D
:1011C0003D49488900F080F8002000F077F80020C1
:1011D00000F074F8201200F071F8E0B200F06EF840
:1011E00016E03549488900F06FF8201200F066F8E3
:1011F000E0B200F063F830490988491EC1F30F20BE
:1012000000F05CF82C490978491EC8B200F056F885
:101210002949888900F058F8281200F04FF8E8B200
:1012200000F04CF824494988491EC1F30F2000F012
:1012300045F821498978491EC8B200F03FF839E0E5
:101240001D48808845F21051884220D11A494889AA
:1012500000F03AF8201200F031F817494989491C8A
:1012600088B200F031F8E0B200F028F8124988891D
:1012700000F02AF8281200F021F80F498989491C4A
:1012800088B200F021F8E8B200F018F812E00A483D
:101290008079012804D108480088401E001B84B2D0
:1012A00005494889214600F01BF8034988892946E9
:1012B00000F016F830BD000040020020014908800F
:1012C00070470000000002604FF0C0410880704786
:1012D00000B502490889FFF7F7FF00BD4002002072
:1012E00000B503460A461846FFF7EEFF1046FFF723
:1012F000E5FF00BD00BFFEE77047000070B50021AC
:1013000000230F22C47804B3154C246804F4E0646D
:10131000C4F5E064210AC1F10403CA40447804FA28
:1013200003F184781440214309010E4C0678A1553D
:10133000047804F01F050124AC4005786D11AD0060
:1013400005F1E025C5F8004109E0047804F01F0527
:101350000124AC40044D0678761145F8264070BD56
:101360000CED00E000E400E080E100E070470000E8
:1013700029B1064A52690243044B5A6104E0034A08
:1013800052698243014B5A617047000000100240CD
:1013900029B1064AD2690243044BDA6104E0034AE8
:1013A000D2698243014BDA617047000000100240AD
:1013B00029B1064A92690243044B9A6104E0034A48
:1013C00092698243014B9A6170470000001002400D
:1013D00030B500210022002400232D4D6D6805F05A
:1013E0000C0121B1042905D0082923D105E0294D9C
:1013F000056022E0274D05601FE0254D6D6805F46E
:101400007012234D6D6805F48034022505EB92427D
:101410001CB9214D554305600BE01D4D6D6805F469
:1014200000351DB11C4D5543056002E0194D554373
:10143000056002E0174D056000BF00BF144D6D68E8
:1014400005F0F0010909154D6B5C0568DD4045604C
:101450000F4D6D6805F4E061090A104D6B5C45683D
:10146000DD4085600A4D6D6805F46051C90A0B4D79
:101470006B5C4568DD40C560054D6D6805F4404115
:10148000890B074D6B5CC568B5FBF3F5056130BD95
:101490000010024000127A0000093D001E000020EA
:1014A0002E000020704710B500F002F810BD0000BB
:1014B0000CB50020019000903348006840F4803063
:1014C0003149086000BF3048006800F400300090E7
:1014D0000198401C0190009818B90198B0F5A06FD0
:1014E000F1D12948006800F4003010B101200090CB
:1014F00001E0002000900098012843D123480068B3
:1015000040F01000214908600846006820F0030000
:1015100008600846006840F0020008601A48406809
:10152000194948600846406848600846406840F4E9
:10153000806048600846406820F47C104860084697
:10154000406840F4E81048600846006840F0807049
:10155000086000BF0C48006800F000700028F9D057
:101560000948406820F00300074948600846406881
:1015700040F00200486000BF0348406800F00C00E3
:101580000828F9D10CBD00000010024000200240E4
:10159000042808D14FF0E021096941F004014FF01F
:1015A000E022116107E04FF0E021096921F0040118
:1015B0004FF0E022116170477047000010B51348EA
:1015C000006840F001001149086008464068104971
:1015D00008400E494860084600680E4908400B491B
:1015E00008600846006820F48020086008464068CB
:1015F00020F4FE0048604FF41F008860FFF753FF9F
:101600004FF000600449086010BD00000010024067
:101610000000FFF8FFFFF6FE08ED00E010B5012125
:10162000054800F01AF830B1012025F0E7FE01214D
:10163000014800F003F810BD00040040CA430282D4
:10164000704721B1028842F00102028004E0028862
:101650004FF6FE731A400280704730B502460020F4
:1016600000230024158A05EA0103958905EA01048F
:1016700013B10CB1012000E0002030BD1AB1838904
:101680000B43838102E083898B4383817047000091
:10169000002202881D4B98420ED01D4B98420BD061
:1016A000B0F1804F08D01B4B984205D01A4B98429E
:1016B00002D01A4B984204D14FF68F731A404B88D0
:1016C0001A43174B984207D0164B984204D04FF656
:1016D000FF431A40CB881A4302808B8883850B888E
:1016E00003850A4B98420BD0094B984208D00E4B09
:1016F000984205D00D4B984202D00D4B984201D133
:101700000B7A03860123838270470000002C01407E
:10171000003401400004004000080040000C00407C
:10172000001000400014004000400140004401400F
:101730000048014010B540F225511D4800F057F80F
:1017400010B31B4800F00EF9C4B21A48008800F428
:101750000040C8B91748008800F4804060B10A2CE6
:1017600003D000201349088020E01248008840F48C
:1017700000401049088019E00D2C06D10D48008862
:1017800040F480400B49088010E00A480088C0F30C
:101790000D0009490C5407480088401C0549088081
:1017A00008460088C72801DD0020088010BD000021
:1017B00000380140180000204E02002021B182892B
:1017C00042F40052828104E082894DF6FF731A4090
:1017D0008281704702460020B1F5007F00D100BF32
:1017E00013880B400BB1012000E00020704770B55A
:1017F0000246002400230025002040F66A16B1426C
:1018000000D100BFC1F3421501F01F03012606FA03
:1018100003F3012D02D19689334006E0022D02D157
:10182000168A334001E0968A33400C12012606FAEC
:1018300004F41688344013B10CB1012000E00020FC
:1018400070BDF0B50346002400260025002040F6B8
:101850006A17B94200D100BF1846C1F3421401F023
:101860001F06012707FA06F5012C01D10C3004E010
:10187000022C01D1103000E014301AB107682F4358
:10188000076002E00768AF430760F0BD2DE9F0474D
:1018900086B005460E460024A24600BFA14600279A
:1018A000B08900B100BF2F462C8A4CF6FF7004406F
:1018B000F08804432C82AC894EF6F3100440B088C3
:1018C00031890843718908430443AC81AC8A4FF6DF
:1018D000FF400440B0890443AC8201A8FFF778FDC3
:1018E0001F48874202D1DDF810A001E0DDF80CA00E
:1018F000A88900F4004040B10AEBCA0000EB0A10CE
:1019000031684900B0FBF1F807E00AEBCA0000EBD0
:101910000A1031688900B0FBF1F86420B8FBF0F0E0
:1019200004012009642101FB1089A88900F400400A
:1019300040B1322000EBC900B0FBF1F000F007002D
:10194000044308E0322000EB09106421B0FBF1F001
:1019500000F00F0004432C8106B0BDE8F0870000C2
:101960000038014001468888C0F308007047C1F381
:1019700008028280704700BFFEE700000FB4054BED
:1019800010B503A9044A029801F0F2FB10BC5DF8FF
:1019900014FB000029F900081400002002E008C828
:1019A000121F08C1002AFAD170477047002001E0D9
:1019B00001C1121F002AFBD1704770B504460025F3
:1019C00008E02168481C20600878303805EB850164
:1019D00000EB41052168087800F004F80028F0D1F8
:1019E000284670BD0146302903DB392901DC01207E
:1019F00070470020FCE7000010B54C21074800F0BC
:101A000045FD00222121064825F060FD05490860BA
:101A100002F018FB00200449087010BD48040020A3
:101A200021410008A4000020A000002030B503469A
:101A3000B1F90040B2F90050AC4202DDB1F900400A
:101A400001E0B2F900401C80B1F90240B2F9025045
:101A5000AC4202DDB1F9024001E0B2F902405C8023
:101A6000B1F90440B2F90450AC4202DAB1F90440D1
:101A700001E0B2F904409C80B1F90640B2F9065089
:101A8000AC4202DAB1F9064001E0B2F90640DC806E
:101A90000120B3F90040B3F90450AC4205DCB3F9BE
:101AA0000240B3F90650AC4200DD002030BDF8B56D
:101AB00004460D4616460027B4F90000B5F900109B
:101AC000884212DBB4F90200B5F9021088420CDB3F
:101AD000B4F90400B5F90410884206DCB4F9060034
:101AE000B5F90610884200DC01270FB90020F8BDC7
:101AF0000EB90120FBE72088ADF800006088ADF842
:101B0000020032466946284600F0A7F808B90020CE
:101B1000EDE7A088ADF800006088ADF8020032461D
:101B20006946284600F099F808B90020DFE72088C8
:101B3000ADF80000E088ADF802003246694628465C
:101B400000F08BF808B90020D1E7A088ADF80000BC
:101B5000E088ADF8020032466946284600F07DF87C
:101B600008B90020C3E70120C1E70246B2F900002E
:101B7000B1F90430984213DCB2F90400B1F9003035
:101B800098420DDBB2F90200B1F90630984207DC49
:101B9000B2F90600B1F90230984201DB012070472A
:101BA0000020FCE7F8B504460D461646B4F90400DB
:101BB000B5F90010884211DBB4F90600B5F902103E
:101BC00088420BDBB4F90000B5F90410884205DC4B
:101BD000B4F90200B5F90610884201DD0120F8BD14
:101BE0000EB90020FBE72088ADF800006088ADF852
:101BF000020032466946284600F02FF808B100205E
:101C0000EDE7A088ADF800006088ADF8020032462C
:101C10006946284600F021F808B10020DFE7208857
:101C2000ADF80000E088ADF802003246694628466B
:101C300000F013F808B10020D1E7A088ADF800004B
:101C4000E088ADF8020032466946284600F005F803
:101C500008B10020C3E70120C1E72DE9FC5F05467C
:101C60000E4614464FF0000AB6F90000B5F9001010
:101C7000884213DBB6F90000B5F9041088420DDC88
:101C8000B6F90200B5F90210884207DBB6F9020086
:101C9000B5F90610884201DC4FF0010ABAF1000FD5
:101CA00002D10020BDE8FC9F002C01DC0120F9E7F7
:101CB000284611F080FA834600EBDB704710284677
:101CC00011F0F1F9834600EBDB704FEA60084745FD
:101CD00001DA384600E0404681464C4500DD4C467E
:101CE0002888ADF800002888204400B2ADF8040030
:101CF0006888ADF802006888204400B2ADF806009C
:101D0000002231466846FFF7A8FF80B1BDF8040005
:101D1000204400B2ADF80400BDF80600204400B233
:101D2000ADF806003146684621F092FFBAE7E88830
:101D3000001B00B2ADF80200E888ADF806000022F2
:101D400031466846FFF789FF80B1BDF804002044A2
:101D500000B2ADF80400BDF80200001B00B2ADF8FF
:101D600002003146684621F073FF9BE7A888001BFC
:101D700000B2ADF80000A888ADF80400002231469A
:101D80006846FFF76AFF80B1BDF80000001B00B293
:101D9000ADF80000BDF80200001B00B2ADF8020073
:101DA0003146684621F054FF7CE76888ADF80200B0
:101DB0006888204400B2ADF806000022314668462B
:101DC000FFF74BFF80B1BDF80000001B00B2ADF87B
:101DD0000000BDF80600204400B2ADF80600314610
:101DE000684621F035FF5DE701205BE710B5B1F9EA
:101DF0000030B2F90040A34202DAB1F9003001E04C
:101E0000B2F900300380B1F90230B2F90240A342C6
:101E100002DAB1F9023001E0B2F902304380B1F9DF
:101E20000430B2F90440A34202DDB1F9043001E00C
:101E3000B2F904308380B1F90630B2F90640A3420A
:101E400002DDB1F9063001E0B2F90630C38010BD01
:101E50002DE9FF41044625F0C1FA05460020039014
:101E600034B14E49E0680860204625F047FC03E0A5
:101E700014F08EF84949086048490968086921F05A
:101E80007BFD46480068406920B1444909684869BB
:101E900021F072FD41490968C86921F06DFD3F4993
:101EA0000968086A21F068FD3C480068006940B98B
:101EB00000203A490968A1F8500100BF00BFBDE801
:101EC000FF81364800680068007C00F0010040B1E6
:101ED000324800680068806B407B10B100BF00BFD3
:101EE000EDE721F09DFF27F05BFC2C480068B0F87F
:101EF000500100284BD0294800680068007CC0F3DE
:101F00004000E8B12548006814F0C0F8401E06B251
:101F10002248006814F054F8401E07B23B460022E5
:101F2000114601A8009611F099F901A81B4909680A
:101F30000968896B48601948006805F007FD00BF13
:101F40004FF480711548006830301BF048FE2021A6
:101F50001248006800F598701BF041FE00200F4900
:101F60000968A1F85001284625F02AFA03900B4889
:101F700000680068006A50B10849096808680749A4
:101F8000096809680B6A06490A680399984700F0CE
:101F90003FF800F007F800BF91E700006000002064
:101FA0005C00002010B5002416E0C4EBC4000C490E
:101FB00051F8200030B1C4EBC401094A52F82100A5
:101FC00018F0E6F8C4EBC401054A02EB81001C21BD
:101FD0001BF00EFE601CC4B2042CE6DB10BD00003A
:101FE000A40400200146094A10680BE042688A42B6
:101FF00002D002688A4204D1027E22F00102521C01
:10200000027640690028F1D17047000034000020BA
:102010007047000010B52021014800F037FA10BDCC
:10202000540400202DE9FF4704460D4616461F467E
:10203000DDE90C896FB9B8F5807F0AD100202080D6
:102040006080681E00B2A080701E00B2E080BDE813
:10205000FF8700200090019002900390ADF804509B
:10206000ADF80A60ADF80C50ADF80E604B46424634
:102070003946684621F022FD4B464246394601A8C2
:1020800021F01CFD4B464246394602A821F016FDC0
:102090004B464246394603A821F010FDBDF9000029
:1020A000BDF90410884202DABDF9000001E0BDF973
:1020B0000400BDF90810BDF90C20914202DABDF907
:1020C000081001E0BDF90C1088420BDABDF90000E0
:1020D000BDF90410884202DABDF900000DE0BDF937
:1020E00004000AE0BDF90800BDF90C10884202DACC
:1020F000BDF9080001E0BDF90C00801E00B220808F
:10210000BDF90000BDF90410884202DDBDF90000F0
:1021100001E0BDF90400BDF90810BDF90C209142A1
:1021200002DDBDF9081001E0BDF90C1088420BDD9D
:10213000BDF90000BDF90410884202DDBDF90000C0
:102140000DE0BDF904000AE0BDF90800BDF90C106E
:10215000884202DDBDF9080001E0BDF90C00801CD9
:1021600000B2A080BDF90210BDF90600814202DA7A
:10217000BDF9020001E0BDF90600BDF90A20BDF974
:102180000E108A4202DABDF90A1001E0BDF90E1004
:1021900088420BDABDF90210BDF90600814202DA6D
:1021A000BDF902000DE0BDF906000AE0BDF90A1014
:1021B000BDF90E00814202DABDF90A0001E0BDF965
:1021C0000E00801E00B26080BDF90210BDF906004D
:1021D000814202DDBDF9020001E0BDF90600BDF952
:1021E0000A20BDF90E108A4202DDBDF90A1001E095
:1021F000BDF90E1088420BDDBDF90210BDF90600D5
:10220000814202DDBDF902000DE0BDF906000AE0E1
:10221000BDF90A10BDF90E00814202DDBDF90A00C8
:1022200001E0BDF90E00801C00B2E08000BF0EE7A7
:102230002DE9F743054616460024154C25F0CEF847
:102240008146334629462046019A19F097F980467F
:10225000B8F1000F0DD100BF00BF2C273A46002176
:1022600020461BF06CFC00BF7807A0620020BDE890
:10227000FE830020A062E06918B9484625F0A0F866
:10228000E061E06908B90120E0612046EFE7000065
:102290007804002010B51421114800F0F7F819F067
:1022A0001FF9044600BF1CB900BF00BF00BFFEE716
:1022B00000BF14B900BF00BF10BD0A49204619F085
:1022C000F7F90949204619F0F5F90849204619F0AF
:1022D000F3F90749204619F0E9F900BFECE70000DF
:1022E0006004002011AD0108E5B10108EDB301085B
:1022F000D9AC01082DE9FF4104460F4614B913F08B
:1023000047FE04460CB9BDE8FF81204613F0D9FE14
:1023100000B9F8E794F82800C0F3800010B100BFBE
:1023200000BFF0E71FB90020A4F85001EBE7002040
:10233000ADF80800ADF80A00204613F041FE401E3B
:1023400000B2ADF80C00204613F0A0FE401E00B213
:10235000ADF80E0002AA39466846FFF767FB06464D
:1023600006B9D0E72068007CC0F3400060B1029855
:102370002063039860630120A4F85001606810B1E5
:10238000606825F0C7F9BEE72068806918B1206849
:1023900069468269904700250BE004F1300000EBAC
:1023A000C50100226846FFF782FB00B1ABE7681C5D
:1023B00085B2B4F85001A842EFDCB4F850012028EF
:1023C00009DAB4F8502104F1300101EBC20069468A
:1023D00010F0E5FD0BE00020A4F85001B4F8502106
:1023E00004F1300101EBC20002A910F0D8FDB4F8ED
:1023F0005001401CA4F85001606810B1606825F0DD
:1024000089F900BF7FE770B50546284600F013F84C
:10241000044600260CE02146284600F024F8064633
:102420002146284600F086F8204617F0B1FE3446D3
:10243000002CF0D170BD014609B9002070474868F2
:10244000FCE770B5064600243046FFF7F4FF05466A
:1024500005E0641C2946304600F005F80546002DCD
:10246000F7D1204670BD02460B461068001D03449C
:102470001868704702460B46106803441868704796
:10248000014609B9002070478868FCE700224260D5
:102490008260CA1C22F003010160704770B50446D7
:1024A000216801F108001BF09FF90546A5B1002243
:1024B0002946204626F0EAFB29462046626826F097
:1024C000D7FB606820B12A462046616826F0DEFB13
:1024D0006560A06800B9A560284670BD70B5044667
:1024E000216801F108001BF07FF90546A5B1002223
:1024F0002946204626F0BCFB29462046A26826F045
:10250000C5FBA06820B12A462046A16826F0B0FB92
:10251000A560606800B96560284670BD014609B9CC
:1025200001207047486818B9886808B90120F8E7A1
:102530000020F6E72DE9F04104460D460CB9BDE850
:10254000F0812046FFF777FFA8420FD129462046A9
:10255000FFF789FF6060606810B90020A0602FE07D
:1025600000222046616826F091FB29E02046FFF713
:1025700087FFA8420FD129462046FFF77BFFA060C6
:10258000A06810B9002060601AE000222046A1680F
:1025900026F06EFB14E029462046FFF76BFF064647
:1025A00029462046FFF75FFF07463A463146204658
:1025B00026F05EFB32463946204626F067FB00BF18
:1025C00000BFBCE710B504462068806818B12068D9
:1025D0002146826890472068006828B1206800681A
:1025E00020602046FFF7EEFF10BD0146886818B155
:1025F0008868B0F9160070470020FCE7014688683B
:1026000018B18868807E800970470020FCE72DE9BA
:10261000F04104460D4616461DB916B90120BDE825
:10262000F08120461CF000FAA068008A284400B21D
:10263000A1680882A068408A304401B2A068418243
:1026400001233246294620461FF0E8FC00220B21D8
:10265000204617F005FC0746012F01D03846DEE77B
:1026600020461FF003FC0120D9E7F7B582B00446ED
:102670000E4614B9049805B0F0BD00BF6122314682
:1026800020461EF027FD0190019D00BFBDB12868C6
:10269000A8B100BF6222314620461EF01BFD01900A
:1026A0000198C0B207464FB13A462B6828460499B4
:1026B00098470190BDF80400ADF8100000BF0498E1
:1026C000D9E700002DE9F04F97B004468B469146BC
:1026D0009A46209D608C20F00400001D6084A4F8C0
:1026E00020902A89594620461EF0F4FC1690A4F842
:1026F00020A02A89594620461EF0ECFC1590608CDB
:1027000020F004006084DDE9151088420CD1DDE979
:102710001510884208D1BDF85800BDF85410884201
:1027200002D117B0BDE8F08FA4F820902A8959464D
:1027300020461EF0CFFC1690A4F820A05946204653
:102740000EF040FA14902989149A1068169A23F012
:102750001FFB28890B2833D147F6FF711698884252
:1027600002D0159888422BD120461EF0A2FF00907F
:1027700000EBD070471020461DF0B2F9009000EB3E
:10278000D0704FEA600847F6FF711698884208D16A
:10279000781C08F10101884200DA01E008F101002B
:1027A000169047F6FF711598884208D1781C08F1F9
:1027B0000101884200DA01E008F10100159000BF34
:1027C0002148FFF76BFE064600BF1EB900BF00BFE1
:1027D00000BFFEE700BF06B9A3E71698F0601598A2
:1027E000306134602889B080C6F808B001A80FF0C5
:1027F00095FD314601A80FF050FE144901A80FF0D5
:1028000015FE1348039000BF124901A80FF01CFEEB
:10281000FF22002101A80FF02EFE298801A80FF049
:102820001CFE698801A80FF0FAFDE868089000BF57
:1028300001A9002081F8420000BF2869079001A883
:102840000FF042FE00BF6CE76C040020A5DF020819
:1028500049E2020879E1020810B514210148FFF7A6
:1028600015FE10BD6C0400202DE9FE4F04460F46F6
:1028700090464FF0000900254CE1E06800EBC500F0
:102880004068C0F3406000B143E1E16801EBC5017D
:10289000496821F07F4021F035F8064626EA070016
:1028A00008B9012000E00020029026EA080008B9DB
:1028B000012000E000200190DDE90101814270D09B
:1028C000E06850F835A04FF0000B6A4610215046E2
:1028D00022F03AFE10B14FF0010B98E06A46112148
:1028E000504622F031FE10B14FF0010B8FE06A46E6
:1028F0001221504622F028FE10B14FF0010B86E065
:102900006A461321504622F01FFE10B14FF0010B12
:102910007DE06A461521504622F016FE10B14FF0B8
:10292000010B74E06A461421504622F00DFE10B1EE
:102930004FF0010B6BE06A460A21504622F004FE7C
:1029400010B14FF0010B62E06A466A21504622F056
:10295000FBFD10B14FF0010B59E06A466B21504668
:1029600022F0F2FD10B14FF0010B50E06A46012158
:10297000504622F0E9FD10B14FF0010B47E06A46E6
:102980000421504622F0E0FD10B14FF0010B3EE073
:102990006A460221504622F0D7FD18B14FF0010BD4
:1029A00035E0B5E06A460321504622F0CDFD10B176
:1029B0004FF0010B2BE06A460521504622F0C4FD82
:1029C00010B14FF0010B22E06A460621504622F07A
:1029D000BBFD10B14FF0010B19E06A4632215046A1
:1029E00022F0B2FD10B14FF0010B10E06A466D21EC
:1029F000504622F0A9FD10B14FF0010B07E06A46E6
:102A00006C21504622F0A0FD08B14FF0010BBBF144
:102A1000000F02D00320BDE8FE8F6A4668215046B1
:102A200022F092FD10B14FF0020970E06A46692170
:102A3000504622F089FD10B14FF0020967E06A4666
:102A40006D21504622F080FD10B14FF002095EE08A
:102A50006A466C21504622F077FD10B14FF0020912
:102A600055E06A463721504622F06EFD10B14FF016
:102A700002094CE06A463821504622F065FD10B14B
:102A80004FF0020943E06A463521504622F05CFDD2
:102A900010B14FF002093AE06A464021504622F058
:102AA00053FD10B14FF0020931E06A46452150460E
:102AB00022F04AFD10B14FF0020928E06A46412198
:102AC000504622F041FD10B14FF002091FE06A4666
:102AD0004221504622F038FD10B14FF0020916E0B5
:102AE0006A464321504622F02FFD10B14FF00209F3
:102AF0000DE06A464921504622F026FD10B14FF004
:102B0000020904E0B9F1000F01D14FF0010900BF43
:102B100000BF6D1C608CC0F3C500A8423FF6ADAE8F
:102B2000484678E7014800687047000060000020D0
:102B300070470146C1F30412072A00DD0722D0B214
:102B40007047000001464FF6FF70814201D11F20FF
:102B5000704709B90020FBE7702902DA0948405C98
:102B6000F6E7A1F1700081B20748006838B1074864
:102B70000068814203D204480068405CE8E7002016
:102B8000E6E7000026500308C8000020DC00002013
:102B900010B518210348FFF779FC012024F0D2FC7E
:102BA00010BD0000180400202DE9F04105460F4635
:102BB00016460DB9BDE8F0812846FDF70AFB8046B0
:102BC000394628460A4A126890470746E8193146AE
:102BD000074A1268904706463C4603E0A019285C65
:102BE0002855641CA8EB0600A042F7D200BFE1E71D
:102BF0000C0100202DE9F04106460C4617461D4603
:102C000029463046084A126890472060206830B153
:102C1000296888190021044A1268904700E00020C2
:102C20003860BDE8F0810000040100202DE9F04F7C
:102C300087B004460F4692469846DDE910560DB11E
:102C4000002028801CB9002007B0BDE8F08F207854
:102C500008B90020F8E70FB90020F5E74FF00009A8
:102C600006F0020010B906F0040098B1002000E060
:102C7000401C215C0A2905D0215C0D2902D0215C71
:102C80000029F5D1215C01B1401C15B14FF0FF3195
:102C90002980D9E706F0020008B141F6FF7800204C
:102CA0000690059038E000200490059808B90120AE
:102CB00000E0002006A904AACDE90062CDE90210D7
:102CC0000599601843465246394624F0A3FE8346D0
:102CD0000498A8EB00000FFA80F8049848440FFA13
:102CE00080F9BBF1000F00D11CE005985844059015
:102CF00020780A2802D020780D2800D112E005980B
:102D0000205C0A2803D00598205C0D2803D1059883
:102D1000401C059006E000BF0598205C10B1B8F19A
:102D2000000FC0DC00BF059870B905A92046094A0C
:102D300012689047834635B100225946384617F04D
:102D400002FA0FFA80F900BF0DB1A5F800900598BE
:102D50007AE70000040100202DE9F0470646884686
:102D6000174606B10FB9BDE8F0873046FDF731FAD6
:102D700081463846FDF72DFA044604B9F3E704EB23
:102D8000090A414630460B4A12689047804655462C
:102D900003E0281B305C70556D1E08EB0400A84250
:102DA000F7D906EB0800224639461AF07FFD00BF2E
:102DB000D9E700000C010020024600200FA31B7879
:102DC0008B4211D113781BB90123137001200BE042
:102DD0001378012B02D10023137005E01378022B26
:102DE00002D10023137001201378012B04D1202974
:102DF00001D102231370012070470000230000005E
:102E000073B582B006460398019032460021084609
:102E1000019B25F01FF90546002001900024681C45
:102E20001AF0E2FC044600BF1CB900BF00BF00BF9F
:102E3000FEE700BF14B9002004B070BD002060554B
:102E40003246691C2046039B25F004F92046F3E72F
:102E50002DE9F04781460E4614461F46DDF820A0B6
:102E600035461BE0600800FB075529464846D04719
:102E7000B0F1000809DD04F0010080F00100C0EBB2
:102E80005404E8190546064608E0B8F1000F02DAD6
:102E90006408354602E02846BDE8F087002CE1D101
:102EA0000020F9E72DE9FF4F85B08346DDE9158A5B
:102EB000DDE91349DDE91775129E05F00200F8B946
:102EC0004FB105F0010030B1B9F1000F02D105F0AA
:102ED0000C0000B17F1E03E030222046641C3254F7
:102EE000544501D2202CF7D303E030222046641C45
:102EF000325405F0010018B1BC4201D2202CF4D3A9
:102F000005F01000B0B305F4806050B94CB15445E1
:102F100001D0BC4205D1641E1CB1B8F1100F00D124
:102F2000641EB8F1100F09D105F0200030B9202C33
:102F300004D278222046641C325415E0B8F1100FF8
:102F400009D105F0200030B1202C04D258222046AF
:102F5000641C325408E0B8F1020F05D1202C03D2D2
:102F600062222046641C3254202C03D23022204698
:102F7000641C3254202C16D2B9F1000F04D02D223B
:102F80002046641C32540EE005F0040020B12B22D0
:102F90002046641C325406E005F0080018B12022D7
:102FA0002046641C3254CDE90275CDE900645846D0
:102FB00006A90EC900F0A2F809B0BDE8F08F2DE90E
:102FC000FF4F8FB08046DDE91FABDDE91D96219DE7
:102FD0001C9C00270CB925F0100505F4806000B199
:102FE000E4B100BFB4FBF6F106FB1141C8B20A28F8
:102FF00002DA00F1300107E005F0200109B14121BA
:1030000000E0612101440A39CBB239467F1C07AA8E
:103010005354B4FBF6F40CB1202FE3D307A8CDE949
:1030200004AB8DE8810203960695404610A90EC9AF
:10303000FFF738FF13B0BDE8F08F2DE9FF4F8FB0D9
:10304000DDE9217BDDF89080209EDDE91C454FF015
:103050000009002184EA01006940084301D128F0F9
:10306000100808F4806028B1002184EA010069405A
:1030700008432DD000BF32463B4620462946FDF787
:1030800053F802F0FF0ABAF10A0F02DA0AF130002F
:1030900007E008F0200008B1412000E06120504422
:1030A0000A38C2B2484609F1010907A90A54324652
:1030B0003B4620462946FDF737F804460D460021D9
:1030C00084EA01006940084302D0B9F1200FD2D34D
:1030D0002398CDE9036BCDE9050807A91E98CDE932
:1030E000001902900FA80FC8FFF7DCFE13B0BDE86F
:1030F000F08F9A4200D28854704770472DE9FF5FE5
:1031000005461446DDE90EA6DDE91087A34607F063
:10311000020078B907F0010060B9B14607E0224625
:10312000641C2020039B0199A84709F10109C145AE
:10313000F5D300BF08E02246641C711E0E461AF843
:103140000100039B0199A847002EF4D107F002006B
:1031500050B105E02246641C2020039B0199A8473A
:10316000A4EB0B004045F5D3204604B0BDE8F09F2A
:103170002DE9FF4F8DB09B460F460446002606E022
:1031800025280BD05A460F999047641C761C20784E
:103190000028F5D111B03046BDE8F08F0025A846D3
:1031A0000122984900E0054314F8013F203B02FA50
:1031B00003F00842F7D120782E2817D114F8010F18
:1031C00045F004052A280ED06FF02F022078A0F1D8
:1031D000300109290AD808EB880102EB410100EB14
:1031E0000108641CF2E757F8048B641C20786C28F3
:1031F0000DD004DC4C2812D06A2811D104E07428C8
:103200000DD07A280CD10AE045F4001507E061786A
:1032100045F48015814202D1641C05F58015641CBB
:103220002078692844D008DC0028B3D0582867D01B
:1032300063280FD0642808D13AE0702865D073283D
:1032400012D075285AD078285AD05A460F999047EC
:10325000761CD5E017F8040B8DF8000000208DF8DF
:103260000100E946012003E057F8049B4FF0FF30CE
:1032700069074FF0000501D40AE06D1C45450DDAE1
:103280008542FADB19F805100029F6D106E06D1C1D
:103290008542FCDB19F805100029F8D12E4404E022
:1032A00019F8010B5A460F9990476D1EF8D2A7E006
:1032B0000A200021CDE90801C5F3025002280CD0F4
:1032C00001CFC117021E71F100020CDA0023D0EB0E
:1032D000030063EB01012D2208E0FF1D27F0070723
:1032E000F7E80201EEE72A0504D52B228DF8282005
:1032F00001223CE0EA073AD02022F7E70A2000E06A
:1033000010200021CDE9080107E01020002145F040
:103310000405CDE908014FF00808C5F30250022862
:1033200010D001CF00214FF0000A2A0720D52278C3
:10333000702A0DD0DDE908C38CF0100C5CEA030C98
:103340000CD015E0FF1D27F00707F7E80201EAE7B8
:1033500040228DF828204FF0010A0CE050EA0103CA
:1033600006D030238DF828308DF82920022292468D
:103370002278582A04D024A20DF120090B9209E0EA
:1033800026A2F9E7DDE90823FCF7CEFE0B9B9B5C48
:1033900009F8013D50EA0102F4D1ADEB09002030FB
:1033A0000890680701D44FF001080899884503DDAB
:1033B0000898A8EB000000E000208046002506E009
:1033C0000AA85A46405D0F9990476D1C761C5545DA
:1033D000F6DB04E030205A460F999047761CB8F18E
:1033E0000001A8F10108F5DC05E019F8010B5A46C7
:1033F0000F999047761C0899481E08900029F4DC24
:10340000641CC4E6092801003031323334353637C4
:103410003839616263646566000000003031323320
:1034200034353637383941424344454600000000C0
:103430002DE9FF4F8BB0074600250C9800B9FA4FD5
:10344000EAE20E98007825280AD02A466D1C0E99CB
:103450000878DDE90C13B8470E98401C0E90DBE2AB
:103460000E98401C0E90002400BF0E9800782B2868
:1034700019D004DC20281ED023282CD123E02D28AD
:1034800009D0302827D144F001040E98401C0E903A
:1034900001200A9022E044F002040E98401C0E9095
:1034A00001200A901AE044F004040E98401C0E908B
:1034B00001200A9012E044F008040E98401C0E907F
:1034C00001200A900AE044F010040E98401C0E906F
:1034D00001200A9002E000200A9000BF00BF0A9875
:1034E0000028C2D180460E990878FEF77BFA20B1F9
:1034F0000EA8FEF762FA804612E00E9800782A289D
:103500000ED1189901C91891002804DA44F0020478
:10351000C0F1000800E080460E99491C0E9100BFE2
:103520004FF000090E9800782E281FD144F48064D3
:103530000E98401C0E900E990878FEF753FA20B1B1
:103540000EA8FEF73AFA814610E00E9800782A2875
:103550000CD1189901C91891002801DD014600E03D
:10356000002189460E99491C0E9100BF0E980078E3
:103570006C280AD004DC682816D06A2835D128E0E7
:10358000742820D07A2830D129E044F480740E9831
:10359000401C0E900E9800786C2804D144F40074FE
:1035A0000E98401C0E9021E044F080040E98401CC0
:1035B0000E900E980078682804D144F040040E98CC
:1035C000401C0E9012E044F480740E98401C0E9043
:1035D0000CE044F400740E98401C0E9006E044F495
:1035E00080740E98401C0E9000E000BF00BF0E9843
:1035F000007869281DD00EDC622821D006DC252841
:103600007ED050281AD058287BD115E0632879D075
:103610006428F9D10CE0732875D004DC6F280ED033
:103620007028F1D109E0752804D07828ECD102E0A7
:1036300000BF00BF00BF00BF00BF00BF00BF00BF92
:103640000E980078782803D00E980078582801D179
:10365000102623E00E980078702803D00E9800788A
:1036600050280CD1102644F0100444F480740E98B5
:103670004078562812D10E98401C0E900EE00E98FD
:1036800000786F2801D1082608E00E98007862289B
:1036900001D1022602E00A2624F010040E980078D8
:1036A000582803D00E980078502801D144F0200407
:1036B0000E980078692805D00E980078642801D00B
:1036C00024F00C0404F4806008B124F001040E9886
:1036D0000078692803D00E98007864287CD104F41F
:1036E0000070B8B31898C01D20F007001890D0E9FA
:1036F00000AB189A083218920020CDE9069803E032
:1037000073E17CE1F2E01CE1CDE904600894BAEBDE
:1037100000017BEB000001DA012000E00020002125
:1037200002900846B1EB0A0170EB0B0002DA50463A
:10373000594605E000200146B0EB0A0061EB0B01A1
:10374000CDE900012A463846DDE90C13FFF775FC88
:103750000546C7E0FFE704F48070D0B1189850F830
:1037600004AB18904FEADA70CDE9039802960594FD
:10377000BAF1000F01DD514601E0CAF10001CDE9C7
:1037800000102A463846DDE90C13FFF718FC054601
:10379000A8E004F0400028B1189810F8041B189015
:1037A000C8B20DE004F0800028B1189830F8041B6E
:1037B000189008B204E0189800681899091D18912B
:1037C00082464FEADA70CDE9039802960594BAF181
:1037D000000F02DD514602E00BE0CAF10001CDE925
:1037E00000102A463846DDE90C13FFF7E8FB0546D2
:1037F00078E00E980078562818D1189850F804AB45
:103800001890DAF804000068099009980090DAF836
:1038100000300D98421B0C9841193846FFF708FEFE
:103820000544002009905DE0FB30000804F40070BE
:10383000D0B11898C01D20F00700CDE90698089473
:1038400018900020CDE904600290189903C9189AD5
:1038500008321892CDE900012A463846DDE90C13FA
:10386000FFF7EBFB05463DE004F4807098B10022C1
:10387000CDE9039802960594189800681899091DD7
:10388000CDE9000218912A463846DDE90C13FFF70E
:1038900096FB054626E004F0400028B1189810F881
:1038A000041B1890C8B20DE004F0800028B11898ED
:1038B00030F8041B189088B204E018980068189932
:1038C000091D189182460020CDE900A0CDE903989A
:1038D000029605942A463846DDE90C13FFF76FFB84
:1038E000054600BF0E98401C0E9093E0012604F0A0
:1038F000020050B905E02A466D1C2020DDE90C13BA
:10390000B8473046761C4045F5D3189911F8043B6A
:10391000D8B22A466D1C1891DDE90C13B84704F0A3
:10392000020050B105E02A466D1C2020DDE90C1391
:10393000B8473046761C4045F5D30E98401C0E9093
:1039400068E0189850F804AB18905046B9F1000F91
:1039500001D0494601E04FF0FF310A46014600E040
:10396000491C0B781BB1131EA2F10102F8D10E1AEB
:1039700004F4806028B14E4501D2304600E048464C
:10398000064604F0020050B905E02A466D1C2020CE
:10399000DDE90C13B8473046761C4045F5D306E008
:1039A0001AF8010B2A466D1CDDE90C13B8479AF88A
:1039B000000040B104F480600028F1D0B9F10000AB
:1039C000A9F10109ECD104F0020050B105E02A464A
:1039D0006D1C2020DDE90C13B8473046761C4045AD
:1039E000F5D30E98401C0E9014E02A466D1C25203D
:1039F000DDE90C13B8470E98401C0E900AE02A46E9
:103A00006D1C0E990878DDE90C13B8470E98401C20
:103A10000E9000BF00BF00BF0E98007800287FF412
:103A200010AD0D98854201D2284601E00D98401E48
:103A300002460020DDE90C13B84728460FB0BDE868
:103A4000F08F2DE9FF4F84B088469146DDF858C0CD
:103A500011990391129902910020CDE0DDF84CA05C
:103A60000AFB00FADDF80CB00BEB2A2ACDF844A0D3
:103A7000DDF850A00AFB00FADDF808B00BEB2A2AAB
:103A8000CDF848A0DDF844A04FEA2A21DDF848A08F
:103A90004FEA2A22002905DB414503DA002A01DB2F
:103AA0004A4504DB4FF0000A0CF800A0A2E0DDF864
:103AB00044A00AF0FF03DDF848A00AF0FF04802BC1
:103AC00006DA4FF0FF35C3F17F0A4FEA4A0304E0FC
:103AD0000125A3F1800A4FEA4A03802C06DA4FF051
:103AE000FF36C4F17F0A4FEA4A0404E00126A4F13C
:103AF000800A4FEA4A04049FDDF81CA002FB0A1A60
:103B0000574401EB050ABAF1000F46DB01EB050B48
:103B1000A8F1010AD34540DC02EB060ABAF1000F16
:103B20003BDB02EB060BA9F1010AD34535DC97F824
:103B300000A017F805B0CDF804B0DDF81CB006FB06
:103B40000BFB17F80BB0CDF800B0DDF804B0D3458F
:103B50000BD0DDF804B00BFB04FBC4F5807E0AFB40
:103B60000EBBCBF3072BCDF804B0DDF800B0D34586
:103B70000BD0DDF800B00BFB03FBC3F5807E0AFB26
:103B80000EBBCBF3072BCDF800B0DDE900EBF3441F
:103B90004FEA6B0B0CF800B02BE009B9002D05DBE8
:103BA000A8F1010A8A450CD1002D0ADD97F800A082
:103BB000C3F1FF0B0AFB0BFACAF3072A0CF800A0AB
:103BC00017E00AB9002E05DBA9F1010A92450CD1D4
:103BD000002E0ADD97F800A0C4F1FF0B0AFB0BFAD8
:103BE000CAF3072A0CF800A003E04FF0000A0CF813
:103BF00000A000BF411C08B215998842FFF62EAF05
:103C000008B0BDE8F08F2DE9F04104460E460027CC
:103C100074B13146204600F02DF80546B5F5004F49
:103C200005D20C2D01D9284600E00C20074600BF24
:103C30003846BDE8F081024600BF481E084018B172
:103C400000BF00BF00BFFEE700BF481E1040101AB3
:103C5000704710B502464B1E13444C1E23EA040065
:103C600000BF4B1E0B401BB100BF00BF00BFFEE7F3
:103C700000BF10BD024600BF481E084018B100BF7B
:103C800000BF00BFFEE700BF481E10444B1E984314
:103C9000704700002DE9F04780460E46444601205B
:103CA0006086002500270DE056F8270028A1FCF7C4
:103CB00097FA10B1681C85B202E0608E401C6086E5
:103CC000781C87B256F8270020B156F827000078F4
:103CD0000028E9D1208EA84201D1BDE8F087A06A72
:103CE00020B1A06A16F054FA0020A062E06A20B168
:103CF000E06A16F04DFA0020E062E80019F074FD69
:103D0000A06200BFA06A18B900BF00BF00BFFEE7F5
:103D100000BF680019F068FDE06200BFE06A18B9F2
:103D200000BF00BF00BFFEE700BFA06A08B1E06AA5
:103D300000B900254FEA450AD4F82C9052460021DC
:103D4000484619F0FCFE00BF258600BFC5E700000D
:103D50000A0000002DE9F84F81460E46924699F878
:103D6000090000F00700022801D1304600E050466B
:103D70008346564501DD304600E0504607460320A5
:103D800000EB470020F0030000F1100539480068FF
:103D900039490968A0EB0108002405EB0800374900
:103DA0000968884206D233480468606820F0004001
:103DB00060603AE031480068854221D813E04FF056
:103DC000FF300090002269462D480DF061FE002270
:103DD00069462C480DF05CFE2648006826490968B3
:103DE000A0EB010800BF08EB0500244909688842E0
:103DF000E5D820480468606820F00040606014E066
:103E0000284619F0F1FC044600BF1CB900BF00BFF2
:103E100000BFFEE700BF14B90020BDE8F88F60685E
:103E200020F0004000F100406060324659464846AC
:103E300002F0FFF82060606800F04040401C6060C5
:103E4000606820F080406060A781A4F80EB06068D0
:103E5000C00F20B1204600F11001A16008E0054824
:103E600000681030A06003480068284401490860D9
:103E70002046D2E77C000020C4000020780000200B
:103E80008FF10008111B0108F0B585B006460D46FC
:103E90003446002004900390029065480088A842B0
:103EA00002D0FF20634908706148058094F83C0007
:103EB00000F0030020B1012838D0022866D000BFEE
:103EC00094F83C0000F003005A49097888421BD05E
:103ED0002620005D00EB001000EB4000142190FB59
:103EE000F1F0554908702720005D00EB001000EB51
:103EF0004000142190FBF1F05049087094F83C0008
:103F000000F003004B49087002A803A9CDE9001096
:103F100005EB45014FF6FF7202EA410004AB474949
:103F20000A78454909780AF0C2FD5FE094F83C0040
:103F300000F003003F49097888421AD0A08C00EBBA
:103F4000400040024FF4B471B0FBF1F03C490880EE
:103F50002720005D00EB001000EB4000142190FBD7
:103F6000F1F03649087094F83C0000F00300314944
:103F7000087002A803A9CDE90010E9B204AB2F48EC
:103F800002782F4800880AF092FD2FE094F83C0058
:103F900000F003002749097888421AD0A08C00EB72
:103FA000400040024FF4B471B0FBF1F024490880A6
:103FB0002620005D00EB001000EB4000142190FB78
:103FC000F1F01D49087094F83C0000F00300194915
:103FD000087002A803A9EAB204ABCDE900101648A4
:103FE0000178174800880AF062FD00BF00BF9DF805
:103FF00010009DF80C109DF80820D708BDF800307F
:1040000067F304038F080093BDF8003067F34A1389
:10401000C7080093BDF8003067F3CF230093BDF8C5
:1040200000703B460193BDF80410084605B0F0BD92
:10403000900100208E0100208C0100208D010020C5
:104040008A01002010B50120074908700748FEF7D3
:10405000F2F920B90648006823F050FB03E0044859
:10406000006823F057FB10BDA0000020480400208A
:10407000A400002010B5044694F8480000F00100A8
:1040800070B9B4F8400000280ADDB4F840004FF6DB
:10409000FF71884204D0B4F84000401EA4F84000EC
:1040A000B4F84000D0B9A06B20B194F8480000F0FB
:1040B000010098B121461948FEF73CFAFFF7C2FF0C
:1040C000E06810B12046E1688847206910B12046B9
:1040D00021698847204616F05BF81EE0E06B4042FD
:1040E0002063A06BC8B194F8481001F0010111B928
:1040F000616B4942216394F84810C94394F8482001
:1041000061F3000284F84820206AA16A2162A0625B
:10411000E06AA16BE162A06300BF10BD480400200B
:104120002DE9F04180464148007880F001003F4988
:1041300008703F48FEF77FF9044673E0606C23F097
:104140003FF9064623F04AF96064002039490870B7
:1041500094F84800C0F3400034490978884253D0AD
:10416000324801783034207E61F3410020762068A7
:104170008719207E303CC0F3800010BB206B0028E4
:104180001FDC002F1DDB94F8420000F0010060B935
:10419000606950B12046616988470546206A284415
:1041A0002062A06A2844A06200BFA06810B1204627
:1041B000A168884794F8480020F00400001D84F8A6
:1041C0004800206B30442063206B00281BDBD4E9BF
:1041D0000B10884201DDE06A20632046E1698847D0
:1041E0000546606AA84206D06562606818B1294633
:1041F000D4E900029047D4E90B10884202DB204644
:10420000FFF738FF00BF00BF0A48007820B1084818
:10421000FEF711F9044604E021460548FEF723F9AC
:10422000044600BF002C89D1BDE8F081A100002028
:1042300048040020A000002070B504460D466068C8
:1042400018B129466068FFF7F7FF206818B12946C2
:1042500020462268904770BD70B505460C46A1B255
:1042600028460EF0C9FD70BD70B505460C46A1B2DA
:1042700028460EF012FE70BD2DE9FF4F8FB01F468D
:10428000DDF888801C980E901D980D9000200B90F2
:104290002398042806D0052809D006280CD0142815
:1042A0001AD114E000200C904FF0020917E0012011
:1042B0000C904FF0030912E001200C904FF002091E
:1042C000FEF730FC05462868808E0B9007E0012041
:1042D0000C904FF0020902E013B0BDE8F08F00BF70
:1042E000002489E11E9860430E9901EB20201C9068
:1042F0001F9860430D9901EB20201D901C9805121A
:104300001D980612002D07DB1098854204DA002E56
:1043100002DB1198864203DB002008F8040069E103
:104320001C98C0B20A901D9800F0FF0A0A988028D5
:1043300007DA4FF0FF3B0A98C0F17F0040000A9077
:1043400005E04FF0010B0A98803840000A90BAF15E
:10435000800F07DA4FF0FF300990CAF17F004FEA73
:10436000400A05E001200990AAF180004FEA400AC6
:104370000F98089006FB07F000FB09F005FB090108
:1043800008980844089005EB0B0000287EDB05EB3D
:104390000B011098401E814278DC099830440028B7
:1043A000F4DB099831181198401E8142F4DC08981A
:1043B000079008980BFB09000690099800FB07F18D
:1043C000089801FB090005900C9800287FD0239BDA
:1043D000052B06D1079B9878059B9978069B9A78C0
:1043E0003BE0239B142B18D1DDF844C007FB0CFCE9
:1043F000DDF83CE00EEB4C0306FB073C1CF8050027
:1044000006FB073CAC441CF80B20DDF824C0B44488
:104410000CFB073C1CF805101FE0239B062B19D151
:10442000079B1B88BDF82CC063450BD0059B1B88E0
:10443000BDF82CC0634505D0069B1B88BDF82CC079
:10444000634503D1002308F80430D3E0FF20FF21A7
:10445000FF2202E0FF20FF21FF22814207D001FB63
:104460000AF3CAF5807C00FB0C33C3F307218242B8
:1044700009D00A9B5343DDF828C0CCF5807C00FBB3
:104480000C33C3F307228B185B1000E059E008F8E7
:10449000043018F8043003B9ACE0079B93F800C06F
:1044A0005B780CEB03239BB20493059B93F800C04D
:1044B0005B780CEB03239BB20393069B93F800C03D
:1044C0005B780CEB03239BB202930CE0FFE70798A9
:1044D0000088049006980088029005980088039050
:1044E000FF2008F80400BDF81000BDF80C10884249
:1044F0000CD1BDF81000BDF80810884206D12198F3
:1045000000EB4400BDF81010018019E00AF0FF0232
:10451000DDE9030110F036FF03900A98C2B2049956
:10452000029810F02FFF02907F22DDE9020110F0C7
:1045300029FF0190219800EB4400BDF80410018090
:1045400057E008990A78497802EB01218AB221994B
:1045500021F814202399052904D0062905D014290F
:1045600019D10EE00899887817E0219931F81410D4
:10457000BDF82C20914201D1002100E0FF21084626
:104580000BE0119A07FB02F10F9A02EB410106FBC7
:104590000711485D01E0FF2000BF00BF15B9BBF166
:1045A000000F06DB1099491EA9420BD1BBF1000F89
:1045B00008DD0A99C1F1FF014143C1F3072108F861
:1045C000041015E016B90999002906DB1199491E56
:1045D000B1420AD10999002907DDCAF1FF0141431F
:1045E000C1F3072108F8041002E0002108F80410C4
:1045F00000BF00BF601C04B220988442FFF672AE78
:1046000000BF69E62DE9F84F04468C46904699466E
:10461000109FDDE90A56AA460096002032E00C9968
:1046200041430AEB21250D994143DDF800B00BEB26
:1046300021262A123312002A05DB624503DA002BF9
:1046400001DB434502DB0021395419E0214603FB1D
:1046500009FB0BEB4B0B02EB420EF344594491F870
:1046600000B091F801E00BEB0E2B1FFA8BFEDDF88A
:104670003CB02BF810E091F802B007F800B000BF92
:10468000411C08B20E998842C9DBBDE8F88F0000D2
:1046900030B593B004462546A88F18B9204624F0BB
:1046A000D1FC1EE068460DF039FE294668460DF043
:1046B000F8FE0D4968460DF0BFFEA98F68460DF063
:1046C000D0FE0122002168460DF0E1FE0749684650
:1046D0000DF0B6FE0648039000BF68460DF0F4FEEC
:1046E00000BF13B030BD0000CD90020807240108C0
:1046F000CF90020870B504460D4600BF204600F07A
:104700003BF818B100BF00BF00BFFEE700BF28465E
:1047100000F050F9001D616808446060204600F018
:104720003AF8204670BD70B505460C46284600F0A4
:1047300041F904F11001884201D3012070BD00202D
:10474000FCE70146A1F1080070477CB505460C4620
:10475000204600F02FF906466A4601A924F0B7F872
:1047600021462846DDE900320CF0E9FC7CBD01461B
:10477000087900F00100704710B50446204600F0AB
:1047800019F908B9012010BD0020FCE7014608799D
:1047900000F00200704770B50446204600F097F81C
:1047A00005462C60284670BD7CB506460C460020A8
:1047B0000190009000256CB16A4601A9204624F0C2
:1047C000A3F80198092805DA6A4601A9304626F0BF
:1047D00030F8054685B100BF284600F0EBF8A0424E
:1047E00003D200BF00BF00BFFEE700BF294630462E
:1047F000DDE9003225F01AFC28467CBD70B5044680
:104800002046FFF7C8FF0546284600F0BEF82046C0
:1048100000F0B6F870BD70B50446204600F057F8B9
:104820000546284600F0B6F8204600F0BEF870BDF8
:1048300070B506460D46284600F049F8044600BF0C
:104840001CB900BF00BF00BFFEE700BF2046FFF756
:104850008EFF90B100BF2846FFF78EFF18B100BF52
:1048600000BF00BFFEE700BF2146304600F076F8EB
:1048700021462846FFF73EFF0546284670BD70B525
:1048800006460D462846FFF781FFF0B1284600F0A6
:1048900057F8044600BF1CB900BF00BF00BFFEE7C9
:1048A00000BF00BF2046FFF762FF18B900BF00BF7E
:1048B00000BFFEE700BF2146304600F04FF8294612
:1048C0002046FFF717FF054600BF284670BD2DE9BB
:1048D000F0410446204600F06DF8061F204600F027
:1048E000B8F80746314624F085FA054600BF204651
:1048F000FFF742FF18B100BF00BF00BFFEE700BFD7
:104900002846BDE8F0812DE9F04106460C461546E3
:10491000002794B100BF1DB900BF00BF00BFFEE774
:1049200000BF2A462146304600F097F82046FFF7A0
:1049300072FF204600F08DF807463846BDE8F0814A
:1049400010B5044600BF2046FFF720FF18B900BF8E
:1049500000BF00BFFEE700BF206810BD7CB5054664
:104960000C46204600F026F806466A4601A923F0C8
:10497000AEFF21462846DDE9003225F057FB7CBD1D
:10498000416841F0010141607047416841F0020116
:1049900041607047416821F0020141607047426800
:1049A00002F003030B4343607047416821F00101AB
:1049B000416070470146486820F0030070472DE9C8
:1049C000F04706460C46304600F043F88046211F6B
:1049D00024F010FA07463046FFF7ECFF211D451A78
:1049E00000BF384600F035F88146384600F031F80F
:1049F00080460421FFF72DF9814503D000BF00BF99
:104A000000BFFEE700BF00BF3046FFF7D3FF291904
:104A1000091D884203D000BF00BF00BFFEE700BFF2
:104A200029463846FFF7BBFF00BF3846FFF7C2FFF5
:104A30000C2803D200BF00BF00BFFEE700BF214625
:104A40003046FFF7ACFF3846FFF7D8FE3846BDE8E2
:104A5000F087014601F1080070472DE9F041064654
:104A60000C46154600BF2046FFF781FE18B900BF6F
:104A700000BF00BFFEE700BF29462046FFF753FEF8
:104A800078B129462046FFF79AFF07462046FFF7F0
:104A900082FE3846FFF779FF39463046FFF755FE6C
:104AA00000BFBDE8F0812DE9F04106460C461546F1
:104AB00000BF2046FFF75BFE18B100BF00BF00BF7C
:104AC000FEE700BF29462046FFF72DFE88B12946A4
:104AD0002046FFF774FF07463846FFF75BFF39466D
:104AE0003046FFF7A5FE074639463046FFF72DFE54
:104AF00000BFBDE8F0812DE9F8430646344617F0C3
:104B000037F88046404617F078F878BB304614F006
:104B1000BAFE38B3304614F033FD208FE18E884260
:104B200012D0E08E2087E08E00906A461C2130462D
:104B300015F096F90746012F02D03846BDE8F883F4
:104B400030461DF093F900BF404617F066F8054661
:104B5000042D06D130461AF0B9FF0746002115F0A2
:104B6000F7FF09E0304614F0F1FE05E0FFE7208F83
:104B7000E08630461DF07AF90120DFE72DE9F041AB
:104B80000446204615F065F9054628461AF0F8FF58
:104B9000064628460FF0E4F907460122394630461A
:104BA00021F00AFEBDE8F0810146C1F3C010704754
:104BB0000146C1F3801070470146C1F3C010704731
:104BC0000146C1F3002070470146C1F3C0007047A1
:104BD0000146C1F3401070470146C1F340207047C1
:104BE0000146C1F3003070470146C1F30010704721
:104BF0002DE9F04F89B004460D46002120461AF0F9
:104C000059FE30B91C21284619F05EF809B0BDE8FC
:104C1000F08F2946204600F00BFB2946204600F085
:104C20007DF8002120461CF069F8089000212046FC
:104C30001CF09CF90790002120461BF04BFE012838
:104C400000D100E000208146002120461CF004FC39
:104C50000746002120461BF00DFF064642F2D170A8
:104C6000874205D1608CC0F3802008B9012000E0A4
:104C70000020824620461AF0BDFE069000BF4FF08D
:104C8000000824480288414620461CF023FA03907D
:104C90000398C0B200BF8346AA6829692868CDE995
:104CA0000209CDE900125A465146089B06980CF0BD
:104CB0001FF8288342F2D170864205D1608CC0F380
:104CC000402008B9012000E00020059020461AF09D
:104CD00072FE049000BF4FF000080F480288414662
:104CE00020461CF0F7F903900398C0B200BF83463A
:104CF0000023EA6869686869CDE90213CDE900021A
:104D00005A46079BDDE904010BF0F2FF688300BF00
:104D10007CE70000FE010020020200202DE9F34F95
:104D200087B00C4607980BF007F8804607981AF0F2
:104D300061FE0690404601F01BFB2061216948009E
:104D400018F052FD20602169480018F04DFDA06068
:104D5000002548E05848029038F9150041F69A714C
:104D600088423FD10020019029E0019907981AF06C
:104D7000A1FD0090514900981CF003FD00B11BE01B
:104D800000980AF0F7FF8246BAF1010F00D013E055
:104D900000980AF0DFFF8346AB4500D00CE0009896
:104DA0001CF087FC0299884201DA029802E0009820
:104DB0001CF07FFC029000BF0198401C01900798F6
:104DC0001AF096FD01998842CFD80298002804DB9A
:104DD0000298A16821F8150003E00021A06820F8DE
:104DE000151000BF6D1C2069A842B3D80026B1463B
:104DF00000251BE038F9150041F69B71884202DB63
:104E0000411A0E4411E041F69A71884206D1A16818
:104E100031F8151049440FFA81F906E0A16821F82C
:104E2000150009EB00010FFA81F96D1C2069A842F9
:104E3000E0D8002107981BF061FF05902169491E09
:104E4000DDE9050200FB112000B206900698A0EBF8
:104E5000090007B2002F00DA00274FF0FF3004905E
:104E600000200390002513E038F9150041F69B71EE
:104E700088420CDB421A11B207FB01F2B2FBF6F2D8
:104E800012B2A36823F815200495039100BF6D1C8E
:104E90002069A842E8D8049800280ADB0398301A51
:104EA0007843B0FBF6F0381A01B2A268049822F8F1
:104EB000101009B0BDE8F08F01E0FFFF010006000F
:104EC0002DE9FC5F05460022114628461EF04AF9EE
:104ED000002128461BF04EFD8146002128461CF08B
:104EE0005DF8484407B2002128461BF05FFE4844A5
:104EF0000FFA80FA28461BF037FC384450440FFA6A
:104F000080FB3B4E28461AF0F3FC01904FF000085E
:104F10005CE0A868006850F82840364920461CF03C
:104F200030FC00B150E020461DF018F8002839D1BF
:104F3000002120461BF049FC0090009830B1012868
:104F400007D0022804D0032815D100E000BF00BF1D
:104F500000BFB4F91A10B5F91600081A401CB04287
:104F600001DA304605E0B4F91A10B5F91600081A4E
:104F7000401C06B214E0002120461CF091FA70B9E2
:104F800004F114000EF065F83844B04201DA3046FE
:104F900004E004F114000EF05CF8384406B200BFDF
:104FA00000BF10E0B4F91A10B5F91600081A401C39
:104FB000B04201DA304605E0B4F91A10B5F916002E
:104FC000081A401C06B200BF08F10108019880458C
:104FD0009FD30748864209D006EB0A0006B25E4519
:104FE00002DD3046BDE8FC9F5846FBE75846F9E72E
:104FF00001E0FFFF010004002DE9FC5F05460022EF
:10500000114628461EF092F8002128461BF0B2FCFB
:105010008246002128461BF019FF50440FFA80F801
:10502000002128461BF082FE50440FFA80F92846E2
:105030001BF0AAFB4844404400B20190724C284641
:105040001AF056FC8346002128461BF007FC012875
:1050500066D100265BE0A868006850F826706B49AE
:1050600038461CF08EFB00B150E038461CF076FF4D
:10507000002839D1002138461BF0A7FB009000988A
:1050800030B1032805D0062804D0082815D102E045
:1050900000BF00BF00BFB5F91800B7F91410401ADF
:1050A000401CA04201DA204605E0B5F91800B7F926
:1050B0001410401A401C04B214E0002138461CF0C1
:1050C000E3F970B907F114000EF02FF84044A04244
:1050D00001DA204604E007F114000EF026F84044FF
:1050E00004B200BF00BF10E0B5F91800B7F9141002
:1050F000401A401CA04201DA204605E0B5F918002C
:10510000B7F91410401A401C04B200BF761C5E456B
:10511000A1D33D48844269D004EB090004B265E0A4
:1051200000265BE0A868006850F8267037493846CA
:105130001CF027FB00B150E038461CF00FFF80BB8D
:10514000002138461BF041FB0090009830B1012847
:1051500005D0042804D0072815D102E000BF00BF05
:1051600000BFB7F91800B5F91410401A401CA0424E
:1051700001DA204605E0B7F91800B5F91410401A15
:10518000401C04B215E0002138461CF089F978B9BA
:1051900007F114000DF0C9FF4844A04202DA20468E
:1051A00005E008E007F114000DF0BFFF484404B229
:1051B00000BF00BF10E0B7F91800B5F91410401A8D
:1051C000401CA04201DA204605E0B7F91800B5F905
:1051D0001410401A401C04B200BF761C5E45A1D3D7
:1051E0000948844202D004EB080004B20648844215
:1051F00002D10198BDE8FC9F0198844201DD204660
:10520000F8E70198F6E7000001E0FFFF0100040065
:1052100010B50446206814F0BBFF606814F0B8FFB6
:10522000A06814F0B5FFE06814F0B2FF10BD0000F4
:105230002DE9F34F87B00C4607980BF063FB8046CF
:10524000404601F095F860616169480018F0CCFAB9
:1052500060606169480018F0C7FAE060002547E027
:105260005948029038F9150041F69A7188423ED1AA
:105270004FF0000A29E0514607981AF01BFB0190F5
:10528000524901981CF07DFA00B11CE001980BF026
:10529000F9FB8346BBF1010F00D014E001980BF03D
:1052A000E1FB00900098A84200D00CE001981AF0B1
:1052B00017FC0299884201DA029802E001981AF07C
:1052C0000FFC029000BF0AF1010A07981AF010FBC8
:1052D0005045D0D80298002804DB0298E16821F8F4
:1052E000150003E00020E16821F8150000BF6D1CE7
:1052F0006069A842B4D80026B14600251BE038F901
:10530000150041F69B71884202DB411A0E4411E000
:1053100041F69A71884206D1E16831F81510494486
:105320000FFA81F906E0E16821F8150009EB0001A8
:105330000FFA81F96D1C6069A842E0D80021079836
:105340001BF014FE069007981AF035FB01466269BF
:10535000521E069800FB121000B205900598A0EBB3
:10536000090007B2002F00DA00274FF0FF30049049
:1053700000200390002513E038F9150041F69B71D9
:1053800088420CDB421A11B207FB01F2B2FBF6F2C3
:1053900012B2E36823F815200495039100BF6D1C39
:1053A0006069A842E8D8049800280ADB0398301AFC
:1053B0007843B0FBF6F0381A01B2E268049822F89C
:1053C000101009B0BDE8F08F01E0FFFF01000600FA
:1053D00038B5044600256D22294620461BF07AFE8A
:1053E0000090009800B208B1022038BD00256C2260
:1053F000294620461BF06EFE0090009800B2B0F5E2
:10540000807F01D00220F0E7002120461BF092FBB4
:10541000FF2801D00120E8E7002567222946204621
:105420001BF058FE00900098C0B208B10120DCE7E4
:105430000020DAE72DE9F84F04460D4616461F46D0
:10544000DDF828A0DDF83080022D19D1CDF80080DC
:105450005246394630460B9B22F004FC81460D989B
:105460000DF0C5FE009000EBD0704010CB4609EB6C
:10547000DB71A0EB61002188084400B2208014E0B9
:10548000032D12D1CDF800805246394630460B9B91
:1054900022F0E8FB81460D980DF0A9FEA0EB090073
:1054A0002188084400B2208000BFBDE8F88F7CB599
:1054B00004460D46164628882189084400B2ADF8F6
:1054C000000068886189084400B2ADF80200A8882D
:1054D0002189084400B2ADF80400E88861890844D5
:1054E00000B2ADF80600A06BC06B10B1A06BC16B31
:1054F0008847324669462046636998477CBD00006C
:10550000F8B505460E462C46A06B58B1284621F04A
:105510003FFD0746114909688847A16B884201D3BE
:105520000020F8BD606B10B1606B007808B90120F5
:10553000F7E7002000900AE06946094A606B1268AC
:1055400090470746B74201D10120EAE700BF606BF0
:105550000099405C0028EFD100BFE2E71401002071
:10556000040100202DE9FF4F8FB00F46209DF878F1
:1055700000F0010008B1FD4800E0FD480E90F87809
:1055800000F0010008B1FB4800E0FB480D90F878FE
:1055900000F0010008B9F74800E0F7480C9001203E
:1055A0000B90BEE000210B9100206988B5F804C083
:1055B000A1EB0C010AB200261AE006EB860CE968A2
:1055C00001EB8C01097C01F0010141B906EB860C6D
:1055D000E96801EB8C018989014408B207E006EB18
:1055E000860CE96801EB8C010989511A0AB2761C14
:1055F0002969B142E1D800268EE006EB860CE96805
:1056000001EB8C01097C01F0010100297DD100BF73
:1056100018B900BF00BF00BFFEE700BF92FBF0F863
:105620000FFA88F306EB8609D5F80C8008EB890899
:10563000B8F80C8008FB03F80FFA88F106EB86092E
:10564000D5F80C8008EB8908B8F9049006EB860AB7
:10565000D5F80C8008EB8A08B8F90680884501DD8A
:10566000884607E006EB860AD5F80C8008EB8A0826
:10567000B8F90680C14508DD06EB8609D5F80C802F
:1056800008EB8908B8F9048013E006EB8609D5F821
:105690000C8008EB8908B8F90680884501DD88464A
:1056A00007E006EB8609D5F80C8008EB8908B8F905
:1056B0000680C4468C450BD04FF0010806EB860AE5
:1056C000D5F80C9009EB8A09C9F81080CDF82C8028
:1056D00006EB8609D5F80C8008EB8908A8F808C005
:1056E00006EB8609D5F80C8008EB8908B8F80C8021
:1056F000A0EB08080FFA88F006EB8609D5F80C80B5
:1057000008EB8908B8F8088000E004E0A2EB08087C
:105710000FFA88F200BF761C2969B1423FF66DAFDF
:1057200000BF0B9800287FF43DAF00210F981BF0BD
:10573000DDF8012800D100E000200A900020099047
:10574000089008A809A9CDE9001029890BB2B5F97C
:10575000022038781E9923F07FFBF87800F00100D2
:1057600048B10A9838B10F981AF044F9BDF82410DE
:10577000084400B2099011990F981AF09BF804465A
:1057800087E17E4920461BF0FCFF40B1F878C0F36A
:10579000800111AA0F980AF0E6FE044679E1002183
:1057A00020461BF03FF907900798002858D00020AA
:1057B0000390002610E006EB8601E86850F821000F
:1057C000A04208D106EB8601E86800EB8100B0F941
:1057D0000800039003E0761C2869B042EBD800BFB4
:1057E000F87800F0010030B1608C20F4806000F5A2
:1057F0008060608405E0608C20F4007000F500702B
:10580000608404F114000D9988470399884226D0DA
:1058100020461CF02BFB00BFA08AADF80400E08AF4
:10582000ADF80600208BADF80800608BADF80A00DB
:1058300000BF04F114000E9A0399904701AA292190
:10584000204614F00DFB20461AF09AF92246222138
:10585000009014F005FB20461CF008FB00BF07E099
:10586000608C20F480606084608C20F40070608420
:10587000002006907878012812D0022819D104F16E
:1058800014000C998847B5F90010491C21F001015A
:10589000081A039000EBD070401000B2069009E0A7
:1058A00004F114000C9988472988081A00B2069060
:1058B00000E000BF00BFF87800F0010050B10A9886
:1058C00040B104F114000D998847BDF82410081A5E
:1058D00000B20990002003906A22204603991BF031
:1058E000F9FB029002980FFA80F800BF00200390A5
:1058F0006B22204603991BF0EDFB029002980FFAF1
:1059000080F900BF20461BF0D4FE059020461AF017
:10591000E7F8049008F4C040B0F5005F01D1012021
:1059200000E0002030B128F4C040B0F5FA6F01DC8F
:10593000012000E0002090B128F4C040B0F57A7F4B
:1059400004DD28F4C040C0F57A7001E028F4C040BE
:1059500005994843642190FBF1F00FFA80F809F4AF
:10596000C040B0F5005F0BD101200AE0773201089A
:105970006B3201080B320108FB3001080100060000
:10598000002030B129F4C040B0F5FA6F01DC0120ED
:1059900000E0002090B129F4C040B0F57A7F04DD2A
:1059A00029F4C040C0F57A7001E029F4C0400499A0
:1059B0004843642190FBF1F00FFA80F9A18A1C980A
:1059C000401A40440FFA80FAE18A1D98401A484470
:1059D0000FFA80FBF87800F0010010B1BDF9240047
:1059E00000E0069850440FFA80FAF87800F00100C1
:1059F00008B1069801E0BDF9240058440FFA80FB75
:105A0000BAF1000F02D1BBF1000F1BD020461CF0F1
:105A10002DFAA08A504400B2A082208B504401B2DB
:105A20002183E08A584401B2E182608B584401B27C
:105A3000618320461CF01AFA00235A46514620463C
:105A40001CF0ECFAF87800F0010008B10A9870B97F
:105A500004F114000D9988471F990844BDF82010DF
:105A60000844BDF82410084400B2099008E0BDF8CD
:105A700020101F980844BDF82410081A00B209909D
:105A8000F878C0F3800111AA0F980AF06CFD044663
:105A900000BF24B1DDE9111081427FF472AE13B072
:105AA000BDE8F08F2DE9F04F8DB005468946B9F17C
:105AB000000F02D10DB0BDE8F08FA5F8189028684E
:105AC00010B1286814F064FB09EB4901062202EBCF
:105AD000410017F089FE286000BF286818B900BF90
