:020000040800F2
:1000000058F600209D010008691900082F0C00080F
:1000100065190008DF090008EB1F00080000000058
:1000200000000000000000000000000005010008C2
:10003000E30900080000000049010008211C000835
:10004000B7010008B7010008B7010008B7010008B0
:10005000B7010008B7010008B7010008B7010008A0
:10006000B7010008B7010008B7010008B701000890
:10007000B7010008B7010008B7010008B701000880
:10008000B7010008B7010008B7010008B701000870
:10009000B7010008B7010008B7010008B701000860
:1000A000B7010008B7010008B7010008B701000850
:1000B000B7010008911C0008B7010008B70100084B
:1000C000B7010008B7010008B7010008B701000830
:1000D000B7010008A91D0008B7010008B701000812
:1000E000B7010008B7010008B7010008DFF810D019
:1000F00000F026FC00480047A5F50108AFF300809A
:1001000058F60020224B19680868B0E8F00F80F319
:100110000988BFF36F8F4FF0000080F311884EF015
:100120000D0E70470000000006480068006880F36C
:10013000088862B661B6BFF34F8FBFF36F8F00DFE1
:1001400000BF00BF08ED00E0EFF30980BFF36F8F41
:100150000F4B1A6820E9F00F106008B54FF05000FF
:1001600080F31188BFF34F8FBFF36F8F23F04AFEE8
:100170004FF0000080F31188BDE808401968086856
:10018000B0E8F00F80F30988BFF36F8F704700BFAE
:10019000D0010020EFF3058070470000064880473B
:1001A00006480047FEE7FEE7FEE7FEE7FEE7FEE75C
:1001B000FEE7FEE7FEE7FEE7311C0008ED00000861
:1001C0002DE9F05F0546002092469B46884606468C
:1001D000814640241BE0284641464746224600F01F
:1001E000C5F953465A46C01A914110D311461846D4
:1001F000224600F0ACF92D1A67EB01084F46224663
:100200000120002100F0A3F917EB00094E41201E48
:10021000A4F10104DFDC484631462A464346BDE8E6
:10022000F09F000000487047243B030840EA0103A8
:100230009B0703D009E008C9121F08C0042AFAD29C
:1002400003E011F8013B00F8013B521EF9D2704760
:10025000D2B201E000F8012B491EFBD27047002208
:10026000F6E710B513460A4604461946FFF7F0FFB5
:10027000204610BD10B5044604E00B7800F8013BA1
:1002800003B1491C521EF8D2204610BD421C10F882
:10029000011B0029FBD1801A704710B5002200E035
:1002A000521C835C8C5CA34201D1002BF8D1D8B2E4
:1002B000E1B2401A10BD034611F8012B00F8012BE2
:1002C000002AF9D11846704730B50546002003468C
:1002D00000E05B1C934205D2EC5CC85C201A01D1A3
:1002E000002CF6D130BDF0B480EA0102D40F4200F8
:1002F000B2EB410F02D20246084611464A0042D0F4
:10030000C30DDDB2C1F3C752AD1A202D35DAC1F3EA
:10031000160141F4000204B15242C5F1200602FA6E
:1003200006F12A411044B3EBD05F23D0C4B1012DB4
:10033000A0EBC35009DCF0BC4FF0004202EAC3520C
:10034000DBB200F5000000F02AB9400000F1807037
:1003500000EBC350A0F1807040EAD170490009E081
:10036000490841EAC071A0EBC35000F50000400805
:1003700000EBC350F0BC00F009B96142012202EB6E
:100380004101001BF6E7F0BC704781F00041AAE78D
:1003900080F00040A7E780EA010210B502F00043B8
:1003A000400022D04A001FD0010E01EB1261C0F3C1
:1003B0005600C2F3560240F4000042F40002A0FBD3
:1003C000022000047F39140400D0401C50EA12407F
:1003D00001D44000491EC2B20C0604EBD010401CF0
:1003E0004008802A02D003E0002010BD20F0010068
:1003F000002900DA0020184310BD2DE9FE4F81EAE4
:10040000030404F0004421F0004100944FF0000B7D
:1004100023F0004350EA01045ED052EA03045BD0AB
:10042000C3F30A54C1F30A552C44A4F2F3340194E3
:10043000A0FB0254C1F3130141F48011C3F3130371
:1004400043F4801301FB024400FB034E840A970A25
:1004500044EA815447EA8357A4FB076802958D0A52
:1004600005FB07854FEA932C04FB0C542705029DDE
:100470004FEA065847EA1637B5EB08056EEB070C4E
:10048000870E920E47EA811742EA8312A7FB020108
:10049000B6EB0B0164EB00042B0D43EA0C335E1842
:1004A00044EB1C50DA465146E7FB0201C5F3130446
:1004B0004FEA0B3343EA14534FEA0432019C43EAF8
:1004C0000603A4F10C040294009CCDE900B400F0F2
:1004D000A3F803B0BDE8F08F00200146F9E7C10F93
:1004E00080EAE0700844CA079623002100F057B85C
:1004F00000F0004220F00040C10DC0F3160040F4AF
:1005000000007F2901DA00207047962903DCC1F141
:100510009601C84001E096398840002AF4D0404254
:10052000704730B50B46014600202022012409E027
:1005300021FA02F59D4205D303FA02F5491B04FA9C
:1005400002F52844151EA2F10102F1DC30BD202A7B
:1005500004DB203A00FA02F1002070479140C2F11A
:10056000200320FA03F3194390407047202A04DB4C
:10057000203A21FA02F00021704721FA02F3D0401C
:10058000C2F1200291400843194670470029A8BFD4
:100590007047401C490008BF20F00100704710B4AC
:1005A000B0FA80FC00FA0CF050EA010404BF10BC61
:1005B000704749B1CCF1200421FA04F411FA0CF18E
:1005C00018BF012121430843A3EB0C01CB1D4FEAC7
:1005D00000614FEA102042BF002010BC704700EBC2
:1005E000C35010440029A4BF10BC7047401C4900F0
:1005F00008BF20F0010010BC704710B5141E73F145
:10060000000408DA401C41F1000192185B411A43D2
:1006100001D120F0010010BD2DE9F04D92469B461E
:1006200011B1B1FA81F202E0B0FA80F220329046C4
:10063000FFF78DFF04460F4640EA0A0041EA0B012E
:1006400053465A46084313D0114653EA010019D0C5
:10065000C8F140025046FFF789FF05460E46504656
:1006600059464246FFF773FF084305D0012004E0D6
:1006700020463946BDE8F08D0020054346EAE07685
:100680002C4337430A986305E40AA0EB08000022D4
:10069000FD0A44EA47540A3002D500200146E9E742
:1006A000010510196941DDE9084500196941BDE8F6
:1006B000F04DA2E72DE9FE4F804681EA0300C00F0E
:1006C0000C46009021F0004123F00045B8EB0200F9
:1006D000A94105D24046214690461C460B4602469B
:1006E00023F00040104347D0270DC7F30A00C3F39F
:1006F0000A510290401A019040286BDAC3F31300AC
:1007000040F4801B0098924620B10023D2EB030AEC
:1007100063EB0B0B01985946C0F140025046FFF7BE
:1007200016FF06460D4650465946019A00F01AF942
:1007300010EB08006141002487EA115284EAE77354
:100740001A4340D0009A62B3019A012A4FEA075235
:1007500015DC001B61EB02014FF0004202EA075278
:10076000CDE90042001C41F5801132462B46FFF7CF
:1007700053FF03B0BDE8F08F40462146F9E7001B68
:1007800061EB0201001C41F5801300185B41201849
:10079000A2F5001747EB030140EAD570B6196D4189
:1007A00011E06D084FEA360645EAC0754FEA075278
:1007B000001B61EB0201001C41F5801149084FEA62
:1007C00030000019514132462B4603B0BDE8F04FCE
:1007D000FFF713BF0098012240000023D0EB020274
:1007E00063EBE073009821464FEAE074B8EB000039
:1007F00061EB0401E9E783F000435BE781F000412E
:1008000058E72DE9F04D81EA030404F0004B21F094
:10081000004514464FF0000A23F0004150EA05025B
:1008200020D054EA01021DD0C5F30A570246C5F391
:100830001303C1F31300C1F30A5640F4801543F4C7
:100840008013A7EB0608101BD64608F2FD3873EBA1
:10085000050002D308F1010801E092185B41B8F1EC
:10086000000F03DA00200146BDE8F08D00204FF4B0
:100870008011064684460EE0171B73EB050705D36F
:10088000121B63EB050306434CEA010C49084FEACF
:10089000300092185B4150EA0107EDD152EA0300A3
:1008A00012D082EA040083EA0501084305D0101B38
:1008B000AB4106D20122002306E000224FF00043A4
:1008C00002E06FF0010253101AEB06004CEB0851E6
:1008D00010EB0A0041EB0B01BDE8F04DFFF78DBEB8
:1008E000C1F30A52C1F3130140F2FF3341F4801106
:1008F0009A4202DA00200146704740F233439A429E
:10090000A2F2334202DC5242FFF730BEFFF71FBEB5
:1009100030B5041E71F1000404DB4FF00044404286
:1009200064EB0101141E73F1000405DB1C464FF05B
:100930000043524263EB0403994208BF904230BD2A
:10094000064C074D06E0E06840F0010394E807001C
:1009500098471034AC42F6D3FFF7CCFB0C3D0308AC
:100960002C3D0308202A06DBCB17203A41FA02F07F
:1009700043EAE07306E041FA02F3D040C2F12002FC
:10098000914008431946704770B58C1810F8015B08
:1009900015F0070301D110F8013B2A1106D110F818
:1009A000012B03E010F8016B01F8016B5B1EF9D11C
:1009B0002B0705D40023521E0DD401F8013BFAE7A2
:1009C00010F8013BCB1A921C03E013F8015B01F80D
:1009D000015B521EF9D5A142D8D3002070BD00BFE3
:1009E000FEE7704751B18200A2F1C042126842F0A6
:1009F00001038200A2F1C042136009E08200A2F16B
:100A0000C0421268034B1A408300A3F1C0431A602E
:100A100070470000FEFF0F00D0E901121143C268C9
:100A20001143026911434269114382691143C2694A
:100A30001143026A1143426A1143826A1143C26A36
:100A40001143026B114302689200A2F1C04211608F
:100A5000816808290BD101688900A1F1C0410968AA
:100A600041F0400201688900A1F1C0410A60416B78
:100A70000968426B526841EA0211426B926841EA8E
:100A80000221426B928941EA0241426B128A41EA99
:100A90000251426B127D41EA0261426B926911433D
:100AA0000268521C9200A2F1C0421160C16AB1F505
:100AB000804F1BD1816B0968826B526841EA021139
:100AC000826B926841EA0221826B128A41EA0251EA
:100AD000826B127D41EA0261826B92691143026866
:100AE0009200A2F1C042C2F8041107E06FF0704218
:100AF00001688900A1F1C041C1F8042170472DE9C6
:100B0000F041024600250026002000230024002793
:100B100091F803C00CF00F0591F803C00CF0100C15
:100B2000BCF1000F03D091F802C04CEA050591F822
:100B300000C0BCF1000F31D0146800202BE04FF052
:100B4000010C0CFA00F3B1F800C00CEA03069E4257
:100B500020D183004FF00F0C0CFA03F7BC4305FAC9
:100B600003FC4CEA040491F803C0BCF1280F06D141
:100B70004FF0010C0CFA00FCC2F814C00AE091F826
:100B800003C0BCF1480F05D14FF0010C0CFA00FC7A
:100B9000C2F810C0401C0828D1D31460B1F800C0BE
:100BA000BCF1FF0F34DD546800202EE000F1080C8A
:100BB0004FF0010808FA0CF3B1F800C00CEA030684
:100BC0009E4221D183004FF00F0C0CFA03F7BC4377
:100BD00005FA03FC4CEA040491F803C0BCF1280FA9
:100BE00005D100F1080C08FA0CF8C2F8148091F84D
:100BF00003C0BCF1480F07D100F1080C4FF0010809
:100C000008FA0CF8C2F81080401C0828CED35460B3
:100C1000BDE8F0810246002093680B400BB1012033
:100C200000E000207047416170470161704700BFDC
:100C3000FEE701B502E00098401E009000980028F1
:100C4000F9D108BD00B597B03C2108A8FFF707FB14
:100C50001C2101A8FFF703FB0121080200F0BEFEE2
:100C6000012001900420039080060790002002904C
:100C70000490059006900890099008200A90102092
:100C80000B9000200C900E900F9010904FF480501D
:100C90001190002012901390149001A815901690B6
:100CA00008A8FFF7B9FE01210020FFF79BFE17B04F
:100CB00000BD000008B50121602000F0AFFE032058
:100CC0008DF8020018208DF803004FF48040ADF835
:100CD000000069465B48FFF712FF4FF40040ADF893
:100CE000000069465748FFF70AFF0120ADF80000F1
:100CF00069465448FFF703FF0220ADF8000069463B
:100D00005048FFF7FCFE8020ADF8000069464E48D1
:100D1000FFF7F5FE4FF48070ADF8000069464A48D1
:100D2000FFF7EDFE4FF40070ADF80000694646484D
:100D3000FFF7E5FE4FF48060ADF8000069464248D9
:100D4000FFF7DDFE4FF40060ADF8000069463E4855
:100D5000FFF7D5FE4FF48050ADF8000069463A48E1
:100D6000FFF7CDFE4FF40050ADF80000694636485D
:100D7000FFF7C5FE4FF48040ADF8000069463248E9
:100D8000FFF7BDFE4FF40040ADF8000069462E4865
:100D9000FFF7B5FE4FF48070ADF8000069462948B2
:100DA000FFF7ADFE4FF40070ADF80000694625482E
:100DB000FFF7A5FE4FF48060ADF8000069462148BA
:100DC000FFF79DFE03208DF8020018208DF8030028
:100DD0001020ADF8000069461A48FFF790FE202069
:100DE000ADF8000069461748FFF789FE8020ADF88E
:100DF000000069461348FFF782FE4FF40060ADF82B
:100E0000000069460F48FFF77AFE10208DF80300B6
:100E100003208DF802000220ADF8000069460A4860
:100E2000FFF76DFE10208DF8030003208DF80200FF
:100E30004FF48050ADF8000069460248FFF75FFEAE
:100E400008BD0000001401400018014010B5022147
:100E50000748FFF7E8FE40F6FF20FFF7EAFE022111
:100E60000348FFF7E2FE40F6FF20FFF7E2FE10BD69
:100E70000018014070B506460024184805884088CF
:100E800045431648808846F60401884216D1134827
:100E90008079012812D10020104988712A204881C8
:100EA0002B2088810021084600F03CFC01200B49E2
:100EB00088712B2048812A20888103E00021084680
:100EC00000F030FC00F00CFD002403E0304600F0A0
:100ED000FDFC641CAC42F9D370BD00007C03002013
:100EE0002DE9F84F07460D4690469946DDF828B0A3
:100EF000A8EB0700401C1FFA80FAA9EB0500401C74
:100F000080B20090002414E0281981B2384600F025
:100F100009FC00F0E5FC002607E004FB0A613BF851
:100F2000110000F0D3FC701C86B25645F5DB601C46
:100F300084B200988442E7DBBDE8F88F10B5044620
:100F4000002C66D16C498871F02008804FF4A070A5
:100F500048800846808849F2413188420BD0664873
:100F6000808846F60401884205D06348808845F2AF
:100F7000103188421AD12C205F4908812A204881EB
:100F80002B2088810846808846F60401884205D0D7
:100F90005948808845F21031884206D14FF4A0703C
:100FA000554908804FF4F0704880A1E0524880888D
:100FB00045F21051884210D14FF430504E4908810B
:100FC0004FF4285048814FF42C5088814FF4F07032
:100FD00008804FF4487048808AE04748808841F68E
:100FE000631188420DD12C20434908812B20488170
:100FF0002A2088814FF4F07008804FF448704880B0
:1010000076E022203C4908812020488121208881E7
:101010006EE00120384988714FF4A0700880F020FC
:1010200048800846808849F24131884205D03248DC
:10103000808845F21031884207D12C202E49088142
:101040002A2048812B2088813FE02B48808846F663
:101050000401884207D12C20274908812B20488190
:101060002A20888131E02448808845F21051884246
:1010700010D14FF43050204908814FF42850488156
:101080004FF42C5088814FF4487008804FF4F07072
:1010900048801AE01848808841F6631188420DD1D3
:1010A0002C20154908812A2048812B2088814FF463
:1010B000487008804FF4F070488006E022200E4906
:1010C000088121204881202088810B48808846F6AD
:1010D0000401884205D00848808845F210318842D2
:1010E00006D14FF4F070044908804FF4A070488096
:1010F000002000F0A1F910BD7C03002010B5FFF71F
:10110000D9FDFFF79FFD4FF48051C248FFF78BFDDB
:10111000FFF79CFED32000F0DFFB00F087F9BE490B
:10112000888000F083F9BC49888000F07FF9BA49D3
:101130008880084680884FF6FF7101EA0020B64992
:10114000888000F073F9B44989880843B2498880DF
:1011500008468188B1A001F06DF9AF48808849F256
:10116000413188427ED1CF2000F0B6FB002000F054
:10117000ADFB812000F0AAFB302000F0A7FB05208A
:1011800006F036FFED2000F0A7FB642000F09EFB88
:10119000032000F09BFB122000F098FB812000F060
:1011A00095FB052006F024FFE82000F095FB852044
:1011B00000F08CFB102000F089FB782000F086FB0B
:1011C000052006F015FFCB2000F086FB392000F04B
:1011D0007DFB2C2000F07AFB002000F077FB342010
:1011E00000F074FB022000F071FB052006F000FF08
:1011F000F72000F071FB202000F068FB052006F0CE
:10120000F7FEEA2000F068FB002000F05FFB002002
:1012100000F05CFB052006F0EBFEB12000F05CFB6B
:10122000002000F053FB1B2000F050FB052006F0CF
:10123000DFFEB62000F050FB0A2000F047FBA220A2
:1012400000F044FB052006F0D3FEC02000F044FB74
:10125000352000F03BFB052006F0CAFEC12000F05F
:101260003BFB00E0CEE0112000F030FB052006F053
:10127000BFFEC52000F030FB452000F027FB4520D5
:1012800000F024FB052006F0B3FEC72000F024FB8D
:10129000A22000F01BFB052006F0AAFEF22000F0C1
:1012A0001BFB002000F012FB052006F0A1FE26200B
:1012B00000F012FB012000F009FB052006F098FE6B
:1012C000E02000F009FB0F2000F000FB262000F0DA
:1012D000FDFA242000F0FAFA0B2000F0F7FA0E20B5
:1012E00000F0F4FA092000F0F1FA542000F0EEFAD0
:1012F000A82000F0EBFA462000F0E8FA0C2000F0FD
:10130000E5FA172000F0E2FA092000F0DFFA0F20DA
:1013100000F0DCFA072000F0D9FA002000F0D6FA3D
:10132000052006F065FEE12000F0D6FA002000F06E
:10133000CDFA192000F0CAFA1B2000F0C7FA0420E9
:1013400000F0C4FA102000F0C1FA072000F0BEFA45
:101350002A2000F0BBFA472000F0B8FA392000F04C
:10136000B5FA032000F0B2FA062000F0AFFA06202A
:1013700000F0ACFA302000F0A9FA382000F0A6FA0C
:101380000F2000F0A3FA052006F032FE362000F010
:10139000A3FAC82000F09AFA052006F029FE2A20B8
:1013A00000F09AFA002000F091FA002000F08EFA86
:1013B000002000F08BFAEF2000F088FA052006F0FC
:1013C00017FE2B2000F088FA002000F07FFA0020A2
:1013D00000F07CFA012000F079FA3F2000F076FA64
:1013E000052006F005FE3A2000F076FA552000F0C0
:1013F0006DFA112000F070FA782006F0F9FD29202E
:1014000000F06AFA0120FFF799FD4FF6FF70FFF731
:1014100031FD10BD001401407C030020204C4344EA
:101420002049443A25780D0A000000000148008850
:101430007047000000000260F0B505460024002758
:10144000B748807901280BD1B548808846F6040159
:10145000884205D0B248808841F66311884208D19D
:10146000AF488079F0B9AE48808841F66311884270
:1014700018D1082D15D2DFE805F00406080A0C0E75
:10148000101206250DE007250BE0042509E00525CF
:1014900007E0012505E0002503E0032501E0022522
:1014A00000BF00BF9E48808849F24131884217D072
:1014B0009B48808846F60401884211D0984880886D
:1014C00045F2103188420BD09548808845F2105182
:1014D000884205D09248808841F6631188427DD1C8
:1014E000082D1CD2DFE805F00406090C0F121518B0
:1014F00000BF14E044F0800411E044F040040EE02A
:1015000044F0C0040BE044F0200408E044F0600420
:1015100005E044F0A00402E044F0E00400BF00BF96
:101520007F48808845F21051884202D14FF45857C5
:1015300000E036277A48808845F2103188420DD085
:101540007748808845F21051884207D074488088D7
:1015500041F66311884201D044F008047048808845
:1015600046F60401884201D144F00204214638467F
:1015700000F0BEF96A48808841F6631188421DD0A8
:1015800004F0200068B166480088654949888842AF
:1015900014DA634806884088614908800846468016
:1015A0000CE05F4800885E494988884206DD5C4857
:1015B000068840885A4908800846468058488088EE
:1015C00045F21051884254D15549488900F084F9B8
:1015D000002000F07BF95249498900E078E0491C7D
:1015E00088B200F079F9002000F070F94C4949897F
:1015F000891C88B200F070F949490988491EC1F375
:101600000F2000F063F946494989C91C88B200F0EF
:1016100063F943490978491EC8B200F057F94049B7
:10162000888900F059F9002000F050F93C49898977
:10163000491C88B200F050F9002000F047F9384901
:101640008989891C88B200F047F935494988491EC3
:10165000C1F30F2000F03AF931498989C91C88B2D9
:1016600000F03AF92E498978491EC8B200F02EF9E7
:1016700055E02B49488900F02FF9002000F026F9A9
:10168000002000F023F926490988491EC1F30F20E4
:1016900000F01CF922490978491EC8B200F016F979
:1016A0001F49888900F018F9002000F00FF9002088
:1016B00000F00CF91A494988491EC1F30F2000F0C7
:1016C00005F917498978491EC8B200F0FFF826E0ED
:1016D000082D1CD2DFE805F004070A0D0F121518BB
:1016E00044F0300413E044F0100410E044F020040F
:1016F0000DE000BF0BE044F0380408E044F028049B
:1017000005E044F0180402E044F0080400BF00BF04
:10171000032744F480542146384600F0E9F8F0BD30
:101720007C03002030B504460D466748808849F2A6
:101730004131884205D06448808845F210318842A2
:1017400014D16149488900F0C7F8201200F0BEF8B2
:10175000E0B200F0BBF85C49888900F0BDF82812BF
:1017600000F0B4F8E8B200F0B1F8ABE05648808879
:1017700046F6040188421DD153488079012804D1DE
:1017800051480088401E001B84B24F49488900F030
:10179000A3F8201200F09AF8E0B200F097F84A4956
:1017A000888900F099F8281200F090F8E8B200F06B
:1017B0008DF887E04448808841F66311884247D11C
:1017C00041488079A8B940480088401E001B84B277
:1017D0003D49488900F080F8002000F077F80020AB
:1017E00000F074F8201200F071F8E0B200F06EF82A
:1017F00016E03549488900F06FF8201200F066F8CD
:10180000E0B200F063F830490988491EC1F30F20A7
:1018100000F05CF82C490978491EC8B200F056F86F
:101820002949888900F058F8281200F04FF8E8B2EA
:1018300000F04CF824494988491EC1F30F2000F0FC
:1018400045F821498978491EC8B200F03FF839E0CF
:101850001D48808845F21051884220D11A49488994
:1018600000F03AF8201200F031F817494989491C74
:1018700088B200F031F8E0B200F028F81249888907
:1018800000F02AF8281200F021F80F498989491C34
:1018900088B200F021F8E8B200F018F812E00A4827
:1018A0008079012804D108480088401E001B84B2BA
:1018B00005494889214600F01BF8034988892946D3
:1018C00000F016F830BD00007C03002001490880BC
:1018D00070470000000002604FF0C0410880704770
:1018E00000B502490889FFF7F7FF00BD7C0300201F
:1018F00000B503460A461846FFF7EEFF1046FFF70D
:10190000E5FF00BD08B50121082000F087F8102090
:101910008DF8030003208DF802002020ADF80000B0
:1019200069460F48FFF7EBF80120ADF80000694663
:101930000B48FFF7E4F80220ADF8000069460848BC
:10194000FFF7DDF820210648FFF76FF90121044871
:10195000FFF76BF902210248FFF767F908BD0000A5
:10196000000C014000BFFEE77047000070B5002189
:1019700000230F22C47804B3154C246804F4E064F7
:10198000C4F5E064210AC1F10403CA40447804FAB2
:1019900003F184781440214309010E4C0678A155C7
:1019A000047804F01F050124AC4005786D11AD00EA
:1019B00005F1E025C5F8004109E0047804F01F05B1
:1019C0000124AC40044D0678761145F8264070BDE0
:1019D0000CED00E000E400E080E100E029B1064AFF
:1019E00052690243044B5A6104E0034A526982433C
:1019F000014B5A61704700000010024029B1064AAD
:101A0000D2690243044BDA6104E0034AD26982439B
:101A1000014BDA61704700000010024029B1064A0C
:101A200092690243044B9A6104E0034A926982433B
:101A3000014B9A61704700000010024030B5002150
:101A40000022002400232D4D6D6805F00C0121B10A
:101A5000042905D0082923D105E0294D056022E09D
:101A6000274D05601FE0254D6D6805F47012234D6C
:101A70006D6805F48034022505EB92421CB9214DB6
:101A8000554305600BE01D4D6D6805F400351DB133
:101A90001C4D5543056002E0194D5543056002E0B9
:101AA000174D056000BF00BF144D6D6805F0F001D3
:101AB0000909154D6B5C0568DD4045600F4D6D688B
:101AC00005F4E061090A104D6B5C4568DD408560F6
:101AD0000A4D6D6805F46051C90A0B4D6B5C456891
:101AE000DD40C560054D6D6805F44041890B074D2B
:101AF0006B5CC568B5FBF3F5056130BD00100240B5
:101B000000127A0000093D008E0100209E01002095
:101B100010B500F001F810BD0CB500200190009048
:101B20003348006840F480303149086000BF3048D5
:101B3000006800F4003000900198401C019000986B
:101B400018B90198B0F5A06FF1D12948006800F4E8
:101B5000003010B10120009001E0002000900098BA
:101B6000012843D12348006840F010002149086053
:101B70000846006820F0030008600846006840F04E
:101B8000020008601A4840681949486008464068E1
:101B900048600846406840F48060486008464068F5
:101BA00020F47C1048600846406840F4E810486023
:101BB0000846006840F08070086000BF0C4800686C
:101BC00000F000700028F9D00948406820F00300B8
:101BD000074948600846406840F00200486000BF7E
:101BE0000348406800F00C000828F9D10CBD000043
:101BF0000010024000200240042808D14FF0E021EC
:101C0000096941F004014FF0E022116107E04FF053
:101C1000E021096921F004014FF0E02211617047D1
:101C200010B522F0FDFB012801D022F0E1F910BD32
:101C300010B51348006840F00100114908600846DB
:101C40004068104908400E494860084600680E493F
:101C500008400B4908600846006820F480200860AE
:101C60000846406820F4FE0048604FF41F0088607A
:101C7000FFF74EFF4FF000600449086010BD000000
:101C8000001002400000FFF8FFFFF6FE08ED00E044
:101C900010B50121054800F01AF830B101201BF001
:101CA00009FF0121014800F003F810BD00040040C5
:101CB000CA430282704721B1028842F001020280C9
:101CC00004E002884FF6FE731A400280704730B578
:101CD0000246002000230024158A05EA01039589A5
:101CE00005EA010413B10CB1012000E0002030BD71
:101CF0001AB183890B43838102E083898B438381FB
:101D000070470000002202881D4B98420ED01D4BE8
:101D100098420BD0B0F1804F08D01B4B984205D0B1
:101D20001A4B984202D01A4B984204D14FF68F7347
:101D30001A404B881A43174B984207D0164B9842CB
:101D400004D04FF6FF431A40CB881A4302808B8899
:101D500083850B8803850A4B98420BD0094B984228
:101D600008D00E4B984205D00D4B984202D00D4B37
:101D7000984201D10B7A03860123838270470000C9
:101D8000002C0140003401400004004000080040E5
:101D9000000C0040001000400014004000400140D2
:101DA000004401400048014010B540F225511D4853
:101DB00000F057F810B31B4800F00EF9C4B21A48EF
:101DC000008800F40040C8B91748008800F480403B
:101DD00060B10A2C03D000201349088020E012488B
:101DE000008840F400401049088019E00D2C06D10D
:101DF0000D48008840F480400B49088010E00A48F4
:101E00000088C0F30D0009490C5407480088401CA5
:101E10000549088008460088C72801DD00200880A1
:101E200010BD000000380140880100208A03002016
:101E300021B1828942F40052828104E082894DF608
:101E4000FF731A408281704702460020B1F5007F7F
:101E500000D100BF13880B400BB1012000E000202F
:101E6000704770B50246002400230025002040F68C
:101E70006A16B14200D100BFC1F3421501F01F0341
:101E8000012606FA03F3012D02D19689334006E0BC
:101E9000022D02D1168A334001E0968A33400C129B
:101EA000012606FA04F41688344013B10CB101205F
:101EB00000E0002070BDF0B5034600240026002598
:101EC000002040F66A17B94200D100BF1846C1F39E
:101ED000421401F01F06012707FA06F5012C01D173
:101EE0000C3004E0022C01D1103000E014301AB1A3
:101EF00007682F43076002E00768AF430760F0BD43
:101F00002DE9F04786B005460E460024A24600BFE4
:101F1000A1460027B08900B100BF2F462C8A4CF69D
:101F2000FF700440F08804432C82AC894EF6F31015
:101F30000440B08831890843718908430443AC8167
:101F4000AC8A4FF6FF400440B0890443AC8201A83C
:101F5000FFF774FD1F48874202D1DDF810A001E0B1
:101F6000DDF80CA0A88900F4004040B10AEBCA00DB
:101F700000EB0A1031684900B0FBF1F807E00AEB0A
:101F8000CA0000EB0A1031688900B0FBF1F8642048
:101F9000B8FBF0F004012009642101FB1089A88935
:101FA00000F4004040B1322000EBC900B0FBF1F07A
:101FB00000F00700044308E0322000EB0910642120
:101FC000B0FBF1F000F00F0004432C8106B0BDE837
:101FD000F08700000038014001468888C0F30800FF
:101FE0007047C1F308028280704700BFFEE701B569
:101FF000002007E00C2100BF0A1EA1F10103D9B2A5
:10200000FAD1401C00998842F4D308BD2DE9FC5F49
:1020100004460D460126694601A800F0A1F80028F3
:1020200048D0BDF90000FEF75AFA83462348C16C38
:102030005846FEF7B0F98146BDF90400FEF74FFAA5
:1020400083461E48816C5846FEF7A5F982464946EC
:10205000FEF749F980461948016D4046FEF743F9FD
:102060000746FEF745FA00B22080BDF90000FEF7F2
:1020700036FA83461148816D5846FEF78CF9814641
:10208000BDF90400FEF72BFA83460C48416D584613
:10209000FEF781F982464946FEF725F98046074852
:1020A000C16D4046FEF71FF90746FEF721FA00B260
:1020B000288000E000263046BDE8FC9FC0000020DC
:1020C00008B501216020FFF7A9FC0120ADF8000050
:1020D0008DF8020010208DF8030069461A48FEF7BB
:1020E0000EFD0420ADF8000069461748FEF707FD15
:1020F0000820ADF8000001208DF8020048208DF87E
:10210000030069461048FEF7FAFC4FF40050ADF8A2
:10211000000001208DF8020010208DF803006946B0
:102120000A48FEF7ECFC4FF400510848FEF77BFD2F
:102130001020ADF8000048208DF8030069460248E1
:10214000FEF7DDFC08BD000000180140001401404E
:1021500010B50446204600F03BF900F0BFF810BD72
:102160002DE9F04F8DB082468B460025282101A82D
:10217000FEF775F800BF0BA90CA800F09BF8BDF99D
:10218000300001A921F81500BDF92C1006A820F88F
:102190001510681CC5B210214548FEF73BFD08B973
:1021A0000A2DE8DB0A2D7DD1BDF904603746BDF963
:1021B0001880C146012412E001A830F91400B04291
:1021C00003DA01A830F9146007E001A830F914001F
:1021D000B84202DD01A830F91470601CC4B20A2CA8
:1021E000EADB012412E006A830F91400404503DAC6
:1021F00006A830F9148007E006A830F91400484515
:1022000002DD06A830F91490601CC4B20A2CEADB87
:10221000BDF90400BDF906100844BDF908100844D2
:10222000BDF90A100844BDF90C100844BDF90E10A0
:102230000844BDF910100844BDF912100844BDF956
:1022400014100844BDF916100844801BC01BC010B0
:1022500000B2AAF80000BDF91810BDF91A00014437
:10226000BDF91C000144BDF91E000144BDF9200068
:102270000144BDF922000144BDF924000144BDF927
:1022800026000144BDF928000144BDF92A00084494
:10229000A0EB0800A0EB0900C01000B2ABF80000F2
:1022A000012000E002E00DB0BDE8F08F0020F8E76B
:1022B000001801402DE9F04104460D469020FFF73B
:1022C00047FF06B20120FFF792FED020FFF740FF44
:1022D00007B226802F80BDE8F081000070B5002590
:1022E00004211148FEF79FFC01210F48FEF79DFCD9
:1022F000002414E001210C48FEF795FC08210A484F
:10230000FEF788FC0646C4F10B0006FA00F02843ED
:1023100085B201210448FEF788FC601CC4B20C2C75
:10232000E8DB284670BD00000018014010B500240D
:102330002448007820B1012811D002283AD12AE09F
:1023400010212148FEF766FC20B901201D490870C4
:10235000002403E000201B49087000242FE0102116
:102360001948FEF757FC78B9184801880088401CC6
:10237000164A108002290DDD002011460880022037
:1023800010490870012405E00020104908800D491B
:102390000870002413E010210B48FEF73BFC20B925
:1023A000022008490870012403E000200549087054
:1023B000002404E0002003490870002400BF00BF8F
:1023C000204610BD8001002000180140820100203D
:1023D00070B5054604211648FEF725FC0121144876
:1023E000FEF721FC00241FE0C4F1070045FA00F0CD
:1023F00000F0010020B104210D48FEF716FC03E0B7
:1024000004210B48FEF70FFC0520FFF7F0FD01212A
:102410000748FEF70AFC0520FFF7E9FD0121044803
:10242000FEF701FC601CC4B2082CDDDB70BD0000AF
:10243000001801400FB4054B10B503A9044A0298D7
:1024400001F096FF10BC5DF814FB0000A9D2000853
:10245000840100200FB47CB50C0009AD01D0611ED1
:1024600000E00021CDE90001064B6A4629460898A4
:1024700001F07EFF002C02D0009A002111707CBC7C
:102480005DF814FB774A0008014B024A01F070BF67
:10249000A9D200088401002002E008C8121F08C168
:1024A000002AFAD170477047002001E001C1121FD5
:1024B000002AFBD1704770B50446002508E021686A
:1024C000481C20600878303805EB850100EB410599
:1024D0002168087800F0C6F80028F0D1284670BDC1
:1024E0002DE9FF5F82B00021DDE90430020DDDF847
:1024F00040B0034318D044F61050A2F2FF324243DA
:102500001514119801281FD0A5EB0B00401C5FEAA1
:10251000000A4FF000064E4FDFF83891B0465046A3
:1025200015D5CAF1000413E0119801244AA301282B
:1025300001D16FEA0B010298119AC0E90031C0E99C
:10254000024206B0BDE8F09FCBF10000DFE7044691
:102550000021404A491842EB0450CDE9001012E036
:10256000E00707D032463B4640464946FDF745FF67
:102570008046894632463B4610461946FDF73DFFE8
:1025800006460F466410002CEAD1DDE90401DDE9BE
:102590000023BAF1000F06DAFDF72FFF42464B4643
:1025A000FDF72BFF05E0FEF72CF942464B46FEF700
:1025B00028F904460E460022284BFEF7A9F903D855
:1025C0004FF0FF30014607E00022254B2046314600
:1025D000FEF770F8FEF784F9102409E0002C0ADBFE
:1025E0000A220023FDF7ECFD039B30321A55641ECE
:1025F00050EA0102F2D1641C039AC4F1110314449D
:10260000119A012A03D0012208430DD10AE00843A0
:1026100004D000204FF0110B119072E7A3EB0B05D3
:102620006D1E0DE05B4504DD4FF0000205F1010574
:1026300004E003DA4FF00002A5F10105002AECD016
:1026400002981199C0E90231C0E9004579E700001C
:10265000000014400000F03F300000000000F04394
:102660000000E03F0146302903DB392901DC01206D
:1026700070470020FCE7000010B54C21074800F02F
:102680008AFF00221E2106481BF022FA0549086035
:1026900002F0EAFF00200449087010BD285700200E
:1026A000455700089C0200209802002030B50346E0
:1026B000B1F90040B2F90050AC4202DDB1F900407E
:1026C00001E0B2F900401C80B1F90240B2F90250B9
:1026D000AC4202DDB1F9024001E0B2F902405C8097
:1026E000B1F90440B2F90450AC4202DAB1F9044045
:1026F00001E0B2F904409C80B1F90640B2F90650FD
:10270000AC4202DAB1F9064001E0B2F90640DC80E1
:102710000120B3F90040B3F90450AC4205DCB3F931
:102720000240B3F90650AC4200DD002030BDF8B5E0
:1027300004460D4616460027B4F90000B5F900100E
:10274000884212DBB4F90200B5F9021088420CDBB2
:10275000B4F90400B5F90410884206DCB4F90600A7
:10276000B5F90610884200DC01270FB90020F8BD3A
:102770000EB90120FBE72088ADF800006088ADF8B5
:10278000020032466946284600F0A7F808B9002042
:10279000EDE7A088ADF800006088ADF80200324691
:1027A0006946284600F099F808B90020DFE720883C
:1027B000ADF80000E088ADF80200324669462846D0
:1027C00000F08BF808B90020D1E7A088ADF8000030
:1027D000E088ADF8020032466946284600F07DF8F0
:1027E00008B90020C3E70120C1E70246B2F90000A2
:1027F000B1F90430984213DCB2F90400B1F90030A9
:1028000098420DDBB2F90200B1F90630984207DCBC
:10281000B2F90600B1F90230984201DB012070479D
:102820000020FCE7F8B504460D461646B4F904004E
:10283000B5F90010884211DBB4F90600B5F90210B1
:1028400088420BDBB4F90000B5F90410884205DCBE
:10285000B4F90200B5F90610884201DD0120F8BD87
:102860000EB90020FBE72088ADF800006088ADF8C5
:10287000020032466946284600F02FF808B10020D1
:10288000EDE7A088ADF800006088ADF802003246A0
:102890006946284600F021F808B10020DFE72088CB
:1028A000ADF80000E088ADF80200324669462846DF
:1028B00000F013F808B10020D1E7A088ADF80000BF
:1028C000E088ADF8020032466946284600F005F877
:1028D00008B10020C3E70120C1E72DE9FC5F0546F0
:1028E0000E4614464FF0000AB6F90000B5F9001084
:1028F000884213DBB6F90000B5F9041088420DDCFC
:10290000B6F90200B5F90210884207DBB6F90200F9
:10291000B5F90610884201DC4FF0010ABAF1000F48
:1029200002D10020BDE8FC9F002C01DC0120F9E76A
:1029300028460DF02CFD834600EBDB70471028463F
:102940000DF0B2FC834600EBDB704FEA60084745B0
:1029500001DA384600E0404681464C4500DD4C46F1
:102960002888ADF800002888204400B2ADF80400A3
:102970006888ADF802006888204400B2ADF806000F
:10298000002231466846FFF7A8FF80B1BDF8040079
:10299000204400B2ADF80400BDF80600204400B2A7
:1029A000ADF806003146684619F078FEBAE7E888C7
:1029B000001B00B2ADF80200E888ADF80600002266
:1029C00031466846FFF789FF80B1BDF80400204416
:1029D00000B2ADF80400BDF80200001B00B2ADF873
:1029E00002003146684619F059FE9BE7A888001B93
:1029F00000B2ADF80000A888ADF80400002231460E
:102A00006846FFF76AFF80B1BDF80000001B00B206
:102A1000ADF80000BDF80200001B00B2ADF80200E6
:102A20003146684619F03AFE7CE76888ADF8020046
:102A30006888204400B2ADF806000022314668469E
:102A4000FFF74BFF80B1BDF80000001B00B2ADF8EE
:102A50000000BDF80600204400B2ADF80600314683
:102A6000684619F01BFE5DE701205BE710B5B1F980
:102A70000030B2F90040A34202DAB1F9003001E0BF
:102A8000B2F900300380B1F90230B2F90240A3423A
:102A900002DAB1F9023001E0B2F902304380B1F953
:102AA0000430B2F90440A34202DDB1F9043001E080
:102AB000B2F904308380B1F90630B2F90640A3427E
:102AC00002DDB1F9063001E0B2F90630C38010BD75
:102AD0002DE9FF41044600BF00BF1AF0DBFF0546A9
:102AE0000020039034B15049E068086020461BF094
:102AF00041F903E00EF056FA4B4908604A4909686B
:102B0000086919F06BFC48480068406920B14649E3
:102B10000968486919F062FC43490968C86919F0F5
:102B20005DFC41490968086A19F058FC3E48006894
:102B3000006950B900203C490968A1F8500100BF64
:102B400000BF00BF00BFBDE8FF81374800680068D4
:102B5000007C00F0010040B1334800680068806BE1
:102B6000407B10B100BF00BFEDE719F0A3FE1EF0DF
:102B700067FA2D480068B0F8500100284BD02A4869
:102B800000680068007CC0F34000E8B12648006897
:102B90000EF086FA401E06B2234800680EF01AFABC
:102BA000401E07B23B460022114601A800960DF0D8
:102BB00025FC01A81C4909680968896B48601A4806
:102BC000006806F08FF900BF4FF480711648006866
:102BD000303015F082F820211348006800F5987015
:102BE00015F07BF8002010490968A1F8500128462B
:102BF0001AF042FF03900C4800680068006A50B168
:102C00000949096808680849096809680B6A074999
:102C10000A680399984700F041F800F009F800BFEE
:102C200000BF00BF8FE70000500200204C020020D0
:102C300010B5002416E0C4EBC4000C4951F8200084
:102C400030B1C4EBC401094A52F8210011F06EFE04
:102C5000C4EBC401054A02EB81001C2115F046F8C3
:102C6000601CC4B2042CE6DB10BD000084570020B9
:102C70000146094A10680BE042688A4202D00268A5
:102C80008A4204D1027E22F00102521C027640697F
:102C90000028F1D170470000240200207047000096
:102CA00010B52021014800F076FC10BD34570020FB
:102CB0002DE9FF4704460D4616461F46DDE90C89FF
:102CC0006FB9B8F5807F0AD1002020806080681E2F
:102CD00000B2A080701E00B2E080BDE8FF87002037
:102CE0000090019002900390ADF80450ADF80A6096
:102CF000ADF80C50ADF80E604B464246394668467A
:102D000019F002FC4B464246394601A819F0FCFB7B
:102D10004B464246394602A819F0F6FB4B4642465E
:102D2000394603A819F0F0FBBDF90000BDF9041005
:102D3000884202DABDF9000001E0BDF90400BDF9E6
:102D40000810BDF90C20914202DABDF9081001E02B
:102D5000BDF90C1088420BDABDF90000BDF9041072
:102D6000884202DABDF900000DE0BDF904000AE076
:102D7000BDF90800BDF90C10884202DABDF908005F
:102D800001E0BDF90C00801E00B22080BDF90000FA
:102D9000BDF90410884202DDBDF9000001E0BDF973
:102DA0000400BDF90810BDF90C20914202DDBDF907
:102DB000081001E0BDF90C1088420BDDBDF90000E0
:102DC000BDF90410884202DDBDF900000DE0BDF937
:102DD00004000AE0BDF90800BDF90C10884202DDCC
:102DE000BDF9080001E0BDF90C00801C00B2A08014
:102DF000BDF90210BDF90600814202DABDF90200F8
:102E000001E0BDF90600BDF90A20BDF90E108A42A5
:102E100002DABDF90A1001E0BDF90E1088420BDAA2
:102E2000BDF90210BDF90600814202DABDF90200C7
:102E30000DE0BDF906000AE0BDF90A10BDF90E006B
:102E4000814202DABDF90A0001E0BDF90E00801EE0
:102E500000B26080BDF90210BDF90600814202DDBA
:102E6000BDF9020001E0BDF90600BDF90A20BDF977
:102E70000E108A4202DDBDF90A1001E0BDF90E1004
:102E800088420BDDBDF90210BDF90600814202DD6A
:102E9000BDF902000DE0BDF906000AE0BDF90A1017
:102EA000BDF90E00814202DDBDF90A0001E0BDF965
:102EB0000E00801C00B2E08000BF0EE72DE9F74352
:102EC000054616460024154C1AF0E4FD81463346AB
:102ED00029462046019A13F07BF98046B8F1000F8D
:102EE0000DD100BF00BF2C273A460021204614F028
:102EF000A4FE00BF7807A0620020BDE8FE8300208A
:102F0000A062E06918B948461AF0B6FDE061E069D0
:102F100008B90120E0612046EFE700005857002083
:102F20003EB51421164800F036FB13F0C5F80446F0
:102F300000BF002C0DD113A016A11AA2214BCDE980
:102F400000210290402220A1032000F0B5FB00BF29
:102F5000FEE700BF14B900BF00BF3EBD23492046B5
:102F600013F010FA2249204613F00EFA21492046A8
:102F700013F00CFA2049204613F002FA00BFECE7E8
:102F8000405700204F7574206F66206D656D6F721D
:102F9000790000006465636F64657220213D204EF6
:102FA000554C4C00417373657274656420617420E4
:102FB00065787072657373696F6E3A202573202887
:102FC00025732900384B02082E2E5C6C76676C5CEA
:102FD0007372635C647261775C6C765F696D675F66
:102FE0006465636F6465722E630000008D5701088D
:102FF000615C0108C55F01085557010870B50446BA
:103000000D461021284614F0CBFE206800780128D8
:1030100004D1208A2880608A68800CE020680078CB
:10302000022802D1E068686005E020680078042882
:1030300001D10A2068602068406830B100BF00BF3D
:10304000206829464268904701E000BF00BF70BD7C
:103050002DE9FE430446A66AEEB9A18A208A0844F7
:1030600001B2A182E18A608A084401B2E18220466D
:1030700009F0DAFA06460EB9BDE8FE8320460BF0E9
:103080007FFF00220921304611F000FA6078C0F37A
:10309000400000B1F0E7208A10B9608A002874D09F
:1030A00000200290019094F83C0000F00F000328EB
:1030B00012D1304616F052FA0746304616F0D6F9CD
:1030C000804603200090B4F910103B46424630463B
:1030D00008F02AFD029012E0304616F0C1FA0746C9
:1030E000304616F059F980460C200090B4F91210C1
:1030F00043463A46304608F017FD019000BF30467F
:1031000016F0AAF9054605F0010028B9BDF9080036
:10311000002801DD0020029005F0020028B9BDF969
:103120000800002801DA0020029005F0040028B908
:10313000BDF90400002801DD0020019005F0080021
:1031400028B9BDF90400002801DA0020019001AA85
:1031500002A920461EF020FDBDF90420BDF908108B
:10316000304600F032FB6078C0F3400000B183E7E6
:10317000A08ABDF80810084401B2A182E08ABDF817
:103180000410084401B2E18200BF00BF74E72DE9DA
:10319000F84F0446D4F828B0BBF1000F01D1BDE8C8
:1031A000F88F94F83C0000F00F0000B9F7E713F037
:1031B0008BF906463068477E4021584617F00BFBD6
:1031C00010B9002161832183584616F035FA8046F4
:1031D000584616F03BFA054694F83C0000F00F0004
:1031E0000C2843D1002121831DBBB4F91A00C7F17B
:1031F00064014843642190FBF1F001B261835846B9
:1032000016F0CAF88146584616F02AFA82460C2073
:103210000090B4F91A104B465246584608F084FC08
:103220006083B4F91A2000231946584618F0B6FCFA
:1032300069E020461EF007FD0090002161836A4688
:1032400020461EF0A9FCBDF9003041F6FF72514244
:10325000584609F091FB8146BDF80000484402B28F
:1032600001230021584618F099FC4CE094F83C00EA
:1032700000F00F00032846D100216183B8F1000F50
:1032800023D1B4F91800C7F164014843642190FBCD
:10329000F1F001B22183584616F0E8F8814658460D
:1032A00016F05CF9824603200090B4F918105346DA
:1032B0004A46584608F038FC2083B4F91810002319
:1032C0001A46584618F06AFC1DE020461EF0A0FC85
:1032D0000090002121830022694620461EF05CFCFC
:1032E000BDF9003041F6FF725142584609F0AAFA82
:1032F0008146BDF80000484401B20123002258462F
:1033000018F04CFC00BF208B002860D1608B002897
:103310005DD11DBB584616F0A3F98146584616F0FC
:103320003BF88246B9F1000F02DCBAF1000F14DD60
:10333000B9F1000F06DA01234A460021584618F079
:103340002DFC0AE0BAF1000F07DA0123CAF10000F0
:1033500002B20021584618F021FC00BFB8F1000F5E
:1033600023D1584616F082F88146584616F0F6F8F2
:103370008246B9F1000F02DCBAF1000F14DDB9F199
:10338000000F06DA012300224946584618F006FCD1
:103390000AE0BAF1000F07DA01230022CAF10000A7
:1033A00001B2584618F0FAFB00BF32460A215846CF
:1033B00011F06CF86078C0F3400000B1EFE694F8CB
:1033C0003C0020F00F0184F83C100021A16200BFF6
:1033D000E5E60000F0B585B004460F4614B90DF0DF
:1033E000E1FD04460CB905B0F0BD20460DF073FEBA
:1033F00000B9F8E794F82800C0F3800040B13DA080
:10340000474BD42247A10090032000F055F9EAE78A
:103410001FB90020A4F85001E5E70020ADF80C002A
:10342000ADF80E0020460DF0D5FD401E00B2ADF8FF
:10343000100020460DF034FE401E00B2ADF8120020
:1034400003AA394601A8FFF731F9064606B9CAE7CB
:103450002068007CC0F3400060B1039820630498AA
:1034600060630120A4F85001606810B160681AF030
:103470008DFCB8E72068806918B1206801A98269CD
:10348000904700250BE004F1300000EBC50100225D
:1034900001A8FFF74CF900B1A5E7681C85B2B4F8A4
:1034A0005001A842EFDCB4F85001202809DAB4F842
:1034B000502104F1300101EBC20001A90CF096FE8D
:1034C0000BE00020A4F85001B4F8502104F13001C1
:1034D00001EBC20003A90CF089FEB4F85001401CB6
:1034E000A4F85001606810B160681AF04FFC00BF8A
:1034F00079E700006465746563746564206D6F64CA
:10350000696679696E672064697274792061726591
:10351000617320696E2072656E6465720000000040
:10352000B54A02082E2E5C6C76676C5C7372635C25
:10353000636F72655C6C765F726566722E63000005
:10354000014609B9002070474868FCE770B5064697
:1035500000243046FFF7F4FF054605E0641C2946C9
:10356000304600F005F80546002DF7D1204670BD25
:1035700002460B461068001D034418687047024657
:103580000B461068034418687047014609B90020CB
:1035900070478868FCE7002242608260CA1C22F003
:1035A00003010160704770B50446216801F108000D
:1035B00014F092F90546A5B10022294620461CF0D8
:1035C00027FC2946204662681CF014FC606820B184
:1035D0002A46204661681CF01BFC6560A06800B9A3
:1035E000A560284670BD70B50446216801F1080049
:1035F00014F072F90546A5B10022294620461CF0B8
:10360000F9FB29462046A2681CF002FCA06820B104
:103610002A462046A1681CF0EDFBA560606800B951
:103620006560284670BD2DE9F04104460D460CB991
:10363000BDE8F0812046FFF783FFA8420FD129465D
:103640002046FFF795FF6060606810B90020A06019
:103650002FE00022204661681CF0DAFB29E02046BA
:10366000FFF793FFA8420FD129462046FFF787FFB7
:10367000A060A06810B9002060601AE00022204617
:10368000A1681CF0B7FB14E029462046FFF777FF3E
:10369000064629462046FFF76BFF07463A46314665
:1036A00020461CF0A7FB3246394620461CF0B0FBF2
:1036B00000BF00BFBCE700002DE9FE4F07460D46E6
:1036C00091469846062F01DBBDE8FE8F032F38DBBD
:1036D0000DA802902846FCF7D9FD044608E0285DB5
:1036E0002F2802D0285D5C2801D1641C02E0641EF2
:1036F000002CF4D100BF1AF0CDF906464FF47A70D1
:10370000B6FBF0F100FB116AB6FBF0FB0E48006857
:10371000301ACDE900080D4850F8271053465A4694
:103720000BA0FEF787FE02990C98FEF7ADFE291953
:103730004A460EA0FEF77EFE034806600020029077
:1037400000BF00BFC0E70000C8020020CC0200207C
:103750005B25735D092825642E253033642C202BCE
:10376000256429092025733A2000000020092869D2
:103770006E202573206C696E6520232564290A005C
:1037800010B504462068806818B120682146826818
:1037900090472068006828B12068006820602046B3
:1037A000FFF7EEFF10BD0146886818B18868B0F9D0
:1037B000160070470020FCE70146886818B1886849
:1037C000807E800970470020FCE72DE9F041044627
:1037D0000D4616461DB916B90120BDE8F0812046F8
:1037E00014F0D4FCA068008A284400B2A1680882C2
:1037F000A068408A304401B2A06841820123324669
:103800002946204617F006FB00220B21204610F027
:103810003DFE0746012F01D03846DEE7204617F06F
:103820004BFA0120D9E7F7B582B004460E4614B929
:10383000049805B0F0BD00BF61223146204616F065
:103840008DFD0190019D00BFBDB12868A8B100BFEA
:1038500062223146204616F081FD01900198C0B2E7
:1038600007464FB13A462B6828460499984701907D
:10387000BDF80400ADF8100000BF0498D9E70000BF
:103880002DE9F04F99B004468B4691469A46229D09
:10389000608C20F00400001D6084A4F820902A8928
:1038A0005946204616F05AFD1890A4F820A02A89FF
:1038B0005946204616F052FD1790608C20F0040007
:1038C0006084DDE9171088420CD1DDE917108842C9
:1038D00008D1BDF86000BDF85C10884202D119B073
:1038E000BDE8F08FA4F820902A895946204616F0AA
:1038F00035FD1890A4F820A0594620460AF080F91A
:1039000016902989169A1068189A19F099FE288934
:103910000B2833D147F6FF711898884202D01798C8
:1039200088422BD1204616F04DFF029000EBD0705C
:103930004710204615F0C8FC029000EBD0704FEA0B
:10394000600847F6FF711898884208D1781C08F182
:103950000101884200DA01E008F10100189047F601
:10396000FF711798884208D1781C08F1010188423C
:1039700000DA01E008F10100179000BF2748FFF7C7
:1039800012FE064600BF76B925A029A12BA2334B13
:10399000CDE9002102904FF4B37231A10320FFF76B
:1039A0008BFE00BFFEE700BF06B998E71898F060ED
:1039B0001798306134602889B080C6F808B003A831
:1039C0000CF0E0FA314603A80CF061FB2C4903A887
:1039D0000CF036FB2B48059000BF2B4903A80CF0D8
:1039E00037FBFF22002103A80CF047FB298803A81E
:1039F0000CF037FB698803A80CF01BFBE8680A9001
:103A000000BF03A9002081F8420000BF2869099087
:103A100003A80CF051FB00BF61E700004C570020E9
:103A20004F7574206F66206D656D6F7279000000B0
:103A3000747220213D204E554C4C0000417373653B
:103A4000727465642061742065787072657373693F
:103A50006F6E3A202573202825732900754A0208C5
:103A60002E2E5C6C76676C5C7372635C636F726540
:103A70005C6C765F6F626A5F7374796C652E63004D
:103A800009330208AD350208DD34020810B51421EF
:103A90000148FFF780FD10BD4C5700202DE9FE4F77
:103AA00004460F4690464FF0000900254CE1E068BF
:103AB00000EBC5004068C0F3406000B143E1E1683D
:103AC00001EBC501496821F07F4018F04DFC064626
:103AD00026EA070008B9012000E00020029026EA4B
:103AE000080008B9012000E000200190DDE9010193
:103AF000814270D0E06850F835A04FF0000B6A4664
:103B00001021504619F010F910B14FF0010B98E058
:103B10006A461121504619F007F910B14FF0010B18
:103B20008FE06A461221504619F0FEF810B14FF0AE
:103B3000010B86E06A461321504619F0F5F810B1E2
:103B40004FF0010B7DE06A461521504619F0ECF864
:103B500010B14FF0010B74E06A461421504619F081
:103B6000E3F810B14FF0010B6BE06A460A215046B2
:103B700019F0DAF810B14FF0010B62E06A466A21E1
:103B8000504619F0D1F810B14FF0010B59E06A46D8
:103B90006B21504619F0C8F810B14FF0010B50E0FE
:103BA0006A460121504619F0BFF810B14FF0010BE1
:103BB00047E06A460421504619F0B6F810B14FF0BC
:103BC000010B3EE06A460221504619F0ADF818B1EB
:103BD0004FF0010B35E0B5E06A460321504619F07D
:103BE000A3F810B14FF0010B2BE06A4605215046B7
:103BF00019F09AF810B14FF0010B22E06A46062145
:103C0000504619F091F810B14FF0010B19E06A46D7
:103C10003221504619F088F810B14FF0010B10E036
:103C20006A466D21504619F07FF810B14FF0010B34
:103C300007E06A466C21504619F076F808B14FF05B
:103C4000010BBBF1000F02D00320BDE8FE8F6A46D6
:103C50006821504619F068F810B14FF0020970E081
:103C60006A466921504619F05FF810B14FF0020919
:103C700067E06A466D21504619F056F810B14FF0D2
:103C800002095EE06A466C21504619F04DF810B109
:103C90004FF0020955E06A463721504619F044F8C2
:103CA00010B14FF002094CE06A463821504619F035
:103CB0003BF810B14FF0020943E06A463521504607
:103CC00019F032F810B14FF002093AE06A4640218B
:103CD000504619F029F810B14FF0020931E06A4658
:103CE0004521504619F020F810B14FF0020928E0A4
:103CF0006A464121504619F017F810B14FF00209F9
:103D00001FE06A464221504619F00EF810B14FF0FC
:103D1000020916E06A464321504619F005F810B131
:103D20004FF002090DE06A464921504618F0FCFFA9
:103D300010B14FF0020904E0B9F1000F01D14FF0CA
:103D4000010900BF00BF6D1C608CC0F3C500A84214
:103D50003FF6ADAE484678E701480068704700007E
:103D60005002002070470146C1F30412072A00DD0B
:103D70000722D0B27047000001464FF6FF70814223
:103D800001D11F20704709B90020FBE7702902DA32
:103D90000948405CF6E7A1F1700081B2074800686D
:103DA00038B107480068814203D204480068405C8B
:103DB000E8E70020E6E700002A370308C0020020F9
:103DC000F002002010B518210348FFF7E4FB0120A2
:103DD00019F0F4FE10BD0000F85600202DE9F04166
:103DE00006460C4617461D4629463046084A1268C4
:103DF00090472060206830B1296888190021044A62
:103E00001268904700E000203860BDE8F0810000B3
:103E1000180300202DE9F04F87B004460F46924664
:103E20009846DDE910560DB1002028801CB900200D
:103E300007B0BDE8F08F207808B90020F8E70FB987
:103E40000020F5E74FF0000906F0020010B906F077
:103E5000040098B1002000E0401C215C0A2905D034
:103E6000215C0D2902D0215C0029F5D1215C01B132
:103E7000401C15B14FF0FF312980D9E706F0020050
:103E800008B141F6FF7800200690059038E0002048
:103E90000490059808B9012000E0002006A904AAB2
:103EA000CDE90062CDE902100599601843465246FB
:103EB00039461AF0FFF983460498A8EB00000FFA80
:103EC00080F8049848440FFA80F9BBF1000F00D144
:103ED0001CE005985844059020780A2802D02078E4
:103EE0000D2800D112E00598205C0A2803D005981F
:103EF000205C0D2803D10598401C059006E000BF0A
:103F00000598205C10B1B8F1000FC0DC00BF059827
:103F100070B905A92046094A12689047834635B111
:103F200000225946384610F0ADFC0FFA80F900BF68
:103F30000DB1A5F8009005987AE70000180300205D
:103F4000024600200FA31B788B4211D113781BB9B6
:103F50000123137001200BE01378012B02D1002301
:103F6000137005E01378022B02D100231370012097
:103F70001378012B04D1202901D1022313700120D1
:103F8000704700002300000073B584B00646059812
:103F90000390324600210846039B1AF0ABFC05460D
:103FA000002003900024681C13F096FC044600BF18
:103FB00074B90FA012A116A21D4BCDE900210290E9
:103FC00040F2E1121BA10320FFF776FB00BFFEE7E2
:103FD00000BF14B9002006B070BD00206055324605
:103FE000691C2046059B1AF085FC2046F3E700007B
:103FF0004F7574206F66206D656D6F7279000000DB
:104000007465787420213D204E554C4C0000000012
:104010004173736572746564206174206578707291
:10402000657373696F6E3A20257320282573290004
:10403000843903082E2E5C6C76676C5C7372635C4B
:104040006D6973635C6C765F7478742E6300000036
:104050002DE9F04781460E4614461F46DDF820A0A4
:1040600035461BE0600800FB075529464846D04707
:10407000B0F1000809DD04F0010080F00100C0EBA0
:104080005404E8190546064608E0B8F1000F02DAC4
:104090006408354602E02846BDE8F087002CE1D1EF
:1040A0000020F9E72DE9FF4F85B08346DDE9158A49
:1040B000DDE91349DDE91775129E05F00200F8B934
:1040C0004FB105F0010030B1B9F1000F02D105F098
:1040D0000C0000B17F1E03E030222046641C3254E5
:1040E000544501D2202CF7D303E030222046641C33
:1040F000325405F0010018B1BC4201D2202CF4D397
:1041000005F01000B0B305F4806050B94CB15445CF
:1041100001D0BC4205D1641E1CB1B8F1100F00D112
:10412000641EB8F1100F09D105F0200030B9202C21
:1041300004D278222046641C325415E0B8F1100FE6
:1041400009D105F0200030B1202C04D2582220469D
:10415000641C325408E0B8F1020F05D1202C03D2C0
:1041600062222046641C3254202C03D23022204686
:10417000641C3254202C16D2B9F1000F04D02D2229
:104180002046641C32540EE005F0040020B12B22BE
:104190002046641C325406E005F0080018B12022C5
:1041A0002046641C3254CDE90275CDE900645846BE
:1041B00006A90EC900F0A2F809B0BDE8F08F2DE9FC
:1041C000FF4F8FB08046DDE91FABDDE91D96219DD5
:1041D0001C9C00270CB925F0100505F4806000B187
:1041E000E4B100BFB4FBF6F106FB1141C8B20A28E6
:1041F00002DA00F1300107E005F0200109B14121A8
:1042000000E0612101440A39CBB239467F1C07AA7C
:104210005354B4FBF6F40CB1202FE3D307A8CDE937
:1042200004AB8DE8810203960695404610A90EC99D
:10423000FFF738FF13B0BDE8F08F2DE9FF4F8FB0C7
:10424000DDE9217BDDF89080209EDDE91C454FF003
:104250000009002184EA01006940084301D128F0E7
:10426000100808F4806028B1002184EA0100694048
:1042700008432DD000BF32463B4620462946FBF777
:104280009FFF02F0FF0ABAF10A0F02DA0AF13000CA
:1042900007E008F0200008B1412000E06120504410
:1042A0000A38C2B2484609F1010907A90A54324640
:1042B0003B4620462946FBF783FF04460D46002176
:1042C00084EA01006940084302D0B9F1200FD2D33B
:1042D0002398CDE9036BCDE9050807A91E98CDE920
:1042E000001902900FA80FC8FFF7DCFE13B0BDE85D
:1042F000F08F9A4200D28854704770472DE9FF5FD3
:1043000005461446DDE90EA6DDE91087A34607F051
:10431000020078B907F0010060B9B14607E0224613
:10432000641C2020039B0199A84709F10109C1459C
:10433000F5D300BF08E02246641C711E0E461AF831
:104340000100039B0199A847002EF4D107F0020059
:1043500050B105E02246641C2020039B0199A84728
:10436000A4EB0B004045F5D3204604B0BDE8F09F18
:104370002DE9FF4F95B09A46884606460025EEE1A6
:10438000252877D100242746F94A0121039400E02B
:10439000044316F8013F203B01FA03F01042F7D125
:1043A00030782A2811D06FF02F033078A0F1300236
:1043B000092A16D8039A44F0020402EB820203EBA6
:1043C00042021044761C0390EFE758F8042B039246
:1043D000002A03DA504244F40054039044F00204EB
:1043E000761C30782E2816D116F8010F44F00404FC
:1043F0002A280DD06FF02F023078A0F13003092B5E
:1044000009D807EB870302EB4303C718761CF3E7D1
:1044100058F8047B761C30786C280FD006DC4C28CA
:1044200017D068280DD06A2814D104E0742810D061
:104430007A280FD10DE044F400140AE044F480140B
:1044400001E044F440147278824202D104F58014F1
:10445000761C761C307866280BD013DC582877D071
:1044600009DC002875D04528F6D04628F4D0472826
:104470001AD193E118E0632835D0642879D06528F3
:1044800012D18BE1702873D008DC6728F1D069283D
:104490006FD06E280DD06F2806D1ACE073282CD0D9
:1044A000752874D0782853D05246179990476D1CC0
:1044B00054E1C4F30250022809D003280DD0D8F8E3
:1044C000001004280DD00D6008F1040846E1D8F86A
:1044D0000010EA17C1E90052F6E7D8F800100D8085
:1044E000F2E70D70F0E718F8041B8DF800100020BB
:1044F0008DF80100EB46012003E058F804BB4FF0B3
:10450000FF3061074FF0000102D40DE009F1010115
:104510008946B9420FDA8145F8DB1BF809100029FA
:10452000F4D108E009F1010189468142FADB1BF868
:1045300009100029F6D103985346A0EB090721463C
:104540003846179A00F080FA284400EB090507E086
:1045500044E008E10DE01BF8010B52461799904723
:10456000B9F10109F7D2534621463846179AF2E0CD
:1045700039E00A21C4F302524FF0000B0091022AE5
:1045800006D058F8040BC117032A09D00AE023E02B
:1045900008F1070020F00702F2E80201904605E06A
:1045A00000B2C117042A01D140B2C117002906DAAE
:1045B0000A460021404261EB02012D2202E0220561
:1045C00004D52B228DF80420012203E0E20701D05C
:1045D0002022F7E7914657E00A2100E010214FF032
:1045E000000B00910BE010214FF0000B44F004048D
:1045F0000827009103E008204FF0000B0090C4F35F
:104600000252022A05D058F8040B0021032A08D0D0
:1046100008E008F1070020F00702F2E802019046E6
:1046200003E080B2042A00D1C0B24FF00009220793
:104630002AD53278702A07D0DDF800C08CF0100C33
:104640005CEA0B0C05D00EE040228DF8042001221C
:1046500008E050EA010306D030238DF804308DF8CD
:10466000052002229146009B83F0080353EA0B03C6
:104670000AD150EA010201D1620705D530228DF836
:1046800004204FF001097F1E3278582A04D039A245
:104690000C920CAA02920BE03BA2F9E75B46009A4F
:1046A000FBF78EFD0C9B9B5C029A521E02921370CC
:1046B00050EA0102F2D1029804A9081A00F1200B75
:1046C000600702D524F4803400E001275F4502DD55
:1046D000A7EB0B0000E0002000EB0B01009003981B
:1046E0004944401A0390E00306D453462146179AE2
:1046F000039800F0A9F90544002706E001A85246F6
:10470000C05D179990476D1C7F1C4F45F6DBE00399
:104710000CD553462146179A039800F095F90544A5
:1047200004E030205246179990476D1C0099481EAE
:1047300000900029F5DC08E00298029952460078C2
:10474000491C0291179990476D1CBBF10001ABF118
:10475000010BF1DC5BE100F065F90544761C307873
:1047600000287FF40DAE19B02846BDE8F08F000098
:104770000928010030313233343536373839616237
:1047800063646566000000003031323334353637FB
:10479000383941424344454600000000600700D4D8
:1047A000062708F1070020F00700F0E80223804602
:1047B00003F0004C5FEA0C0001D097A009E020054F
:1047C00001D596A005E0E00701D095A001E0AFF289
:1047D0004C001390307823F0004365280CD006DCA1
:1047E000452809D046281DD047287FD13BE06628C0
:1047F00018D067287AD136E00021112F01DB112073
:1048000000E0781CCDE9000104A90CA8FDF768FEC2
:10481000DDE90D010C9A4FF0000B07F10109109230
:1048200000914EE04FF000400097CDE9011004A93F
:104830000CA8FDF755FEDDE90D020C9B0F994FF01A
:10484000000B91461093009211B9791C00EB0109FD
:10485000B7EB090003D4C0F1FF3B07F10109A9EB55
:104860000700019042E0012F00DA01270021112FFB
:1048700001DD112000E03846CDE9000104A90CA8B3
:10488000FDF72EFEDDE90D010C9A00914FF0000BB3
:10489000B946109221070FD4009A4A4503DA91468F
:1048A00001E0A9F10109B9F1010F05DD109AA9F1A3
:1048B0000101515C3029F4D0B84202DA10F1040F42
:1048C00003DA0121CDE9011010E0002803DC834464
:1048D000A9EB000102E0411C494500DD8946A0EB3F
:1048E0000B00401C01904FF000400290200705D4BF
:1048F0000198484502DB4FF0FF30019000208DF811
:104900004B0002980DF14B07B0F1004F25D002206B
:104910000C902B200D90029800280CDA4042029057
:104920002D200D9007E00A210298FBF7FAFD3031A7
:10493000029007F8011D0C99481E0C900029F2DC2A
:1049400002980028EFD1791E0D980870307800F099
:10495000200040F0450007F8020D11A8C01BC01D43
:1049600002901398007800B1012000EB0901019832
:1049700001EBE071029801440398401A401E039035
:10498000E00306D453462146179A039800F05CF8DA
:1049900005441398007818B15246179990476D1C3A
:1049A000E00323D553462146179A039800F04CF8AC
:1049B00005441BE0BBF1000F07DB0098584504DD00
:1049C0001098179910F80B0001E017993020524603
:1049D000904701980BF1010B401E05F10105019074
:1049E00004D12E205246179990476D1CB9F1000151
:1049F000A9F10109DEDC05E017F8010B5246179911
:104A000090476D1C0299481E02900029F4DC534621
:104A10002146179A03989EE62D0000002B00000007
:104A2000200000002DE9F041044600251E461746EF
:104A3000880404D405E039462020B0476D1C641E6C
:104A4000F9D52846BDE8F0812DE9F041044600255E
:104A50001E469046C80301D5302700E02027880471
:104A600004D505E041463846B0476D1C641EF9D5B3
:104A70002846BDE8F0814A68002A06D00A68531C1F
:104A80000B6010704868401E486070472DE9FF4F6A
:104A90008BB0074600250C9800B9FA4FEAE20E9851
:104AA000007825280AD02A466D1C0E990878DDE981
:104AB0000C13B8470E98401C0E90DBE20E98401C79
:104AC0000E90002400BF0E9800782B2819D004DC2B
:104AD00020281ED023282CD123E02D2809D03028CF
:104AE00027D144F001040E98401C0E9001200A903A
:104AF00022E044F002040E98401C0E9001200A901F
:104B00001AE044F004040E98401C0E9001200A9014
:104B100012E044F008040E98401C0E9001200A9008
:104B20000AE044F010040E98401C0E9001200A90F8
:104B300002E000200A9000BF00BF0A980028C2D1FE
:104B400080460E990878FDF78DFD20B10EA8FDF77F
:104B5000B2FC804612E00E9800782A280ED11899EF
:104B600001C91891002804DA44F00204C0F10008D9
:104B700000E080460E99491C0E9100BF4FF00009DD
:104B80000E9800782E281FD144F480640E98401CA3
:104B90000E900E990878FDF765FD20B10EA8FDF77F
:104BA0008AFC814610E00E9800782A280CD11899CA
:104BB00001C91891002801DD014600E00021894665
:104BC0000E99491C0E9100BF0E9800786C280AD0EF
:104BD00004DC682816D06A2835D128E0742820D053
:104BE0007A2830D129E044F480740E98401C0E904D
:104BF0000E9800786C2804D144F400740E98401C80
:104C00000E9021E044F080040E98401C0E900E9807
:104C10000078682804D144F040040E98401C0E909F
:104C200012E044F480740E98401C0E900CE044F4A2
:104C300000740E98401C0E9006E044F480740E98A8
:104C4000401C0E9000E000BF00BF0E98007869285D
:104C50001DD00EDC622821D006DC25287ED050280D
:104C60001AD058287BD115E0632879D06428F9D16F
:104C70000CE0732875D004DC6F280ED07028F1D1B9
:104C800009E0752804D07828ECD102E000BF00BF0D
:104C900000BF00BF00BF00BF00BF00BF0E9800787C
:104CA000782803D00E980078582801D1102623E0E8
:104CB0000E980078702803D00E98007850280CD1F8
:104CC000102644F0100444F480740E98407856285E
:104CD00012D10E98401C0E900EE00E9800786F28AE
:104CE00001D1082608E00E980078622801D102263A
:104CF00002E00A2624F010040E980078582803D009
:104D00000E980078502801D144F020040E980078C5
:104D1000692805D00E980078642801D024F00C048E
:104D200004F4806008B124F001040E98007869282A
:104D300003D00E98007864287CD104F40070B8B3D6
:104D40001898C01D20F007001890D0E900AB189A01
:104D5000083218920020CDE9069803E073E17CE167
:104D6000F2E01CE1CDE904600894BAEB00017BEBB2
:104D7000000001DA012000E0002000210290084636
:104D8000B1EB0A0170EB0B0002DA5046594605E020
:104D900000200146B0EB0A0061EB0B01CDE90001F8
:104DA0002A463846DDE90C13FFF747FA0546C7E007
:104DB000FFE704F48070D0B1189850F804AB189055
:104DC0004FEADA70CDE9039802960594BAF1000F24
:104DD00001DD514601E0CAF10001CDE900102A468B
:104DE0003846DDE90C13FFF7EAF90546A8E004F0C0
:104DF000400028B1189810F8041B1890C8B20DE0B4
:104E000004F0800028B1189830F8041B189008B2FC
:104E100004E0189800681899091D189182464FEA15
:104E2000DA70CDE9039802960594BAF1000F02DD1D
:104E3000514602E00BE0CAF10001CDE900102A461C
:104E40003846DDE90C13FFF7BAF9054678E00E980D
:104E50000078562818D1189850F804AB1890DAF852
:104E600004000068099009980090DAF800300D9865
:104E7000421B0C9841193846FFF708FE05440020F4
:104E800009905DE0FB42000804F40070D0B118986E
:104E9000C01D20F00700CDE9069808941890002066
:104EA000CDE904600290189903C9189A0832189243
:104EB000CDE900012A463846DDE90C13FFF7BDF9BC
:104EC00005463DE004F4807098B10022CDE90398D6
:104ED00002960594189800681899091DCDE90002FA
:104EE00018912A463846DDE90C13FFF768F90546A4
:104EF00026E004F0400028B1189810F8041B189020
:104F0000C8B20DE004F0800028B1189830F8041BF6
:104F1000189088B204E0189800681899091D189133
:104F200082460020CDE900A0CDE9039802960594C1
:104F30002A463846DDE90C13FFF741F9054600BF64
:104F40000E98401C0E9093E0012604F0020050B928
:104F500005E02A466D1C2020DDE90C13B8473046D9
:104F6000761C4045F5D3189911F8043BD8B22A466F
:104F70006D1C1891DDE90C13B84704F0020050B124
:104F800005E02A466D1C2020DDE90C13B8473046A9
:104F9000761C4045F5D30E98401C0E9068E018989A
:104FA00050F804AB18905046B9F1000F01D04946B3
:104FB00001E04FF0FF310A46014600E0491C0B7842
:104FC0001BB1131EA2F10102F8D10E1A04F4806085
:104FD00028B14E4501D2304600E04846064604F06E
:104FE000020050B905E02A466D1C2020DDE90C13B3
:104FF000B8473046761C4045F5D306E01AF8010B59
:105000002A466D1CDDE90C13B8479AF8000040B140
:1050100004F480600028F1D0B9F10000A9F1010981
:10502000ECD104F0020050B105E02A466D1C2020AE
:10503000DDE90C13B8473046761C4045F5D30E9891
:10504000401C0E9014E02A466D1C2520DDE90C134F
:10505000B8470E98401C0E900AE02A466D1C0E9927
:105060000878DDE90C13B8470E98401C0E9000BF7D
:1050700000BF00BF0E98007800287FF410AD0D9897
:10508000854201D2284601E00D98401E02460020CC
:10509000DDE90C13B84728460FB0BDE8F08F2DE9C5
:1050A000FF4F84B088469146DDF858C011990391AE
:1050B000129902910020CDE0DDF84CA00AFB00FA25
:1050C000DDF80CB00BEB2A2ACDF844A0DDF850A097
:1050D0000AFB00FADDF808B00BEB2A2ACDF848A04D
:1050E000DDF844A04FEA2A21DDF848A04FEA2A2241
:1050F000002905DB414503DA002A01DB4A4504DBD0
:105100004FF0000A0CF800A0A2E0DDF844A00AF07D
:10511000FF03DDF848A00AF0FF04802B06DA4FF009
:10512000FF35C3F17F0A4FEA4A0304E00125A3F1EA
:10513000800A4FEA4A03802C06DA4FF0FF36C4F1AA
:105140007F0A4FEA4A0404E00126A4F1800A4FEAEC
:105150004A04049FDDF81CA002FB0A1A574401EB25
:10516000050ABAF1000F46DB01EB050BA8F1010AB5
:10517000D34540DC02EB060ABAF1000F3BDB02EB41
:10518000060BA9F1010AD34535DC97F800A017F802
:1051900005B0CDF804B0DDF81CB006FB0BFB17F82A
:1051A0000BB0CDF800B0DDF804B0D3450BD0DDF87E
:1051B00004B00BFB04FBC4F5807E0AFB0EBBCBF3F3
:1051C000072BCDF804B0DDF800B0D3450BD0DDF8E7
:1051D00000B00BFB03FBC3F5807E0AFB0EBBCBF3D9
:1051E000072BCDF800B0DDE900EBF3444FEA6B0B81
:1051F0000CF800B02BE009B9002D05DBA8F1010A7D
:105200008A450CD1002D0ADD97F800A0C3F1FF0BF1
:105210000AFB0BFACAF3072A0CF800A017E00AB938
:10522000002E05DBA9F1010A92450CD1002E0ADD02
:1052300097F800A0C4F1FF0B0AFB0BFACAF3072A88
:105240000CF800A003E04FF0000A0CF800A000BF2B
:10525000411C08B215998842FFF62EAF08B0BDE890
:10526000F08F2DE9F04104460E46002774B1314617
:10527000204600F0C3F80546B5F5004F05D20C2DC9
:1052800001D9284600E00C20074600BF3846BDE89B
:10529000F08100007CB505460C4600BF601E204032
:1052A00000280CD008A018A11E4B40F2ED12CDE949
:1052B00000101DA10320FEF7FFF900BFFEE700BFAD
:1052C000601E2840281A7CBD30203D3D2028616C9E
:1052D00069676E20262028616C69676E202D203159
:1052E000292920262620226D75737420616C696738
:1052F0006E20746F206120706F776572206F66205A
:1053000074776F22000000004173736572746564E6
:105310002061742065787072657373696F6E3A20CE
:1053200025730000253803082E2E5C6C76676C5CB4
:105330007372635C6D6973635C6C765F746C7366C7
:105340002E6300007CB505460C46601E2844611E95
:1053500020EA010600BF601E204000280CD008A0F3
:1053600017A11E4B40F2F512CDE900101CA103203D
:10537000FEF7A2F900BFFEE700BF30467CBD00008B
:1053800030203D3D2028616C69676E202620286111
:105390006C69676E202D2031292920262620226D58
:1053A00075737420616C69676E20746F2061207062
:1053B0006F776572206F662074776F22000000009F
:1053C00041737365727465642061742065787072CE
:1053D000657373696F6E3A202573000030380308D7
:1053E0002E2E5C6C76676C5C7372635C6D697363A4
:1053F0005C6C765F746C73662E6300007CB505464A
:105400000C4600BF601E204000280CD009A019A146
:105410001F4B40F2E712CDE900101EA10320FEF75A
:105420004BF900BFFEE700BF601E2844611E8843A1
:105430007CBD000030203D3D2028616C69676E20F6
:10544000262028616C69676E202D203129292026AD
:105450002620226D75737420616C69676E20746FED
:10546000206120706F776572206F662074776F22DD
:1054700000000000417373657274656420617420DC
:1054800065787072657373696F6E3A2025730000DA
:105490001C3803082E2E5C6C76676C5C7372635C40
:1054A0006D6973635C6C765F746C73662E63000069
:1054B0002DE9FE4F81460E46924699F8090000F00C
:1054C0000700022801D1304600E050468346564589
:1054D00001DD304600E050460746032000EB470060
:1054E00020F0030000F110053E4800683E490968BD
:1054F000A0EB0108002405EB08003C49096888423C
:1055000006D238480468606820F00040606044E0DB
:1055100036480068854221D813E04FF0FF300290F2
:10552000002202A932480AF075F9002202A9314886
:105530000AF070F92B4800682B490968A0EB0108B4
:1055400000BF08EB0500294909688842E5D82548CD
:105550000468606820F0004060601EE0284612F099
:10556000BBF9044600BF6CB923A027A12AA2324B85
:10557000CDE900210290C32230A10320FEF79CF860
:1055800000BFFEE700BF14B90020BDE8FE8F6068D1
:1055900020F0004000F10040606032465946484625
:1055A00002F08CFA2060606800F04040401C6060AF
:1055B000606820F080406060A781A4F80EB0606849
:1055C000C00F20B1204600F11001A16008E005489D
:1055D00000681030A0600348006828440149086052
:1055E0002046D2E76C020020BC02002068020020A6
:1055F0000BC6000895F800084F7574206F66206D83
:10560000656D6F72790000006974656D20213D2021
:105610004E554C4C00000000417373657274656414
:105620002061742065787072657373696F6E3A20BB
:105630002573202825732900AC4B02082E2E5C6CA4
:1056400076676C5C7372635C647261775C73775CC1
:105650006C765F647261775F73775F6772616469AC
:10566000656E742E6300000010B5012007490870B4
:105670000748FDF765FF20B90648006818F07AFB77
:1056800003E00448006818F081FB10BD9802002078
:10569000285700209C02002010B5044694F84800CA
:1056A00000F0010070B9B4F8400000280ADDB4F839
:1056B00040004FF6FF71884204D0B4F84000401E0D
:1056C000A4F84000B4F84000D0B9A06B20B194F821
:1056D000480000F0010098B121461948FDF7A3FFEA
:1056E000FFF7C2FFE06810B12046E16888472069F3
:1056F00010B120462169884720460FF017F91EE0B7
:10570000E06B40422063A06BC8B194F8481001F0F0
:10571000010111B9616B4942216394F84810C943F2
:1057200094F8482061F3000284F84820206AA16AB6
:105730002162A062E06AA16BE162A06300BF10BDBC
:10574000285700202DE9F04180464148007880F03C
:1057500001003F4908703F48FDF7F2FE044673E040
:10576000606C18F089F9064618F094F9606400201E
:105770003949087094F84800C0F34000344909786A
:10578000884253D0324801783034207E61F34100A2
:10579000207620688719207E303CC0F3800010BB43
:1057A000206B00281FDC002F1DDB94F8420000F066
:1057B000010060B9606950B12046616988470546BB
:1057C000206A28442062A06A2844A06200BFA06822
:1057D00010B12046A168884794F8480020F00400E2
:1057E000001D84F84800206B30442063206B0028A3
:1057F0001BDBD4E90B10884201DDE06A2063204600
:10580000E16988470546606AA84206D0656260681B
:1058100018B12946D4E900029047D4E90B10884218
:1058200002DB2046FFF738FF00BF00BF0A480078C0
:1058300020B10848FDF784FE044604E021460548EF
:10584000FDF796FE044600BF002C89D1BDE8F0812B
:1058500099020020285700209802002070B50446C5
:105860000D46606818B129466068FFF7F7FF2068A9
:1058700018B1294620462268904770BD2DE9FF4F98
:105880008FB01F46DDF888801C980E901D980D90F3
:1058900000200B902398042806D0052809D006285C
:1058A0000CD014281AD114E000200C904FF00209FB
:1058B00017E001200C904FF0030912E001200C903A
:1058C0004FF00209FEF748FA05462868808E0B90D3
:1058D00007E001200C904FF0020902E013B0BDE890
:1058E000F08F00BF002489E11E9860430E9901EB00
:1058F00020201C901F9860430D9901EB20201D90E3
:105900001C9805121D980612002D07DB1098854281
:1059100004DA002E02DB1198864203DB002008F82F
:10592000040069E11C98C0B20A901D9800F0FF0ABB
:105930000A98802807DA4FF0FF3B0A98C0F17F00F1
:1059400040000A9005E04FF0010B0A9880384000B3
:105950000A90BAF1800F07DA4FF0FF300990CAF1D0
:105960007F004FEA400A05E001200990AAF180007B
:105970004FEA400A0F98089006FB07F000FB09F079
:1059800005FB090108980844089005EB0B00002866
:105990007EDB05EB0B011098401E814278DC0998F4
:1059A00030440028F4DB099831181198401E8142D8
:1059B000F4DC0898079008980BFB090006900998FA
:1059C00000FB07F1089801FB090005900C980028DE
:1059D0007FD0239B052B06D1079B9878059B997850
:1059E000069B9A783BE0239B142B18D1DDF844C02A
:1059F00007FB0CFCDDF83CE00EEB4C0306FB073C20
:105A00001CF8050006FB073CAC441CF80B20DDF835
:105A100024C0B4440CFB073C1CF805101FE0239B7A
:105A2000062B19D1079B1B88BDF82CC063450BD0F2
:105A3000059B1B88BDF82CC0634505D0069B1B88C1
:105A4000BDF82CC0634503D1002308F80430D3E02F
:105A5000FF20FF21FF2202E0FF20FF21FF228142E1
:105A600007D001FB0AF3CAF5807C00FB0C33C3F3BB
:105A70000721824209D00A9B5343DDF828C0CCF5A8
:105A8000807C00FB0C33C3F307228B185B1000E013
:105A900059E008F8043018F8043003B9ACE0079B6B
:105AA00093F800C05B780CEB03239BB20493059B37
:105AB00093F800C05B780CEB03239BB20393069B27
:105AC00093F800C05B780CEB03239BB202930CE0CD
:105AD000FFE70798008804900698008802900598D0
