:020000040800F2
:10000000A8060020690900087109000873090008A2
:100010007509000877090008790900080000000048
:100020000000000000000000000000007B09000844
:100030007D090008000000007F0900088109000810
:100040008309000883090008830900088309000860
:100050008309000883090008830900088309000850
:100060008309000883090008830900088309000840
:100070008309000883090008830900088309000830
:100080008309000883090008830900088309000820
:100090008309000883090008830900088309000810
:1000A0008309000883090008830900088309000800
:1000B00083090008830900088309000883090008F0
:1000C00083090008830900088309000883090008E0
:1000D00083090008830900088309000883090008D0
:1000E00083090008830900088309000883090008C0
:1000F00083090008830900088309000883090008B0
:10010000830900088309000883090008830900089F
:10011000830900088309000883090008830900088F
:10012000830900088309000883090008830900087F
:1001300000F002F800F03AF80AA090E8000C8244BF
:100140008344AAF10107DA4501D100F02FF8AFF29C
:10015000090EBAE80F0013F0010F18BFFB1A43F0A5
:1001600001031847A4160000C4160000103A24BF6B
:1001700078C878C1FAD8520724BF30C830C144BF0C
:1001800004680C607047000000230024002500264E
:10019000103A28BF78C1FBD8520728BF30C148BFEA
:1001A0000B6070471FB51FBD10B510BD01F0F8FA08
:1001B0001146FFF7F7FF00F008F801F016FB03B453
:1001C000FFF7F2FF03BC01F017FB00BF00F0F1F8EE
:1001D00000F016F800F096FA11E04FF4784000F0C5
:1001E000CDF94FF4FC6000F0C9F91F2000F0C6F90A
:1001F0004FF6FF7000F0C2F9002000F0BFF9ECE705
:1002000010B56FF0040000F01EFC2E4800682E4967
:10021000B0FBF1F02D4908700846007800EB400172
:10022000C1EBC0104FF6FF7101EAC00028490880F9
:1002300010BD0146254A12784A434FF0E0235A6127
:1002400000229A611A46126942F001021A6100BF47
:100250004FF0E022106900F001021AB100F4803280
:10026000002AF5D04FF0E022126922F001024FF08F
:10027000E0231A6100229A6170470146144A1288ED
:100280004A434FF0E0235A6100229A611A461269EC
:1002900042F001021A6100BF4FF0E022106900F045
:1002A00001021AB100F48032002AF5D04FF0E022AA
:1002B000126922F001024FF0E0231A6100229A61D4
:1002C000704700000400002000127A0000000020A7
:1002D000020000200CB50020019000906C480068DE
:1002E00040F480306A49086000BF6948006800F443
:1002F000003000900198401C0190009818B90198B6
:10030000B0F5A06FF1D16248006800F4003010B180
:100310000120009001E0002000900098012843D1C6
:100320005C48006840F010005A49086008460068C0
:1003300020F0030008600846006840F002000860F2
:10034000534840685249486008464068486008463B
:10035000406840F4806048600846406820F47C10A3
:1003600048600846406840F4E81048600846006865
:1003700040F08070086000BF4548006800F00070E1
:100380000028F9D04248406820F003004049486006
:100390000846406840F00200486000BF3C484068A2
:1003A00000F00C000828F9D10CBD10B5FFF792FF42
:1003B00010BD10B53648006840F0010034490860AF
:1003C000084640683449084031494860084600689A
:1003D000324908402E4908600846006820F4802011
:1003E00008600846406820F4FE0048604FF41F0093
:1003F0008860FFF7DAFF4FF000602949086010BD00
:1004000010B5002100200022214B5B6803F00C0195
:1004100021B1042906D0082928D107E0214B224C1C
:10042000236027E01F4B204C236023E0184B5B68C0
:1004300003F47010164B5B6803F48032022303EB65
:10044000904022B9194B4343174C23600DE0104BE9
:100450005B6803F4003323B1144B4343124C236015
:1004600003E0104B4343104C236003E00D4B0E4C54
:10047000236000BF00BF064B5B68C3F303130C4C43
:10048000E15C094B1B68CB40074C236010BD0000AA
:1004900000100240002002400000FFF8FFFFF6FEBF
:1004A00008ED00E000127A000400002000093D0081
:1004B00008000020FE4908807047FD49891C08801B
:1004C000704700B502461046FFF7F7FF00BDF84A37
:1004D0001080921C1180704700B5F6490889FFF71B
:1004E000E9FF00BD00B502460B46F2494889FFF717
:1004F000E1FF1012FFF7E1FFD0B2FFF7DEFFED4999
:100500008889FFF7D7FF1812FFF7D7FFD8B2FFF798
:10051000D4FFFFF7E1FF00BD30B504460D46294684
:100520002046FFF7DFFFE4480088FFF7C6FF30BD35
:1005300030B504460D46DF494889FFF7BBFF20125E
:10054000FFF7BBFFE0B2FFF7B8FF1012FFF7B5FFF0
:10055000D0B2FFF7B2FFD7498889FFF7ABFF281267
:10056000FFF7ABFFE8B2FFF7A8FF1812FFF7A5FFF0
:10057000D8B2FFF7A2FFFFF7AFFF30BD30B504469A
:100580000025CC484088401E83B2CA480088401EDF
:1005900082B200210846FFF7CBFF00BF03E0C4484A
:1005A000801C04806D1CB5F5163FF8D330BD00B536
:1005B0009FB00121080200F074FD012140F2791082
:1005C00000F07CFD0120ADF8780010208DF87B0054
:1005D00003208DF87A001EA9B84800F0B3FA202055
:1005E000ADF8780010208DF87B0003208DF87A009C
:1005F0001EA9B34800F0A6FA4CF23370ADF87800AB
:1006000018208DF87B0003208DF87A001EA9AD48D4
:1006100000F098FA4FF68070ADF8780018208DF849
:100620007B0003208DF87A001EA9A74800F08AFA03
:1006300041F20100ADF8780018208DF87B0003200E
:100640008DF87A001EA9A14800F07CFA01200890DC
:10065000002009900F200A9000200B900C900D9024
:100660000E900220019000200290052003900020AF
:10067000049005900690079006200F90002010909F
:100680001190102012900020139015901490169045
:1006900017904FF480501890002019904FF480402C
:1006A0001A9000201B9008A81C9001A81D900FA86C
:1006B00000F0B4FD0121062000F018FF1FB000BDBE
:1006C00010B520207E4948616420FFF7D6FD202028
:1006D0007B4908613220FFF7D0FD10BD00B52C200A
:1006E00074490881012088714FF4A0700880F020BF
:1006F00048802A2048812B2088816C213620FFF7F2
:10070000E6FE00BD10B5FFF752FFFFF7D9FFCF207F
:10071000FFF7D0FE0020FFF7D0FEC120FFF7CDFE8F
:100720003020FFF7CAFEED20FFF7C4FE6420FFF77C
:10073000C4FE0320FFF7C1FE1220FFF7BEFE81209A
:10074000FFF7BBFEE820FFF7B5FE8520FFF7B5FEFB
:100750001020FFF7B2FE7A20FFF7AFFECB20FFF7A5
:10076000A9FE3920FFF7A9FE2C20FFF7A6FE0020E6
:10077000FFF7A3FE3420FFF7A0FE0220FFF79DFE47
:10078000F720FFF797FE2020FFF797FEEA20FFF7FC
:1007900091FE0020FFF791FE0020FFF78EFEC020A3
:1007A000FFF788FE1B20FFF788FEC120FFF782FEBF
:1007B0000120FFF782FEC520FFF77CFE3020FFF707
:1007C0007CFE3020FFF779FEC720FFF773FEB720CD
:1007D000FFF773FE3620FFF76DFE4820FFF76DFE32
:1007E0003A20FFF767FE5520FFF767FEB120FFF7BD
:1007F00061FE0020FFF761FE1A20FFF75EFEB620C3
:10080000FFF758FE0A20FFF758FEA220FFF755FE1B
:10081000F220FFF74FFE0020FFF74FFE2620FFF7E4
:1008200049FE0120FFF749FEE020FFF743FE0F20BD
:10083000FFF743FE2A20FFF740FE2820FFF73DFE8A
:100840000820FFF73AFE0E20FFF737FE0820FFF7DB
:1008500034FE5420FFF731FEA920FFF72EFE43207F
:10086000FFF72BFE0A20FFF728FE0F20FFF725FEDB
:100870000020FFF722FE0020FFF71FFE0020FFF7F9
:100880001CFE0020FFF719FEE120FFF713FE0020F9
:10089000FFF713FE1520FFF710FE1720FFF70DFEE0
:1008A0000720FFF70AFE1120FFF707FE06200FE0E2
:1008B000FE07006C3400002018000020000C0140EE
:1008C00000100140001401400018014000200140C8
:1008D000FFF7F3FD2B20FFF7F0FD5620FFF7EDFDAE
:1008E0003C20FFF7EAFD0520FFF7E7FD1020FFF7AA
:1008F000E4FD0F20FFF7E1FD3F20FFF7DEFD3F2085
:10090000FFF7DBFD0F20FFF7D8FD2B20FFF7D2FD0F
:100910000020FFF7D2FD0020FFF7CFFD0120FFF7F9
:10092000CCFD3F20FFF7C9FD2A20FFF7C3FD0020C3
:10093000FFF7C3FD0020FFF7C0FD0020FFF7BDFD5E
:10094000EF20FFF7BAFD1120FFF7B4FD7820FFF785
:1009500094FC2920FFF7AEFDFFF7C0FE01200149FE
:10096000086010BD8081214209488047094800473E
:10097000FEE7FEE7FEE7FEE7FEE7FEE7FEE7FEE74F
:10098000FEE7FEE704480549054A064B70470000AC
:10099000B303000831010008A8000020A8060020C9
:1009A000A8020020A802002031490143314A116009
:1009B000704770B5002100230F22C47804B32D4C7A
:1009C000246804F4E064C4F5E064210AC1F104037E
:1009D000CA40447804FA03F18478144021430901A1
:1009E000254C0678A155047804F01F050124AC407D
:1009F00005786D11AD0005F1E025C5F8004109E06D
:100A0000047804F01F050124AC401C4D06787611D3
:100A100045F8264070BD1A4A0A400243154B1B1F79
:100A20001A60704739B1134A121D12680243114B04
:100A30001B1D1A6006E00F4A121D126882430D4BFF
:100A40001B1D1A607047042808D14FF0E021096986
:100A500041F004014FF0E022116107E04FF0E02186
:100A6000096921F004014FF0E02211617047000094
:100A70000000FA050CED00E000E400E080E100E099
:100A800080FFFF1F10B50446CC48844208D10121E5
:100A9000042000F02DFB0021042000F029FB46E09B
:100AA000C748844208D10121082000F021FB002121
:100AB000082000F01DFB3AE0C248844208D1012121
:100AC000102000F015FB0021102000F011FB2EE09B
:100AD000BD48844208D10121202000F009FB0021FB
:100AE000202000F005FB22E0B848844208D1012113
:100AF000402000F0FDFA0021402000F0F9FA16E055
:100B0000B348844208D10121802000F0F1FA00218D
:100B1000802000F0EDFA0AE0AE48844207D10121BE
:100B2000801500F0E5FA0021A01500F0E1FA10BDF3
:100B300010B50121084600F0DBFA0021012000F089
:100B4000D7FA10BD2DE9F04102460025002600200D
:100B500000230024002791F803C00CF00F0591F842
:100B600003C00CF0100CBCF1000F03D091F802C0D0
:100B70004CEA050591F800C0BCF1000F31D01468B3
:100B800000202BE04FF0010C0CFA00F3B1F800C08C
:100B90000CEA03069E4220D183004FF00F0C0CFAA2
:100BA00003F7BC4305FA03FC4CEA040491F803C0C4
:100BB000BCF1280F06D14FF0010C0CFA00FCC2F872
:100BC00014C00AE091F803C0BCF1480F05D14FF002
:100BD000010C0CFA00FCC2F810C0401C0828D1D34C
:100BE0001460B1F800C0BCF1FF0F34DD5468002080
:100BF0002EE000F1080C4FF0010808FA0CF3B1F8F0
:100C000000C00CEA03069E4221D183004FF00F0C76
:100C10000CFA03F7BC4305FA03FC4CEA040491F810
:100C200003C0BCF1280F05D100F1080C08FA0CF83C
:100C3000C2F8148091F803C0BCF1480F07D100F14D
:100C4000080C4FF0010808FA0CF8C2F81080401C9C
:100C50000828CED35460BDE8F0814FF6FF710180C3
:100C6000022181700421C170704702460020936800
:100C70000B400BB1012000E000207047014688685E
:100C800080B2704702460020D3680B400BB10120B0
:100C900000E0002070470146C86880B270470161DB
:100CA0007047416170470AB1016100E041617047DE
:100CB000C16070474FF480320A4382618161826172
:100CC00082698269704702460020434B18684FF6DC
:100CD0008073184040EA021008433F4B1860704789
:100CE0003E49C8617047F0B50A4600230024002140
:100CF000002500F00046B6F1004F02D1364EF169F2
:100D000001E0354E7168C0F3034583B200F440162C
:100D1000B6F5401F08D121F070612F4E766826F09D
:100D200070662D4F7E6012E000F48016B6F5801FCD
:100D300006D1032606FA05F4A14341F0706106E0EE
:100D4000460D360103FA06F6B14341F0706122B157
:100D5000460D360103FA06F6314300F00046B6F1BF
:100D6000004F02D11C4EF16101E01B4E7160F0BDDD
:100D700030B500228B071C0F0F2303FA04F2164B29
:100D800008338C1053F824309343134C08348D10DF
:100D900044F8253023468C1053F824308C07240F58
:100DA00000FA04F423430C4C08348D1044F8253029
:100DB00030BD0A49DC31086070470000000801407E
:100DC000000C0140001001400014014000180140D7
:100DD000001C0140002001400000014000002042B2
:100DE000DF48006840F00100DD49086008464068BF
:100DF000DC490840DA49486008460068DA4908409A
:100E0000D74908600846006820F48020086008463A
:100E1000406820F4FE0048604FF41F00886070476F
:100E2000CF49096821F48031CD4A11601146096823
:100E300021F480211160B0F5803F03D0B0F5802F00
:100E40000ED106E0C649096841F48031C44A1160F8
:100E500007E0C349096841F4A021C14A116000E0DC
:100E600000BF00BF704710B50146002200230020DC
:100E70004A11012A02D1BA4C236806E0022A02D1A3
:100E8000B74C236A01E0B64C636A01F01F020124EB
:100E900094401C400CB1012000E0002010BD38B58A
:100EA000002000900024002500BF3120FFF7DBFF69
:100EB00005460098401C00900098B0F5A06F01D046
:100EC000002DF2D03120FFF7CEFF08B1012400E061
:100ED0000024204638BD01460020A14A106820F0B9
:100EE000F80040EAC10010607047A04908607047F0
:100EF000024600209A4B586820F47C1042EA010315
:100F00001843974B586070479849086670470146E8
:100F10000020934A506820F0030008435060704757
:100F20008F48406800F00C007047014600208C4A52
:100F3000506820F0F00008435060704701460020E0
:100F4000874A506820F4E0600843506070470146CB
:100F50000020834A506820F4605040EAC10050608D
:100F6000704729B17E4A527A02437D4B5A7204E09F
:100F70007B4A527A82437A4B5A7270477B49D83106
:100F80000860704701460020754A506820F44040D0
:100F90000843506070470021714A20321170704A36
:100FA00082F82010012802D004280AD104E001218F
:100FB0006B4A2032117005E00521694A2032117018
:100FC00000E000BF00BF704769490860704764498E
:100FD000096A0143624A11627047654944390860F1
:100FE000704730B500210022002400235C4D6D685D
:100FF00005F00C0121B1042905D0082923D105E011
:101000005C4D056022E05B4D05601FE0544D6D684E
:1010100005F47012524D6D6805F48034022505EB1D
:1010200092421CB9544D554305600BE04C4D6D6820
:1010300005F400351DB1504D5543056002E04D4D9E
:101040005543056002E04B4D056000BF00BF444DB5
:101050006D6805F0F0010909484D6B5C0568DD40DD
:1010600045603F4D6D6805F4E061090A434D6B5CD6
:101070004568DD4085603A4D6D6805F46051C90AE8
:101080003E4D6B5C4568DD40C560354D6D6805F4CF
:101090004041890B3A4D6B5CC568B5FBF3F50561C2
:1010A00030BD29B12E4A526902432D4B5A6104E0EA
:1010B0002B4A526982432A4B5A61704729B1284A08
:1010C00092690243264B9A6104E0254A9269824361
:1010D000234B9A61704729B1214AD2690243204BC0
:1010E000DA6104E01E4AD26982431D4BDA6170471F
:1010F00029B11B4AD2680243194BDA6004E0184A4E
:10110000D2688243164BDA60704729B1144A1269DB
:101110000243134B1A6104E0114A12698243104BD7
:101120001A61704712494039086070470F49C86416
:1011300070470B49C87170470948406A40F0807099
:1011400007494862704701460020054A92680A40F4
:101150000AB1012000E00020704701498872704701
:10116000001002400000FFF8FFFFF6FE00004242C0
:101170008004424200127A0000093D001E00002057
:101180002E00002030B943F2DB028100A1F1C04102
:101190000A6005E043F2D2028100A1F1C0410A6079
:1011A0006FF07042411C8900A1F1C0410A608100CA
:1011B000A1F1C041C1F80421704710280AD11821BB
:1011C0004FF020421166402151664FF0FC3191668C
:1011D000D16610E01821F74A116040214FF02042FB
:1011E000C2F884104FF0FC31F24A083211604FF01F
:1011F0002042C2F88C1070471820EE492031086058
:1012000000200906C1F8A4004FF0FC30E94928315C
:101210000860091D0860091D08607047D0E90112C7
:101220001143C26811430269114342691143826943
:101230001143C2691143026A1143426A1143826A2F
:101240001143C26A1143026B114302689200A2F17A
:10125000C0421160816808290BD101688900A1F1A1
:10126000C041096841F0400201688900A1F1C04114
:101270000A60416B0968426B526841EA0211426B95
:10128000926841EA0221426B928941EA0241426B33
:10129000128A41EA0251426B127D41EA0261426BBD
:1012A000926911430268521C9200A2F1C04211607F
:1012B000C16AB1F5804F1BD1816B0968826B52689E
:1012C00041EA0211826B926841EA0221826B128A22
:1012D00041EA0251826B127D41EA0261826B92699E
:1012E000114302689200A2F1C042C2F8041107E063
:1012F0006FF0704201688900A1F1C041C1F804217A
:10130000704730B5002100220023446844F00804EF
:1013100085682C43C5682C4305692C43456944EA1C
:101320004524856944EA4531C4692468C5696D6806
:1013300044EA0524C5692D8944EA0544C5692D7B25
:1013400044EA0562046A2468056A6D6844EA052473
:10135000056A2D8944EA0544056A2D7B44EA056344
:101360000468102C05D14FF020442166A266E36684
:1013700008E0904C21604FF02044C4F888208D4C48
:101380000C34236030BD016841F01001426841EA2D
:101390004221826841EA4231864A20321160C168A6
:1013A0000968C268526841EA0221C268128941EAAA
:1013B0000241C268127B41EA02617E4A2832116012
:1013C000016909680269526841EA022102691289C9
:1013D00041EA02410269127B41EA0261754A2C32FC
:1013E0001160416909684269526841EA0221426913
:1013F000128941EA02414269127B41EA02614FF0DF
:101400002042C2F8B0107047002101600221416003
:1014100000218160C160016141618161C16101623E
:101420004FF480514162490081620021C162016331
:101430000F21426B1160426B5160FF21426B916042
:101440000F21426BD160426B1161426B51610021EF
:10145000426B91610F21826B1160826B5160FF21A1
:10146000826B91600F21826BD160826B1161826B04
:1014700051610021826B9161704710210160002150
:1014800041608160C160016141618161FC21C2698B
:101490001160C2695160C2699160C269D160026A1B
:1014A0001160026A5160026A9160026AD1607047FD
:1014B0000021016041608160FC21C2681160C26846
:1014C0005160C2689160C268D160026911600269AE
:1014D0005160026991600269D1604269116042699C
:1014E0005160426991604269D160704751B1820098
:1014F000A2F1C042126842F001038200A2F1C04290
:10150000136009E08200A2F1C04212682A4B1A401F
:101510008300A3F1C0431A60704799B1102808D125
:101520004FF02042126E42F004024FF020431A6640
:101530001DE0204A126842F004024FF02043C3F835
:10154000802014E0102809D14FF02042126E1A4B6F
:10155000DB1E1A404FF020431A6608E0154A126855
:10156000154BDB1E1A404FF02043C3F88020704714
:1015700048B110492031096841F004014FF0204280
:10158000C2F8A01009E00B49203109680A4AD21EAE
:1015900011404FF02042C2F8A0107047B9B1102896
:1015A0000CD14FF02042126E42F040024FF0204327
:1015B0001A661FE0800000A0FEFF0F00724A12684A
:1015C00042F040024FF02043C3F8802012E0102880
:1015D00008D14FF02042126E6C4B1A404FF020435E
:1015E0001A6607E0684A1268684B1A404FF02043B9
:1015F000C3F88020704701460020102903D14FF026
:101600002042506F02E0604A14321068704710B5F3
:10161000F2B1102807D14FF020435B6E0B434FF01F
:101620002044636632E0B0F5807F08D1564B1B1D25
:101630001B680B434FF02044C4F8843026E0524B23
:1016400024331B680B434FF02044C4F8A4301DE042
:10165000102807D14FF020435B6E8B434FF020449E
:10166000636613E0B0F5807F08D1474B1B1D1B68F4
:101670008B434FF02044C4F8843007E0424B2433BE
:101680001B688B434FF02044C4F8A43010BD10B544
:10169000024600200023102A03D14FF02044636E3D
:1016A00009E0B2F5807F03D1374C241D236802E0A6
:1016B000354C2434236803EA01040CB1012000E016
:1016C000002010BD102807D14FF02042526E8A43EF
:1016D0004FF020435A6613E0B0F5807F08D12A4AC4
:1016E000121D12688A434FF02043C3F8842007E09C
:1016F000254A243212688A434FF02043C3F8A420BD
:10170000704770B502460020002300240025102AEF
:1017100003D14FF02046736E09E0B2F5807F03D10C
:10172000194E361D336802E0174E2436336803EA3B
:10173000010403EAD10514B10DB1012000E000203D
:1017400070BD102808D14FF02042526E22EAD1021B
:101750004FF020435A6615E0B0F5807F09D10A4A60
:10176000121D126822EAD1024FF02043C3F88420F0
:1017700008E0054A2432126822EAD1024FF02043E1
:10178000C3F8A42070470000800000A0BFFF0F0036
:1017900070477047704700000048704744000020C1
:1017A0007546FFF7F9FFAE4605006946534620F03F
:1017B0000700854618B020B5FFF7E4F8BDE82040E3
:1017C0004FF000064FF000074FF000084FF0000BFD
:1017D00021F00701AC46ACE8C009ACE8C009ACE8B0
:1017E000C009ACE8C0098D4670470446AFF30080DD
:1017F0002046FEF7E4FC000001491820ABBEFEE7DE
:101800002600020070470000281800080000002091
:10181000340000006C0100085C180008340000204F
:1018200074060000880100080000000000A24A04BD
:101830000000000000000000010203040607080980
:101840000000FFFF0000000000000102030401028D
:0C18500003040607080902040608000053
:0400000508000131BD
:00000001FF
